:020000040800F2
:1000000000000120914A0008AD400008B9400008F6
:10001000BF400008C5400008CB40000800000000B9
:10002000000000000000000000000000D1400008B7
:10003000DD40000800000000E9400008F54000082D
:10004000D94A0008D94A0008D94A0008D94A000804
:10005000D94A0008D94A0008D94A0008D94A0008F4
:10006000D94A0008D94A0008D94A000801410008C5
:10007000D94A0008D94A0008D94A0008D94A0008D4
:10008000D94A0008D94A0008D94A0008D94A0008C4
:10009000D94A0008D94A0008D94A0008D94A0008B4
:1000A000D94A000815410008D94A0008D94A000871
:1000B000294100083D410008D94A0008D94A0008F2
:1000C000D94A0008D94A0008D94A0008D94A000884
:1000D000D94A000851410008F1410008D94A0008F6
:1000E000D94A0008D94A0008D94A0008D94A000864
:1000F000D94A0008D94A0008D94A0008D94A000854
:10010000D94A0008D94A0008D94A0008D94A000843
:10011000D94A0008D94A0008D94A0008D94A000833
:10012000D94A0008D94A0008D94A0008D94A000823
:1001300000000000000000000000000000000000BF
:1001400000000000000000000000000000000000AF
:10015000000000000000000000000000000000009F
:10016000000000000000000000000000000000008F
:10017000000000000000000000000000000000007F
:10018000000000000000000000000000000000006F
:10019000000000000000000000000000000000005F
:1001A000000000000000000000000000000000004F
:1001B000000000000000000000000000000000003F
:1001C000000000000000000000000000000000002F
:1001D000000000000000000000000000000000001F
:0401E0005FF8E0F1F3
:1001E80010B5054C237833B9044B13B10448AFF369
:1001F80000800123237010BDE801002000000000EA
:10020800F0D8000808B5034B1BB103490348AFF306
:10021800008008BD00000000EC010020F0D80008B4
:10022800034613F8012B002AFBD1181A013870472E
:1002380081F0004102E000BF83F0004330B54FEA8F
:1002480041044FEA430594EA050F08BF90EA020FFC
:100258001FBF54EA000C55EA020C7FEA645C7FEA8F
:10026800655C00F0E2804FEA5454D4EB5555B8BFB2
:100278006D420CDD2C4480EA020281EA030382EA23
:10028800000083EA010180EA020281EA0303362DB5
:1002980088BF30BD11F0004F4FEA01314FF4801C88
:1002A8004CEA113102D0404261EB410113F0004F9A
:1002B8004FEA03334CEA133302D0524263EB430351
:1002C80094EA050F00F0A780A4F10104D5F1200EEF
:1002D8000DDB02FA0EFC22FA05F2801841F100014A
:1002E80003FA0EF2801843FA05F359410EE0A5F11E
:1002F80020050EF1200E012A03FA0EFC28BF4CF04F
:10030800020C43FA05F3C01851EBE37101F0004504
:1003180007D54FF0000EDCF1000C7EEB00006EEB11
:100328000101B1F5801F1BD3B1F5001F0CD349089B
:100338005FEA30004FEA3C0C04F101044FEA4452F2
:1003480012F5800F80F09A80BCF1004F08BF5FEA79
:10035800500C50F1000041EB045141EA050130BD59
:100368005FEA4C0C404141EB0101013C28BFB1F56B
:10037800801FE9D291F0000F04BF01460020B1FAB6
:1003880081F308BF2033A3F10B03B3F120020CDA89
:100398000C3208DD02F1140CC2F10C0201FA0CF067
:1003A80021FA02F10CE002F11402D8BFC2F1200CCC
:1003B80001FA02F120FA0CFCDCBF41EA0C01904082
:1003C800E41AA2BF01EB0451294330BD6FEA0404CB
:1003D8001F3C1CDA0C340EDC04F11404C4F12002B6
:1003E80020FA04F001FA02F340EA030021FA04F3C8
:1003F80045EA030130BDC4F10C04C4F1200220FA1F
:1004080002F001FA04F340EA0300294630BD21FA5C
:1004180004F0294630BD94F0000F83F4801306BF22
:1004280081F480110134013D4EE77FEA645C18BF16
:100438007FEA655C29D094EA050F08BF90EA020FAD
:1004480005D054EA000C04BF1946104630BD91EAA5
:10045800030F1EBF0021002030BD5FEA545C05D1A8
:100468004000494128BF41F0004130BD14F58004E7
:100478003CBF01F5801130BD01F0004545F0FE415B
:1004880041F470014FF0000030BD7FEA645C1ABF90
:10049800194610467FEA655C1CBF0B46024650EAC7
:1004A800013406BF52EA033591EA030F41F40021F3
:1004B80030BD00BF90F0000F04BF0021704730B579
:1004C8004FF4806404F132044FF000054FF000014E
:1004D80050E700BF90F0000F04BF0021704730B50F
:1004E8004FF4806404F1320410F0004548BF4042E4
:1004F8004FF000013EE700BF42004FEAE2014FEA39
:1005080031014FEA02701FBF12F07F4393F07F4F13
:1005180081F06051704732F07F4208BF704793F016
:100528007F4F04BF41F40021704730B54FF4607429
:1005380001F0004521F000411CE700BF50EA01022C
:1005480008BF704730B54FF000050AE050EA0102D5
:1005580008BF704730B511F0004502D5404261EB45
:1005680041014FF4806404F132045FEA915C3FF486
:10057800D8AE4FF003025FEADC0C18BF03325FEA23
:10058800DC0C18BF033202EBDC02C2F1200300FAD4
:1005980003FC20FA02F001FA03FE40EA0E0021FAF9
:1005A80002F11444BDE600BF70B54FF0FF0C4CF4E7
:1005B800E06C1CEA11541DBF1CEA135594EA0C0F99
:1005C80095EA0C0F00F0DEF82C4481EA030621EAD4
:1005D8004C5123EA4C5350EA013518BF52EA03350F
:1005E80041F4801143F4801338D0A0FB02CE4FF0C1
:1005F8000005E1FB02E506F00042E0FB03E54FF0F1
:100608000006E1FB03569CF0000F18BF4EF0010EE8
:10061800A4F1FF04B6F5007F64F5407404D25FEAE4
:100628004E0E6D4146EB060642EAC62141EA555197
:100638004FEAC52040EA5E504FEACE2EB4F1FD0CD9
:1006480088BFBCF5E06F1ED8BEF1004F08BF5FEA57
:10065800500E50F1000041EB045170BD06F0004609
:1006680046EA010140EA020081EA0301B4EB5C04B6
:10067800C2BFD4EB0C0541EA045170BD41F48011AE
:100688004FF0000E013C00F3AB8014F1360FDEBFD3
:10069800002001F0004170BDC4F10004203C35DAAF
:1006A8000C341BDC04F11404C4F1200500FA05F332
:1006B80020FA04F001FA05F240EA020001F00042D3
:1006C80021F0004110EBD37021FA04F642EB060149
:1006D8005EEA430E08BF20EAD37070BDC4F10C0473
:1006E800C4F1200500FA04F320FA05F001FA04F237
:1006F80040EA020001F0004110EBD37041F1000123
:100708005EEA430E08BF20EAD37070BDC4F120052D
:1007180000FA05F24EEA020E20FA04F301FA05F295
:1007280043EA020321FA04F001F0004121FA04F23D
:1007380020EA020000EBD3705EEA430E08BF20EA0D
:10074800D37070BD94F0000F0FD101F00046400047
:1007580041EB010111F4801F08BF013CF7D041EAC9
:10076800060195F0000F18BF704703F000465200CD
:1007780043EB030313F4801F08BF013DF7D043EA9E
:100788000603704794EA0C0F0CEA135518BF95EA54
:100798000C0F0CD050EA410618BF52EA4306D1D1DB
:1007A80081EA030101F000414FF0000070BD50EAFA
:1007B800410606BF1046194652EA430619D094EA84
:1007C8000C0F02D150EA013613D195EA0C0F05D16E
:1007D80052EA03361CBF104619460AD181EA0301C2
:1007E80001F0004141F0FE4141F470014FF000007A
:1007F80070BD41F0FE4141F4780170BD70B54FF015
:10080800FF0C4CF4E06C1CEA11541DBF1CEA135594
:1008180094EA0C0F95EA0C0F00F0A7F8A4EB050476
:1008280081EA030E52EA03354FEA013100F088806D
:100838004FEA03334FF0805545EA131343EA126336
:100848004FEA022245EA111545EA10654FEA0026EB
:100858000EF000419D4208BF964244F1FD0404F5A4
:10086800407402D25B084FEA3202B61A65EB030500
:100878005B084FEA32024FF480104FF4002CB6EBBD
:10088800020E75EB030E22BFB61A754640EA0C003D
:100898005B084FEA3202B6EB020E75EB030E22BF7D
:1008A800B61A754640EA5C005B084FEA3202B6EBBE
:1008B800020E75EB030E22BFB61A754640EA9C007D
:1008C8005B084FEA3202B6EB020E75EB030E22BF4D
:1008D800B61A754640EADC0055EA060E18D04FEA0B
:1008E800051545EA16754FEA06164FEAC30343EAAB
:1008F80052734FEAC2025FEA1C1CC0D111F4801F78
:100908000BD141EA00014FF000004FF0004CB6E770
:1009180011F4801F04BF01430020B4F1FD0C88BF0F
:10092800BCF5E06F3FF6AFAEB5EB030C04BFB6EB1A
:10093800020C5FEA500C50F1000041EB045170BD0D
:100948000EF0004E4EEA113114EB5C04C2BFD4EB3A
:100958000C0541EA045170BD41F480114FF0000EBE
:10096800013C90E645EA060E8DE60CEA135594EA3A
:100978000C0F08BF95EA0C0F3FF43BAF94EA0C0F3D
:100988000AD150EA01347FF434AF95EA0C0F7FF4B2
:1009980025AF104619462CE795EA0C0F06D152EA06
:1009A80003353FF4FDAE1046194622E750EA4106EA
:1009B80018BF52EA43067FF4C5AE50EA41047FF4FB
:1009C8000DAF52EA43057FF4EBAE12E74FF0FF3C60
:1009D80006E000BF4FF0010C02E000BF4FF0010C31
:1009E8004DF804CD4FEA410C7FEA6C5C4FEA430CAA
:1009F80018BF7FEA6C5C1BD001B050EA410C0CBFF9
:100A080052EA430C91EA030F02BF90EA020F00205A
:100A1800704710F1000F91EA030F58BF994208BFC1
:100A280090422CBFD8176FEAE37040F0010070477E
:100A38004FEA410C7FEA6C5C02D150EA013C07D1D5
:100A48004FEA430C7FEA6C5CD6D152EA033CD3D020
:100A58005DF8040B704700BF8446104662468C461A
:100A68001946634600E000BF01B5FFF7B7FF00284D
:100A780048BF10F1000F01BD4DF808EDFFF7F4FF76
:100A88000CBF012000205DF808FB00BF4DF808ED01
:100A9800FFF7EAFF34BF012000205DF808FB00BF24
:100AA8004DF808EDFFF7E0FF94BF012000205DF846
:100AB80008FB00BF4DF808EDFFF7CEFF94BF0120FB
:100AC80000205DF808FB00BF4DF808EDFFF7C4FFF4
:100AD80034BF012000205DF808FB00BF4FEA410C3D
:100AE8007FEA6C5C02D150EA013C0AD14FEA430C20
:100AF8007FEA6C5C02D152EA033C02D14FF000005D
:100B080070474FF0010070474FEA410212F500129A
:100B180015D211D56FF47873B3EB625212D94FEA3C
:100B2800C12343F0004343EA505311F0004F23FA26
:100B380002F018BF404270474FF00000704750EA7B
:100B4800013005D111F0004008BF6FF00040704738
:100B58004FF00000704700BF4A0011D212F5001292
:100B680011D20DD56FF47873B3EB62520ED44FEAFD
:100B7800C12343F0004343EA505323FA02F070477D
:100B88004FF00000704750EA013002D14FF0FF30BB
:100B980070474FF0000070474FEA4102B2F1E0435E
:100BA80024BFB3F5001CDCF1FE5C0DD901F0004C4C
:100BB8004FEAC0024CEA5070B2F1004F40EB83009C
:100BC80008BF20F00100704711F0804F21D113F1C8
:100BD8003872BCBF01F00040704741F480114FEA01
:100BE8005252C2F11802C2F1200C10FA0CF320FA8A
:100BF80002F018BF40F001004FEAC1234FEAD323A7
:100C080003FA0CFC40EA0C0023FA02F34FEA430310
:100C1800CCE77FEA625307D150EA01331EBF4FF099
:100C2800FE4040F44000704701F0004040F0FE40B4
:100C380040F40000704700BF80F0004002E000BFB1
:100C480081F0004142001FBF5FEA410392EA030FAF
:100C58007FEA226C7FEA236C6AD04FEA1262D2EBF9
:100C68001363C1BFD218414048404140B8BF5B42FE
:100C7800192B88BF704710F0004F40F4000020F097
:100C88007F4018BF404211F0004F41F4000121F0AD
:100C98007F4118BF494292EA030F3FD0A2F10102F7
:100CA80041FA03FC10EB0C00C3F1200301FA03F135
:100CB80000F0004302D5494260EB4000B0F5000F58
:100CC80013D3B0F1807F06D340084FEA310102F117
:100CD8000102FE2A51D2B1F1004F40EBC25008BFC9
:100CE80020F0010040EA03007047490040EB000093
:100CF800013A28BFB0F5000FEDD2B0FA80FCACF194
:100D0800080CB2EB0C0200FA0CF0AABF00EBC250C0
:100D180052421843BCBFD0401843704792F0000FAE
:100D280081F4000106BF80F400000132013BB5E701
:100D38004FEA41037FEA226C18BF7FEA236C21D077
:100D480092EA030F04D092F0000F08BF08467047DC
:100D580090EA010F1CBF0020704712F07F4F04D1AA
:100D6800400028BF40F00040704712F100723CBFBD
:100D780000F50000704700F0004343F0FE4040F4E7
:100D8800000070477FEA226216BF08467FEA2363A5
:100D98000146420206BF5FEA412390EA010F40F490
:100DA800800070474FF0000304E000BF10F00043DC
:100DB80048BF40425FEA000C08BF704743F09643C3
:100DC80001464FF000001CE050EA010208BF7047DE
:100DD8004FF000030AE000BF50EA010208BF704765
:100DE80011F0004302D5404261EB41015FEA010C7A
:100DF80002BF84460146002043F0B64308BFA3F172
:100E08008053A3F50003BCFA8CF2083AA3EBC25353
:100E180010DB01FA02FC634400FA02FCC2F1200272
:100E2800BCF1004F20FA02F243EB020008BF20F0A9
:100E38000100704702F1200201FA02FCC2F120020F
:100E480050EA4C0021FA02F243EB020008BF20EA04
:100E5800DC7070474FF0FF0C1CEAD0521EBF1CEA32
:100E6800D15392EA0C0F93EA0C0F6FD01A4480EA20
:100E7800010C400218BF5FEA41211ED04FF0006309
:100E880043EA501043EA5111A0FB01310CF0004035
:100E9800B1F5000F3EBF490041EAD3715B0040EA5B
:100EA800010062F17F02FD2A1DD8B3F1004F40EB2B
:100EB800C25008BF20F00100704790F0000F0CF0FE
:100EC800004C08BF49024CEA502040EA51207F3AC2
:100ED800C2BFD2F1FF0340EAC250704740F400009D
:100EE8004FF00003013A5DDC12F1190FDCBF00F08E
:100EF80000407047C2F10002410021FA02F1C2F13C
:100F0800200200FA02FC5FEA310040F1000053EAD7
:100F18004C0308BF20EADC70704792F0000F00F025
:100F2800004C02BF400010F4000F013AF9D040EA2B
:100F38000C0093F0000F01F0004C02BF490011F4BF
:100F4800000F013BF9D041EA0C018FE70CEAD153BD
:100F580092EA0C0F18BF93EA0C0F0AD030F0004C3D
:100F680018BF31F0004CD8D180EA010000F00040F1
:100F7800704790F0000F17BF90F0004F084691F0AF
:100F8800000F91F0004F14D092EA0C0F01D14202E9
:100F98000FD193EA0C0F03D14B0218BF084608D1B2
:100FA80080EA010000F0004040F0FE4040F40000FC
:100FB800704740F0FE4040F4400070474FF0FF0C8F
:100FC8001CEAD0521EBF1CEAD15392EA0C0F93EAD6
:100FD8000C0F69D0A2EB030280EA010C49024FEA28
:100FE800402037D04FF0805343EA111143EA1013E1
:100FF8000CF000408B4238BF5B0042F17D024FF499
:10100800000C8B4224BF5B1A40EA0C00B3EB510F73
:1010180024BFA3EB510340EA5C00B3EB910F24BF5C
:10102800A3EB910340EA9C00B3EBD10F24BFA3EBE1
:10103800D10340EADC001B0118BF5FEA1C1CE0D1A9
:10104800FD2A3FF650AF8B4240EBC25008BF20F05C
:10105800010070470CF0004C4CEA50207F32C2BFB0
:10106800D2F1FF0340EAC250704740F400004FF04D
:101078000003013A37E792F0000F00F0004C02BF7E
:10108800400010F4000F013AF9D040EA0C0093F048
:10109800000F01F0004C02BF490011F4000F013BA2
:1010A800F9D041EA0C0195E70CEAD15392EA0C0F0A
:1010B80008D142027FF47DAF93EA0C0F7FF470AF42
:1010C800084676E793EA0C0F04D14B023FF44CAF85
:1010D80008466EE730F0004C18BF31F0004CCAD11A
:1010E80030F000427FF45CAF31F000437FF43CAF56
:1010F8005FE700BF4FF0FF3C06E000BF4FF0010C78
:1011080002E000BF4FF0010C4DF804CD4FEA400259
:101118004FEA41037FEA226C18BF7FEA236C11D0A3
:1011280001B052EA530C18BF90EA010F58BFB2EB56
:10113800030088BFC81738BF6FEAE17018BF40F0D6
:10114800010070477FEA226C02D15FEA402C05D18A
:101158007FEA236CE4D15FEA412CE1D05DF8040B0F
:10116800704700BF844608466146FFE70FB5FFF7A2
:10117800C9FF002848BF10F1000F0FBD4DF808ED5A
:10118800FFF7F4FF0CBF012000205DF808FB00BF4B
:101198004DF808EDFFF7EAFF34BF012000205DF8A5
:1011A80008FB00BF4DF808EDFFF7E0FF94BF0120F2
:1011B80000205DF808FB00BF4DF808EDFFF7D2FFEF
:1011C80094BF012000205DF808FB00BF4DF808ED32
:1011D800FFF7C8FF34BF012000205DF808FB00BFFF
:1011E80042000ED2B2F1FE4F0BD34FF09E03B3EB89
:1011F800126209D44FEA002343F0004323FA02F0B5
:1012080070474FF00000704712F1610F01D14202A0
:1012180002D14FF0FF3070474FF00000704700BF19
:1012280038B50C4605462146284600220023FFF71C
:101238002DFC28B928462146BDE8384000F00AB8F8
:10124800284604F1004100F005F8404261EB4101F5
:1012580038BD00BFD0B500220B4B06460F46FFF73E
:10126800A3F9FFF779FC0446FFF724F90022074B9E
:10127800FFF79AF902460B4630463946FEF7DCFF7F
:10128800FFF76AFC2146D0BD0000F03D0000F041A8
:1012980080B582B000AF062002F05EF80346FB80FE
:1012A800FB88002B02D14FF0000310E0FB881846A2
:1012B800FFF778FD034608491846FFF7CBFD0346BC
:1012C80006491846FFF7BEFC03463B603B681846D4
:1012D8000837BD4680BD00BF9487853CCCEEB93F3A
:1012E80080B582B000AF072002F036F80346FB80D5
:1012F800FB88002B02D14FF0000310E0FB88184652
:10130800FFF750FD034608491846FFF7A3FD0346BB
:1013180006491846FFF796FC03463B603B681846AB
:101328000837BD4680BD00BFDE718A3CBF7D953F52
:1013380080B584B000AF78604FF000017868FFF79F
:101348001DFF0346002B02D00023FB810EE00C4951
:101358007868FFF77FFD03460A491846FFF772FCD5
:1013680003461846FFF73CFF0346FB81FB89002232
:101378000021054804F092F900BF1037BD4680BD32
:10138800B0F2734273688A410C16002080B592B09F
:1013980000AF0023A7F84430002387F843303E4BC2
:1013A8005B687B637B6BBB633B4B9B68FB63002386
:1013B80087F847300FE097F8473007F134029B0071
:1013C800134404220021184602F016FB97F8473010
:1013D800013387F8473097F84730022BEBD907F1EC
:1013E80034013B460C22184607F06EFE97F843304E
:1013F8000C3387F84330294B1B68294AA2FB032387
:10140800DB09A7F84030274B1B88A7F84430B7F80A
:1014180040301B0A9AB297F84330591C87F843109A
:10142800D2B207F148010B4403F8482C97F843302F
:101438005A1C87F84320B7F84020D2B207F1480178
:101448000B4403F8482CB7F844301B0A9AB297F8B3
:101458004330591C87F84310D2B207F148010B44B6
:1014680003F8482C97F843305A1C87F84320B7F8FC
:101478004420D2B207F148010B4403F8482C97F8EE
:1014880043203B46194641F20E0001F0C3F900BF64
:101498004837BD4680BD00BF04020020040C002070
:1014A800F1197605080C002080B500AF00F07AFD30
:1014B8004FF47A7003F070FB00F006F841F65830EC
:1014C80003F06AFB00BF80BD80B596B002AF002371
:1014D800A7F84C30002387F84B303F4B5B68BB6361
:1014E800BB6BFB633C4B9B683B64002387F84F3026
:1014F8000FE097F84F3007F138029B00134404229D
:101508000021184602F078FA97F84F30013387F82F
:101518004F3097F84F30022BEBD907F138013B1DBC
:101528000C22184607F0D0FD97F84B300C3387F89B
:101538004B302A4B1B682A4AA2FB0323DB097B6436
:10154800284B1B88A7F84C307B6C1A0A97F84B304D
:10155800591C87F84B10D2B207F150010B4403F81D
:101568004C2C97F84B305A1C87F84B207A6CD2B227
:1015780007F150010B4403F84C2CB7F84C301B0A08
:101588009AB297F84B30591C87F84B10D2B207F132
:1015980050010B4403F84C2C97F84B305A1C87F831
:1015A8004B20B7F84C20D2B207F150010B4403F896
:1015B8004C2C97F84B305B08DBB29AB297F84B107B
:1015C8003B1D00930B460021022001F0CDFA00BF1D
:1015D8005037BD4680BD00BF04020020040C002027
:1015E800F1197605080C002080B483B000AF0346DB
:1015F800FB71FB79022B05D0022B0BDC002B05D0ED
:10160800012B07E0064B00221A8003E0044B01225D
:101618001A8000BF012318460C37BD4680BC7047AE
:10162800C20B002080B584B000AF78604FF0000195
:101638007868FFF7ADFD0346002B1AD10F4978688B
:10164800FFF7C4FD0346002B13D10C497868FFF758
:10165800B5FC03460A491846FFF7FCFB0346184643
:10166800FFF7BEFD0346FB81064B1B68FA899A63A8
:1016780000E000BF1037BD4680BD00BF0000C84273
:1016880000F07F455418002080B584B000AF786022
:101698007B6823F000437B604FF07E517868FFF74A
:1016A80077FD0346002B03D04FF00003FB6074E086
:1016B8004FF07E517868FFF789FD0346002B19D05B
:1016C8004FF080417868FFF763FD0346002B11D087
:1016D800344B9B8B1846FFF765FB03463249184687
:1016E800FFF76CFC034631491846FFF7ABFA03468F
:1016F800FB6052E04FF080417868FFF767FD0346D2
:10170800002B18D02A497868FFF742FD0346002BC2
:1017180011D0244B9B8B1846FFF744FB0346224904
:101728001846FFF74BFC034622491846FFF78AFA8A
:101738000346FB6031E01E497868FFF747FD034622
:10174800002B19D04FF081417868FFF721FD03463F
:10175800002B11D0134B9B8B1846FFF723FB034636
:1017680011491846FFF72AFC034613491846FFF7A4
:1017780069FA0346FB6010E00A4B9B8B1846FFF79B
:1017880011FB034608491846FFF718FC03460B49A6
:101798001846FFF757FA0346FB60FB6818461037F0
:1017A800BD4680BD0402002000007A44CDCCCC3D6B
:1017B80000004040CDCC4C3ECDCCCC3E9A99193F50
:1017C80098B500AF224B5C68214BDB891846FFF7C0
:1017D800EDFA034619462046FFF7DAFC0346002BCC
:1017E80001D0002331E01A4B5C68194BDB8918469D
:1017F800FFF7DCFA034619462046FFF7E7FC0346E5
:10180800002B10D0124B5C68114B5B8A1846FFF70F
:10181800CDFA034619462046FFF7BAFC0346002BCB
:1018280001D0022311E00A4B5C68094BDB8A184699
:10183800FFF7BCFA034619462046FFF7C7FC0346E4
:10184800002B01D0012300E00323184698BD00BFF8
:101858000402002080B582B000AF0F4B1B78002B2C
:1018680002D00123FB710DE00C4B5B680C49184654
:10187800FFF78EFC0346002B02D00223FB7101E028
:101888000023FB71FB791846FFF7AEFEFB7918467B
:101898000837BD4680BD00BFC00B002004020020F1
:1018A8000000204198B500AF194B5C68194B9B8824
:1018B8001846FFF77BFA034619462046FFF786FCD1
:1018C8000346002B21D0124B9C68124B1B891846EB
:1018D800FFF76CFA034619462046FFF777FC0346E4
:1018E800002B10D00A4B9C680A4BDB881846FFF780
:1018F8005DFA034619462046FFF74AFC0346002BCB
:1019080001D0002302E0022300E00123184698BD1D
:10191800040200202402002080B582B000AF00231A
:10192800BB80FFF7B5FC0346174A9360FFF7D8FC66
:101938000346154A5360FFF78DFF0346FB71FB7999
:10194800022B10D0022B13DC002B02D0012B05D068
:101958000EE001237B7100F00FF909E004237B718D
:1019680000F080F904E002237B7100F08DF900BFDC
:101978003B1D022219464FF4895000F04BFF00BF6F
:101988000837BD4680BD00BF0402002090B585B071
:1019980000AF03463960FB710223FB711D4B9C6845
:1019A8001C4B1B8A1846FFF701FA03464FF07F517C
:1019B8001846FFF74FFA034619462046FFF740F945
:1019C8000346FB60F868FFF75FFEB8604FF0000160
:1019D800F868FFF7E7FB0346002B0AD00D4B5B685E
:1019E800B9681846FFF72EF903461846FFF7A0FC1A
:1019F80009E0084B5B68B9681846FFF721F9034608
:101A08001846FFF795FC3B6804221A7000BF14378C
:101A1800BD4690BD0402002090B585B000AF0346D6
:101A28003960FB71FB79042B00F29A8001A252F80D
:101A380023F000BF511A00081D1B0008B71A000840
:101A4800371B0008611B0008474B5C68464B9B89A5
:101A58001846FFF7ABF9034619462046FFF7F0F89A
:101A68000346FB60F868FFF70FFEB8604FF000010F
:101A7800F868FFF797FB0346002B0AD03A4B5B68E0
:101A8800B9681846FFF7DEF803461846FFF750FC1A
:101A980009E0354B5B68B9681846FFF7D1F803468B
:101AA8001846FFF745FC3B6802221A7058E02E4B97
:101AB8005C682D4B1B8A1846FFF778F903461946D0
:101AC8002046FFF7BDF80346FB60F868FFF7DCFD2A
:101AD800B8604FF00001F868FFF764FB0346002B7D
:101AE8000AD0214B5B68B9681846FFF7ABF8034684
:101AF8001846FFF71DFC09E01B4B5B68B9681846E0
:101B0800FFF79EF803461846FFF712FC3B680422CD
:101B18001A7025E0144B9B8A1846FFF743F90346D1
:101B28001846FFF705FC3B6808221A7018E00F4BAF
:101B380001221A70002201210D4804F037FE00220C
:101B480001210C4804F032FE4FF00000FFF7F0FBD3
:101B58003B6810221A7003E03B6801221A7000BF2C
:101B680000BF1437BD4690BD040200203202002099
:101B7800000801400014014090B583B000AF002375
:101B8800BB8001220121314804F010FE012201210D
:101B98002F4804F00BFEFFF77BFB03462D4A9360AA
:101BA800FFF79EFB03462B4A5360FFF709FE0346E7
:101BB800FB71284B9B684FF000011846FFF7DEFACF
:101BC8000346002B0ED0244B1B780133DAB2224B8C
:101BD8001A70214B1B78032B04D90323FB711E4B6E
:101BE80000221A701D4B1B78002B10D0194B5C6813
:101BF800184B5B8A1846FFF7D9F803461946204662
:101C0800FFF7E4FA0346002B01D00323FB71144BC2
:101C18001B78012B07D13B1D5A1CFB79114618462E
:101C2800FFF7B4FE06E03B1D5A1CFB791146184627
:101C3800FFF7F2FE3B1D0222194641F2211000F087
:101C4800E9FD00BF0C37BD4690BD00BF000801404C
:101C58000014014004020020330200203202002058
:101C6800840B002080B500AFFFF71CFE0346022B53
:101C780005D0022B06DC002B03D0012B02E000BFAD
:101C880000E000BF00BF80BD80B500AF074B002259
:101C98001A7000220121064804F088FD0022012163
:101CA800044804F083FD00BF80BD00BF320200205D
:101CB8000008014000140140B0B5CCB000AF6A4B39
:101CC80007F58A741D460FCD0FC495E8030084E814
:101CD8000300002387F82F314CE097F82F3197F84D
:101CE8002F21DB0007F598710B4413F81C1C5F4B80
:101CF80003F8321097F82F3197F82F21DB0007F5FA
:101D080098710B4413F81B0C5849D3000B44024636
:101D18005A7097F82F3197F82F21DB0007F5987143
:101D28000B4413F81A0C5149D3000B4402469A701D
:101D380097F82F3197F82F21DB0007F598710B449E
:101D480013F8190C4949D3000B440246DA7097F886
:101D58002F3197F82F11DB0007F59872134453F8C9
:101D6800182C4248CB0003445A6097F82F310133AE
:101D780087F82F3197F82F31022BAED93C4A97F8C4
:101D88002F3113703B4A07F134031146E0221846FD
:101D980007F09AF9002387F82F3118E097F82F31C8
:101DA800DB0007F59872134453F8FC2C97F82F3191
:101DB800DB0007F598710B4453F8F83C19461046B8
:101DC80000F0B0FE97F82F31013387F82F3197F8DC
:101DD8002F311B2BE2D9284B00221A7000F08EF805
:101DE8003B4620222549184607F06EF9002387F85C
:101DF8002F310EE097F82F315B003A461344022248
:101E08000021184601F0F8FD97F82F31013387F8C3
:101E18002F3197F82F311F2BECD93B4602331E2266
:101E280019464FF4805000F0F5FC154B00221A605B
:101E3800134B144ADA62124B124A1A63104B4FF0D2
:101E480000025A63104B00221A600F4B0F4ADA62E5
:101E58000D4B0E4A1A630C4B4FF000025A6300BF39
:101E680007F59877BD46B0BD08D900087C16002054
:101E7800980A002020D90008C00B00200402002086
:101E8800880B00208C0B0020CC0B0020D00B0020EE
:101E980098B500AF154B1B88012B1ED1144B1B782E
:101EA800002B1AD1134B1B680133124A1360FFF73A
:101EB800EFF90446104B1B881846FEF777FF0346D8
:101EC80019462046FEF7BEFE03461846FFF788F976
:101ED80003469AB2084B1A8006E0064B00221A60A5
:101EE800054B00221A8000BF00BF98BDC20B00201E
:101EF80032020020040C0020080C002080B500AF3E
:101F080020222349234801F009FC214B1B88012B7F
:101F18001AD01F4B2822DA811D4B03229A811C4BB1
:101F280030225A821A4B14221A82194B0322DA825F
:101F3800174B36229A82164B50225A83144B78221A
:101F48001A83134B64229A834FF6FF732022104999
:101F5800114806F062FB0E221049114801F0DEFB21
:101F68000E4B1B88012B11D00C4B02221A810B4BF4
:101F78001422DA80094B50229A81084B26229A8033
:101F8800064B0A225A80054B3C225A8100BF80BD6D
:101F98000402002000A000089C1800202402002051
:101FA8000074000880B58EB000AF002387F8373082
:101FB8005B495C4801F0E8FF97F837305A1C87F80E
:101FC800372007F138021344142203F8342C97F809
:101FD80037305A1C87F837201946524BDA7807F100
:101FE80038030B4403F8342C97F837305A1C87F819
:101FF800372007F138021344002203F8342C97F8ED
:1020080037305A1C87F837201946464B5A7807F15B
:1020180038030B4403F8342C97F837305A1C87F8E8
:10202800372007F138021344002203F8342C97F8BC
:1020380037305A1C87F8372019463A4B9A7807F1F7
:1020480038030B4403F8342C97F837305A1C87F8B8
:10205800372007F138021344002203F8342C97F88C
:1020680037305A1C87F8372019462E4B1A7807F153
:1020780038030B4403F8342C97F837305A1C87F888
:10208800372007F138021344002203F8342C97F85C
:1020980037305A1C87F837201946214B1A7807F130
:1020A80038030B4403F8342C97F837305A1C87F858
:1020B800372007F138021344002203F8342C97F82C
:1020C80037305A1C87F837201946154B5A7807F1CC
:1020D80038030B4403F8342C97F837305A1C87F828
:1020E800372007F138021344002203F8342C97F8FC
:1020F80037305A1C87F837201946094B9A7807F168
:1021080038030B4403F8342C97F837203B1D194645
:102118004FF4905000F07EFB00BF3837BD4680BDBD
:10212800900A00208C0A002080B584B000AF786047
:102138000B46FB707B6801331B78002B16D00D4BC8
:102148000D481A78597809020A439B781B041A43E8
:10215800002362F31703016800220A461946104655
:1021680001F028FDF860F86801F02CFF00BF103777
:10217800BD4680BDC40B0020C80B002080B483B0CE
:1021880000AF78600B46FB707B685A78034B1A7077
:1021980000BF0C37BD4680BC704700BF340200202A
:1021A80080B483B000AF78600B46FB707B685A78C8
:1021B800034B5A7000BF0C37BD4680BC704700BF48
:1021C8003402002080B483B000AF78600B46FB7007
:1021D8007B685A78034B9A7000BF0C37BD4680BCA9
:1021E800704700BF3402002080B483B000AF78602D
:1021F8000B46FB707B685A78034BDA7000BF0C37CC
:10220800BD4680BC704700BF3402002080B584B052
:1022180000AF78600B46FB700023BB8107F10C030D
:102228000222194641F21B2000F0F4FA00BF1037D1
:10223800BD4680BD80B584B000AF78600B46FB70AA
:102248000023FB7316E0FB7B134AD25CFB7B13492C
:10225800CB5C9A420BD04FF480733B8107F10803A3
:102268000222194641F21B2000F0D4FA10E0FB7B51
:102278000133FB73FB7B032BE5D90423BB81BB89AB
:10228800184600F0A5FBFB7819467868FFF7BEFFF3
:102298001037BD4680BD00BF00000020340200207A
:1022A80080B582B000AF78600B46FB707B681B7806
:1022B8001B021AB27B6801331B781BB213431BB293
:1022C8009AB2074B1A83064B01221A80202204492E
:1022D800044801F06FFA00BF0837BD4680BD00BF53
:1022E8000402002000A0000880B483B000AF78602A
:1022F8000B46FB707B681B781B021AB27B680133A4
:102308001B781BB213431BB29AB2034B5A8100BF0E
:102318000C37BD4680BC70472402002080B483B0CF
:1023280000AF78600B46FB707B681B781B021AB203
:102338007B6801331B781BB213431BB29AB2034B61
:10234800DA8000BF0C37BD4680BC704724020020ED
:1023580080B483B000AF78600B46FB707B681B7855
:102368001B021AB27B6801331B781BB213431BB2E2
:102378009AB2034B1A8100BF0C37BD4680BC704728
:102388002402002080B582B000AF78600B46FB7055
:102398007B681B781B021AB27B6801331B781BB25F
:1023A80013431BB29AB2074B9A81064B01221A803B
:1023B80020220449044801F0FDF900BF0837BD4652
:1023C80080BD00BF0402002000A0000880B582B0D4
:1023D80000AF78600B46FB707B681B781B021AB253
:1023E8007B6801331B781BB213431BB29AB2074BAD
:1023F800DA81064B01221A8020220449044801F0A0
:10240800D9F900BF0837BD4680BD00BF04020020CF
:1024180000A0000880B582B000AF78600B46FB7062
:102428007B681B781B021AB27B6801331B781BB2CE
:1024380013431BB29AB2074B1A82064B01221A8029
:1024480020220449044801F0B5F900BF0837BD4609
:1024580080BD00BF0402002000A0000880B582B043
:1024680000AF78600B46FB707B681B781B021AB2C2
:102478007B6801331B781BB213431BB29AB2074B1C
:102488005A82064B01221A8020220449044801F08E
:1024980091F900BF0837BD4680BD00BF0402002087
:1024A80000A0000880B582B000AF78600B46FB70D2
:1024B8007B681B781B021AB27B6801331B781BB23E
:1024C80013431BB29AB2074B9A82064B01221A8019
:1024D80020220449044801F06DF900BF0837BD46C1
:1024E80080BD00BF0402002000A0000880B582B0B3
:1024F80000AF78600B46FB707B681B781B021AB232
:102508007B6801331B781BB213431BB29AB2074B8B
:10251800DA82064B01221A8020220449044801F07D
:1025280049F900BF0837BD4680BD00BF040200203E
:1025380000A0000880B582B000AF78600B46FB7041
:102548007B681B781B021AB27B6801331B781BB2AD
:1025580013431BB29AB2074B5A83064B01221A80C7
:1025680020220449044801F025F900BF0837BD4678
:1025780080BD00BF0402002000A0000880B582B022
:1025880000AF78600B46FB707B681B781B021AB2A1
:102598007B6801331B781BB213431BB29AB2074BFB
:1025A8009A83064B01221A8020220449044801F02C
:1025B80001F900BF0837BD4680BD00BF04020020F6
:1025C80000A0000880B582B000AF78600B46FB70B1
:1025D8007B681B781B021AB27B6801331B781BB21D
:1025E80013431BB29AB2074B9A81064B01221A80F9
:1025F80020220549054801F0DDF800BF0837BD462F
:1026080080BD00BF240200200402002000740008DE
:1026180080B483B000AF78600B46FB707B681B7892
:102628001B021AB27B6801331B781BB213431BB21F
:102638009AB2034B9A8000BF0C37BD4680BC7047E6
:102648002402002080B483B000AF78600B46FB7092
:102658007B681B781B021AB27B6801331B781BB29C
:1026680013431BB29AB2034B5A8000BF0C37BD46C6
:1026780080BC70472402002080B483B000AF78602B
:102688000B46FB707B685A78034BDA7000BF0C3737
:10269800BD4680BC704700BFC80B002080B483B023
:1026A80000AF78600B46FB707B685A78034B5A7012
:1026B80000BF0C37BD4680BC704700BFC80B002068
:1026C80080B483B000AF78600B46FB707B685A78A3
:1026D800034B9A7000BF0C37BD4680BC704700BFE3
:1026E800C80B002080B483B000AF78600B46FB7045
:1026F8007B685A78034B1A7000BF0C37BD4680BC04
:10270800704700BFC40B002080B483B000AF78606E
:102718000B46FB707B685A78034B5A7000BF0C3726
:10272800BD4680BC704700BFC40B002080B483B096
:1027380000AF78600B46FB707B685A78034B9A7041
:1027480000BF0C37BD4680BC704700BFC40B0020DB
:1027580080B582B000AF78600B46FB70FB789AB208
:102768004FF480537968034805F057FF00BF0837D6
:10277800BD4680BDE018002080B582B000AF074B91
:10278800DB78FB71FB79832B02D100F0D5F800E0F0
:1027980000BF00BF0837BD4680BD00BF2C0F00201A
:1027A80080B485B000AF78600B467B800023FB8146
:1027B80009E0FB897A681A44FB891178084AD154E0
:1027C800FB890133FB81FA897B889A42F1D3044A59
:1027D8007B88A2F82C3100BF1437BD4680BC7047F7
:1027E8002C0F002080B500AF094B1B785A2B06D15F
:1027F800074B5B78A52B04D1FFF7BEFF02E000BFB3
:1028080000E000BF024B0022A3F82C2100BF80BDCE
:102818002C0F002080B584B000AF03463960FB80E0
:1028280013467B71424B0022A3F85A22404BB3F85F
:102838005A325A1C91B23E4AA2F85A121A463C4BD6
:1028480013445A2283F82E21394BB3F85A325A1CB2
:1028580091B2374AA2F85A121A46354B1344A522A8
:1028680083F82E21324BB3F85A325A1C91B2304AAF
:10287800A2F85A1219467B790333DAB22C4B0B446F
:1028880083F82E212A4BB3F85A325A1C91B2284A9F
:10289800A2F85A121A46264B1344822283F82E2194
:1028A800FB881B0A98B2224BB3F85A325A1C91B2D1
:1028B8001F4AA2F85A121946C2B21D4B0B4483F89C
:1028C8002E211B4BB3F85A325A1C91B2184AA2F85F
:1028D8005A121946FB88DAB2154B0B4483F82E219D
:1028E8000023FB7313E0FB7B3A681A44104BB3F8E0
:1028F8005A32591C88B20E49A1F85A021946127860
:102908000B4B0B4483F82E21FB7B0133FB73FA7BC3
:102918007B799A42E7D3064BB3F85A32DBB21946B1
:102928000448FFF715FF00BF1037BD4680BD00BF44
:102938002C0F00205A10002080B59CB000AF204B0F
:102948001B791B021AB21E4B5B791BB213431BB2D5
:10295800A7F86C301A4B9B795B0087F86B3097F8B7
:102968006B203B1D1749184606F0AEFB002387F87D
:102978006F3019E0B7F86C2097F86F30124951F8AA
:1029880033309A420BD197F86F300F4ADB0013446B
:102998005B6897F86B103A1D104698470BE097F85C
:1029A8006F30013387F86F30084B1B7897F86F202A
:1029B8009A42DFD900BF00BF7037BD4680BD00BF57
:1029C8002C0F0020330F00200C0C002038020020B0
:1029D80080B582B000AF0346FB80504B0022A3F8BD
:1029E8005A224E4BB3F85A325A1C91B24B4AA2F8AB
:1029F8005A121A46494B13445A2283F82E21474B40
:102A0800B3F85A325A1C91B2444AA2F85A121A46DA
:102A1800424B1344A52283F82E21404BB3F85A3277
:102A28005A1C91B23D4AA2F85A121A463B4B13441B
:102A3800072283F82E21394BB3F85A325A1C91B227
:102A4800364AA2F85A121A46344B1344822283F8A3
:102A58002E21324BB3F85A325A1C91B22F4AA2F89F
:102A68005A121A462D4B1344002283F82E212B4B61
:102A7800B3F85A325A1C91B2284AA2F85A121A4686
:102A8800264B1344842283F82E21244BB3F85A3260
:102A98005A1C91B2214AA2F85A121A461F4B1344E3
:102AA8005A2283F82E211D4BB3F85A325A1C91B280
:102AB8001A4AA2F85A121A46184B1344012283F8EC
:102AC8002E21FB881B0A98B2144BB3F85A325A1CB1
:102AD80091B2124AA2F85A121946C2B20F4B0B44CD
:102AE80083F82E210D4BB3F85A325A1C91B20B4A77
:102AF800A2F85A121946FB88DAB2084B0B4483F83D
:102B08002E21064BB3F85A32DBB219460448FFF7B8
:102B18001FFE00BF0837BD4680BD00BF2C0F002038
:102B28005A10002080B483B000AF786039600C4B35
:102B38001B7819460B4A7B6842F83130084B1B78E2
:102B4800084ADB0013443A685A60054B1B78013386
:102B5800DAB2034B1A7000BF0C37BD4680BC704711
:102B6800380200200C0C002090B585B000AF044658
:102B7800084611461A462346FB710346BB800B469E
:102B88007B801346BB714A4B0022A3F8EC23484BC9
:102B9800B3F8EC335A1C91B2454AA2F8EC131A4622
:102BA800434B1344FA7983F8F821414BB3F8EC33DB
:102BB8005A1C91B23E4AA2F8EC131A463C4B1344F5
:102BC800462283F8F821BB881B0A98B2384BB3F821
:102BD800EC335A1C91B2364AA2F8EC131946C2B229
:102BE800334B0B4483F8F821314BB3F8EC335A1CC0
:102BF80091B22F4AA2F8EC131946BB88DAB22C4BD3
:102C08000B4483F8F8217B881B0A98B2284BB3F849
:102C1800EC335A1C91B2264AA2F8EC131946C2B2F8
:102C2800234B0B4483F8F821214BB3F8EC335A1C9F
:102C380091B21F4AA2F8EC1319467B88DAB21C4BF2
:102C48000B4483F8F8211A4BB3F8EC335A1C91B2B1
:102C5800174AA2F8EC131A46154B1344BA7983F8AD
:102C6800F8210023FB7313E0FB7B3A6A1A44104BEC
:102C7800B3F8EC33591C88B20D49A1F8EC03194696
:102C880012780B4B0B4483F8F821FB7B0133FB7361
:102C9800FA7BBB799A42E7D3054BB3F8EC33DBB246
:102CA8001946044800F05AFA00BF1437BD4690BDD3
:102CB800901100208813002080B485B000AF7860A0
:102CC8000B46FB7013463B803B887B810023FB73DC
:102CD80022E07B685A1C7A601B789AB27B89534041
:102CE8007B810023BB8111E07B8903F00103002B6A
:102CF80006D07B895B089AB20C4B53407B8102E07B
:102D08007B895B087B81BB890133BB81BB89072B2E
:102D1800EAD9FB7B0133FB73FA7BFB789A42D8D361
:102D28007B8918461437BD4680BC704701A0FFFF59
:102D380080B584B000AF78600B46FB70FB78023B2F
:102D4800DBB24FF6FF7219467868FFF7B5FF034606
:102D5800FB81FB78013B7A6813441B789BB21B020A
:102D6800BB81FB78023B7A6813441B789AB2BB8913
:102D78001344BB81FA89BB899A4209D0BB894CF6B6
:102D8800CC42934204D0BB894CF6CC42934201D149
:102D9800012300E0002318461037BD4680BD00001F
:102DA80080B485B000AF78600B467B800023FB8140
:102DB80009E0FB897A681A44FB891178084AD154DA
:102DC800FB890133FB81FA897B889A42F1D3044A53
:102DD8007B88A2F8F43100BF1437BD4680BC704729
:102DE8009011002080B582B000AF114BB3F8F431D8
:102DF800032B12D90E4B1B78FB80FB88022B0ED1BC
:102E08000B4BB3F8F431DBB219460948FFF790FFD2
:102E18000346BB8000F054F802E000BF00E000BFAA
:102E2800034B0022A3F8F42100BF0837BD4680BD3C
:102E38009011002080B582B000AF0346FB711E4B95
:102E48000022A3F8EC231C4BB3F8EC335A1C91B2C4
:102E5800194AA2F8EC131946174B1A78164B0B446B
:102E680083F8F821144BB3F8EC335A1C91B2124A88
:102E7800A2F8EC131946104B5A780F4B0B4483F801
:102E8800F8210D4BB3F8EC335A1C91B20A4AA2F858
:102E9800EC131A46084B1344FA7983F8F821064BC9
:102EA800B3F8EC33DBB21946044800F057F900BF19
:102EB8000837BD4680BD00BF901100208813002050
:102EC80080B500AF224B5B78013B0F2B3AD801A2AB
:102ED80052F823F01D2F0008232F0008292F00087F
:102EE8002F2F0008352F00083B2F00084D2F000812
:102EF8004D2F00084D2F00084D2F00084D2F0008BA
:102F08004D2F00084D2F00084D2F0008412F0008B5
:102F1800472F000800F01EF818E000F021F815E02F
:102F280000F024F812E000F0A9F80FE000F0ACF887
:102F38000CE000F0CDF809E000F004F906E000F03C
:102F480007F903E00120FFF775FF00BF00BF80BD50
:102F58009011002080B400AF00BFBD4680BC704710
:102F680080B400AF00BFBD4680BC704780B582B05A
:102F780000AF3F4BB3F8F431082B03D00220FFF722
:102F880059FF72E03A4B9A78394BDB781343DBB23E
:102F9800BB80374B1A79364B5B791343DBB27B80A6
:102FA800BA887B881344334A9288934203DD02200F
:102FB800FFF740FF59E02E4B0022A3F8EC232C4BDF
:102FC800B3F8EC335A1C91B2294AA2F8EC1319460B
:102FD800274B1A78264B0B4483F8F821244BB3F877
:102FE800EC335A1C91B2224AA2F8EC131946204B32
:102FF8005A781F4B0B4483F8F8217B88DAB21C4BB4
:10300800B3F8EC33591C88B21949A1F8EC031946F6
:103018005300DAB2164B0B4483F8F8210023FB71F6
:1030280016E0144B1B68B988FA790A441A44104B05
:10303800B3F8EC33591C88B20D49A1F8EC031946D2
:1030480012780B4B0B4483F8F821FB790133FB71A1
:10305800FA797B885B009A42E3DB054BB3F8EC33E3
:10306800DBB21946044800F079F80837BD4680BD40
:1030780090110020881500208813002080B400AF2C
:1030880000BFBD4680BC704780B500AF0E4BB3F89B
:10309800F431082B03D00220FFF7CCFE12E00A4BD4
:1030A8001B79FF2B03D1094B01221A7002E0074B51
:1030B80000221A70044BB3F8F431DBB21946024807
:1030C80000F04CF880BD00BF90110020840B002058
:1030D80080B582B000AF194BB3F8F431082B03D098
:1030E8000220FFF7A7FE25E0144B9A78134BDB78F4
:1030F8001343DBB2FB80114B1A79104B5B791343F6
:10310800DBB2BB800E4B9B88FA889A4203D9022017
:10311800FFF790FE0EE00A4B1A68FB881344BA8842
:10312800D2B21A70054BB3F8F431DBB21946034832
:1031380000F014F80837BD4680BD00BF901100208C
:103148008815002080B400AF00BFBD4680BC704722
:1031580080B400AF00BFBD4680BC704780B5ADF5F8
:10316800007D00AF3B1D18600A46FB1C1A70FB1C53
:103178001A783B1D07F10800196805F0A5FFFB1C2C
:1031880019783B1D4FF6FF721868FFF795FD034647
:10319800A7F8FE31FB1C1B78FA1C591C11701A4643
:1031A800B7F8FE31D9B207F108039954B7F8FE31E0
:1031B8001B0A99B2FB1C1B78FA1C581C10701A4683
:1031C800C9B207F108039954FB1C1B789AB207F19E
:1031D80008014FF6FF73044805F01FFA00BF07F512
:1031E8000077BD4680BD00BF9C18002080B584B024
:1031F80000AF3B1D00221A605A609A60204B214A9A
:103208001A601F4B4FF480729A601D4B01221A738B
:103218001B4B00221A751A4B4FF46022DA61184BC7
:1032280000225A60164B02221A61154801F0D8FC98
:103238000346002B01D000F05DFA06237B600123D2
:10324800BB600223FB603B1D19460D4801F0ACFE34
:103258000346002B01D000F04DFA07237B600223C0
:10326800BB603B1D1946064801F09EFE0346002B35
:1032780001D000F03FFA00BF1037BD4680BD00BF47
:10328800981500200024014080B588B000AF786010
:1032980007F1100300221A605A609A60DA607B68AE
:1032A8001B68284A934249D1274B9B69264A43F415
:1032B80000739361244B9B6903F40073FB60FB6804
:1032C800214B9B69204A43F0040393611E4B9B6981
:1032D80003F00403BB60BB68C0233B6103237B612D
:1032E80007F110031946194803F0CCF8184B194A8E
:1032F8001A60174B00225A60154B00229A60144B33
:103308008022DA60124B4FF400721A61104B4FF4AE
:1033180000625A610E4B20229A610D4B0022DA613D
:103328000B4802F02DFA0346002B01D000F0E2F919
:103338007B68074A1A62064A7B68536200BF2037D7
:10334800BD4680BD00240140001002400008014035
:10335800C81500200800024080B588B000AF78602A
:103368007B68062B03D07B68072B03D005E000237E
:10337800FB7702E00123FB7700BF0023BB7711E056
:10338800FA7FBB7F5B0013440E4A52F82320BB7FB1
:1033980092B25B0007F120010B4423F8182CBB7F85
:1033A8000133BB77BB7F092BEAD907F108030A2150
:1033B800184600F062FB0346BB83BB8B18462037D8
:1033C800BD4680BD3C02002080B582B000AF3B46C0
:1033D80000221A605A600F4B0F4A1A600D4802F01B
:1033E800EAF80346002B01D000F084F900233B6083
:1033F80000237B603B4600221946064802F072F91A
:103408000346002B01D000F075F900BF0837BD4610
:1034180080BD00BF0C1600200074004080B588B045
:1034280000AF786007F1100300221A605A609A60B2
:10343800DA607B681B68144A934221D1134BDB691D
:10344800124A43F00053D361104BDB6903F0005379
:10345800FB60FB680D4B9B690C4A43F004039361C6
:103468000A4B9B6903F00403BB60BB6810233B61F4
:1034780003237B6107F110031946054803F002F89E
:1034880000BF2037BD4680BD0074004000100240D8
:103498000008014080B582B000AF0C4B5B690B4A55
:1034A80043F001035361094B5B6903F001037B603F
:1034B8007B68002200210B2002F047F80B2002F065
:1034C80060F800BF0837BD4680BD00BF001002404D
:1034D80080B588B000AF07F1100300221A605A6067
:1034E8009A60DA602C4B9B692B4A43F01003936176
:1034F800294B9B6903F01003FB60FB68264B9B6913
:10350800254A43F004039361234B9B6903F00403AA
:10351800BB60BB68204B9B691F4A43F02003936143
:103528001D4B9B6903F020037B607B681A4B9B69EA
:10353800194A43F008039361174B9B6903F008038A
:103548003B603B6800220121144803F02FF9002258
:103558000121134803F02AF901233B6101237B6110
:103568000023BB610223FB6107F1100319460B48D6
:1035780002F088FF01233B6101237B610023BB61CB
:103588000223FB6107F110031946054802F07AFF90
:1035980000BF2037BD4680BD001002400008014032
:1035A8000014014080B500AF01F094FA00F03EF835
:1035B800FFF78EFFFFF76EFFFFF706FF00F022FF11
:1035C80001F046F901F06EF900F07CFAFFF70EFE03
:1035D80000F068FF00F0BEFF40F6B83001F0DCFAFA
:1035E80000F08EF8FEF768FB14220A490A4801F039
:1035F800E1FB0A4804F04EF80421094804F0FAF8FF
:103608000848FEF70FF80021074801F0F6FFFDF71C
:103618004BFFFCE73C020020981500200C18002006
:10362800541800200000C8420C16002080B596B03F
:1036380000AF07F1300328220021184605F052FD9B
:1036480007F11C0300221A605A609A60DA601A6156
:103658003B1D00221A605A609A60DA601A615A614A
:103668000D233B634FF480337B630023BB6301234B
:10367800FB6301233B640123BB640223FB644FF417
:1036880080333B654FF4E0137B6507F13003184640
:1036980003F0B0F80346002B01D000F02BF80F23FD
:1036A800FB6102233B6200237B624FF48063BB62B1
:1036B8000023FB6207F11C030221184603F01AFBE2
:1036C8000346002B01D000F015F803237B604FF46C
:1036D8008073BB604FF40043FB603B1D184603F04A
:1036E800A3FC0346002B01D000F004F800BF5837B4
:1036F800BD4680BD80B400AF00BFBD4680BC7047EA
:1037080080B500AF02F02EFD034B3422DA6002F0E0
:103718004FFD00BF80BD00BF0020024080B489B0CB
:1037280000AFF860B9607A607B68FB61BB68BB6119
:10373800FB687B61BB68002B07D0FB68B3F1006FA7
:1037480003D3FB68194A93420ED9002329E07B6909
:103758001A68BB691A60BB690433BB617B690433AF
:103768007B61FB69043BFB61FB69032B0FD97B6918
:103778000F4A9342EBD90AE07A69531C7B61BB6913
:10378800591CB96112781A70FB69013BFB61FB692E
:10379800002B03D07B69054A9342EDD97A68FB690F
:1037A800D31A18462437BD4680BC7047FFFF00086F
:1037B800FCFF000880B592B000AFF860B9607A608D
:1037C80000237B6400233B640023FB630023BB636B
:1037D8000023FB627B687B63FB68B3F1006F09D34E
:1037E800FB68674A934205D27B68002B02D0BB680E
:1037F800002B01D10023BFE002F0B4FCFB6803F109
:103808007843FB62FB6ADB0A3B64FB6A5B08C3F331
:103818000903FB63FB6BC3F58063BB637A6BBB6B0C
:103828009A4200F29B807B6BBB6397E03B6C1F2B3B
:1038380000F299803B6C03F58033DB024FF40062A1
:1038480050491846FFF76AFF00237B640DE0FA6BC6
:103858007B6C13445B004B4A13441B884FF6FF7282
:10386800934207D17B6C01337B647A6CBB6B9A42C1
:10387800EDD300E000BF7A6CBB6B9A4245D20023BF
:103888007B6200233B6300233B6200233B613B6C6C
:1038980003F58033DB02BB6101237B610123FB61FC
:1038A80007F1200207F110031146184602F042FD05
:1038B8000346002B59D100233B630EE03B6B5B00B2
:1038C800BA681A44F96B3B6B0B445B002D490B44F7
:1038D80012881A803B6B01333B633A6BBB6B9A428D
:1038E800ECD33B6C03F58033DB024FF4806225494F
:1038F800184600F049F878627B6AB3F5806F13D0F8
:103908007A6B7B6AD31A7B6330E0BA6BB968F86864
:1039180000F03AF8B862BA6ABB6B9A4204D07A6B84
:10392800BB6AD31A7B6321E0BB6B5B00BA681344A4
:10393800BB60BB6B5B00FA681344FB607A6BBB6BC4
:10394800D31A7B633B6C01333B640023FB637B6BC3
:10395800B3F5806F28BF4FF48063BB637B6B002B8C
:103968007FF464AF02E000BF00E000BF02F020FC7B
:103978007A687B6BD31A5B0018464837BD4680BD12
:10398800FFFF00088C02002080B586B000AFF86009
:10399800B9607A607B687B61164B3B611CE0FA6812
:1039A8003B699A421CD8BB681B889AB24FF0000347
:1039B800F968012002F066FBFB681B889AB2BB68B5
:1039C8001B889A420ED17B69013B7B61BB6802333D
:1039D800BB60FB680233FB607B69002BDFD102E030
:1039E80000BF00E000BF7A687B69D31A1846183711
:1039F800BD4680BDFEFF000880B485B000AF78608A
:103A08000B46FB701346BB70BB785B08BB73FB7837
:103A18007B73FA78BB781344DBB2013B3B7300231A
:103A2800FB7320E07A7BFB7B13441A467B681344C4
:103A38001B78FB723A7BFB7BD31A1A467B681A44C5
:103A4800797BFB7B0B4419467B680B4412781A7010
:103A58003A7BFB7BD31A1A467B681344FA7A1A70AE
:103A6800FB7B0133FB73FA7BBB7B9A42DAD300BF43
:103A780000BF1437BD4680BC704780B485B000AF26
:103A880078600B467B800023BB600023FB810BE042
:103A9800FB895B007A6813441B881A46BB68134489
:103AA800BB60FB890133FB81FA897B889A42EFD39B
:103AB8007B88BA68B2FBF3F39BB218461437BD464D
:103AC80080BC704780B584B000AF07F108030021BF
:103AD8000A461A800A469A7000237B601F4B204AC8
:103AE8001A601E4B4FF0FF325A601C4B4FF4807225
:103AF8009A601A4803F034FC0346002B01D0FFF704
:103B0800F9FD0121154803F059FD034645F250021D
:103B180093421BD01E233B720D237B721E23BB7264
:103B280005233B710C237B711923BB711423FB7193
:103B3800B968786800F03EF8F860F86800F042FA72
:103B480045F250020121054803F01EFD05490648CB
:103B580000F01AFA1037BD4680BD00BF20160020BD
:103B680000280040900A00208C0A002080B584B00C
:103B780000AF78607B681B680B4A934210D102F053
:103B88002DFE0A4BDB69094A43F00063D361074BFA
:103B9800DB6903F00063FB60FB68054B01221A60D8
:103BA80000BF1037BD4680BD00280040001002400D
:103BB8003C044242B0B48BB000AF78603960424BED
:103BC80007F108041D460FCD0FC495E8030084E8EB
:103BD8000300FB799BB203F5FA63FB84FB8CA3F229
:103BE800B2733A4A02FB03F27B79013B5B0007F1AF
:103BF80028010B4433F8203C1946BB790B44013BA0
:103C0800334901FB03F31A443B78083B4FF46161E5
:103C180001FB03F31A447B7819460B461B015B1A18
:103C28009B001344BA7813443B627B79022B20D95A
:103C3800FB8C03F003039BB2002B1AD1FB8C254AA3
:103C4800A2FB03125209642101FB02F29B1A9BB2E8
:103C5800002B0CD1FB8C1F4AA2FB0312D2094FF494
:103C6800C87101FB02F29B1A9BB2002B01D1012300
:103C780000E00023164A02FB03F31A463B6A13448A
:103C88003B62FB8CA3F2B273FB84FB8C9B089BB258
:103C98001946FB8C0F4AA2FB03235B099BB2CB1A84
:103CA800FA8C0C49A1FB0212D20992B21344084AB9
:103CB80002FB03F31A463B6A13443B623B6A18460D
:103CC8002C37BD46B0BC704700DA00088033E101EC
:103CD800805101001F85EB5180B58CB000AFF860B2
:103CE800B9607A603B6040F2B273FB850023BB6227
:103CF800554A07F1140307CA83E807003B684FF4E5
:103D0800616202FB03F31A467B6813447B6015E08B
:103D1800BB6A7B62BA6A4D4B1344BB62FB8D184683
:103D280000F09EF80346002B05D0BB6A03F5A833C4
:103D380003F5C073BB62FB8D0133FB85BA6A7B68F0
:103D48009A42E5D9FB8DDBB22F33DAB2FB68DA7021
:103D5800FB8D013B9BB2184600F082F80346002B0E
:103D680001D01D2300E01C237B757A687B6AD31A77
:103D7800BB62BB6A364AA2FB03231B0C7B627B6ACD
:103D8800344A02FB03F3BA6AD31ABB62BB6A324AEB
:103D9800A2FB0323DB0ADAB2BB681A70BA6A2E4B9D
:103DA800A3FB0213DB0A4FF4616101FB03F3D31A8F
:103DB8002A4AA2FB03235B09DAB2BB685A70B96AC4
:103DC800264BA3FB01235A0913461B019B1A9B0090
:103DD800CA1AD2B2BB689A70002387F8233027E04A
:103DE80097F8233007F13002134413F81C3C1A46A5
:103DF8007B6A93420CD297F823300133DAB2FB681E
:103E08005A707B6ADBB20133DAB2FB689A7013E04E
:103E180097F8233007F13002134413F81C3C1A4674
:103E28007B6A9B1A7B6297F82330013387F823302B
:103E380097F823300B2BD3D9F86800F03FF800BF70
:103E48003037BD4680BD00BF18DA00088033E10175
:103E580007452EC280510100C5B3A2918988888880
:103E680080B483B000AF0346FB80FB8803F00303F4
:103E78009BB2002B0BD1FB880F4AA2FB03125209FD
:103E8800642101FB02F29B1A9BB2002B0CD1FB8828
:103E9800094AA2FB0312D2094FF4C87101FB02F2CE
:103EA8009B1A9BB2002B01D1012300E00023184686
:103EB8000C37BD4680BC70471F85EB5180B485B078
:103EC80000AF78600023FB8100237B737B685B78FD
:103ED800012B03D07B685B78022B0AD17B685B7867
:103EE8000C337B737B68DB789BB203F2CF73FB8167
:103EF80008E07B685B787B737B68DB789BB203F5B3
:103F0800FA63FB817B689B781A467B7B5B00D11840
:103F18007B7B5A1C13465B001344184A82FB03023E
:103F28005210DB17D31ACA18FB891344FA8992086E
:103F380092B21344FA891249A1FB0212520992B2B1
:103F48009B1AFA890E49A1FB0212D20992B21A44AD
:103F58000C4B83FB021313449910D317C91A0B4651
:103F6800DB005B1AD11ACBB20133DAB27B681A7064
:103F780000BF1437BD4680BC704700BF67666666E1
:103F88001F85EB519324499280B584B000AF7860C7
:103F980039600023FB600A4B9B69FB60FB681B04CC
:103FA800FB60074BDB69FA681344FB600823FA6877
:103FB80039687868FFF790FE00BF1037BD4680BDAE
:103FC8000028004080B483B000AF7860194BDB69EB
:103FD800184A43F08053D361164BDB69154A43F006
:103FE8000063D361144B1B68134A43F48073136056
:103FF800124B5B68114A43F0100353600F4A7B6809
:104008009BB2D3610D4A7B681B0C93610B4B5B68B9
:104018000A4A23F01003536000BF084B5B6803F0A3
:104028002003002BF9D000BF00BF0C37BD4680BC71
:10403800704700BF00100240007000400028004098
:1040480080B485B000AF154B9B69144A43F0010357
:104058009361124B9B6903F00103BB60BB680F4B74
:10406800DB690E4A43F08053D3610C4BDB6903F0E4
:1040780080537B607B680A4B5B68FB60FB6823F0BE
:10408800E063FB60FB6843F00073FB60044AFB6875
:10409800536000BF1437BD4680BC70470010024013
:1040A8000000014080B400AF00BFBD4680BC70472F
:1040B80080B400AFFEE780B400AFFEE780B400AF85
:1040C800FEE780B400AFFEE780B400AF00BFBD4696
:1040D80080BC704780B400AF00BFBD4680BC70474D
:1040E80080B400AF00BFBD4680BC704780B500AF4C
:1040F80000F036FD00BF80BD80B500AF024801F07A
:1041080057FD00BF80BD00BFC815002080B500AFB7
:10411800024803F029FC00BF80BD00BF0C18002036
:1041280080B500AF024803F01FFC00BF80BD00BF90
:104138005418002080B500AF024803F015FC00BFFA
:1041480080BD00BF3416002080B582B000AF0023C8
:10415800FB71224B1B681B6803F02003202B1AD12C
:10416800F91D4FF47A7301221C4804F0E8FA1C4B3D
:104178001B88B3F57A7F09D2194B1B885A1C91B258
:10418800174A11801A46F979164B9954134B1B6834
:104198006FF020021A60114B1B681B6803F01003B4
:1041A800102B13D10E4B1B8819460E4800F04AFC01
:1041B8000B4B00221A8000233B60084B1B681B68CE
:1041C8003B60064B1B685B683B603B68034804F038
:1041D80059FB00BF0837BD4680BD00BF9C180020B2
:1041E8009A0A00209C0A002080B582B000AF002304
:1041F800FB71234B1B681B6803F02003202B1CD189
:10420800F91D4FF47A7301221D4804F098FA1D4BEA
:104218001B88B3F57A7F0BD21A4B1B881A46F9799B
:10422800194B9954174B1B8801339AB2154B1A80B6
:10423800134B1B686FF020021A60114B1B681B6838
:1042480003F01003102B13D10E4B1B8819460E4890
:1042580000F009FC0B4B00221A8000233B60084B3E
:104268001B681B683B60064B1B685B683B603B68D0
:10427800034804F007FB00BF0837BD4680BD00BFF8
:10428800E0180020B00A0020B40A002080B400AF73
:1042980001231846BD4680BC704780B582B000AF88
:1042A8007860396004F0E6FE034616221A604FF083
:1042B800FF3318460837BD4680BD80B582B000AFD1
:1042C80078604FF0FF317868FFF7E7FFFEE780B5C9
:1042D80086B000AFF860B9607A6000237B610AE0BD
:1042E800AFF300800146BB685A1CBA60CAB21A70A4
:1042F8007B6901337B617A697B689A42F0DB7B6872
:1043080018461837BD4680BD80B586B000AFF86046
:10431800B9607A6000237B6109E0BB685A1CBA6007
:104328001B781846AFF300807B6901337B617A699B
:104338007B689A42F1DB7B6818461837BD4680BD1A
:1043480080B483B000AF78604FF0FF3318460C3765
:10435800BD4680BC704780B483B000AF78603960D8
:104368003B684FF400525A60002318460C37BD468C
:1043780080BC704780B483B000AF786001231846D2
:104388000C37BD4680BC704780B485B000AFF8607C
:10439800B9607A60002318461437BD4680BC704760
:1043A80080B584B000AF7860114B1B68002B02D138
:1043B8000F4B104A1A600E4B1B68FB600C4B1A68B7
:1043C8007B6813446A46934207D904F053FE0346B8
:1043D8000C221A604FF0FF3306E0054B1A687B6821
:1043E8001344034A1360FB6818461037BD4680BD66
:1043F800940A00205819002080B400AF00BFBD46C1
:1044080080BC704780B586B000AF07F10803002272
:104418001A605A609A60DA603B4600221A605A6055
:104428001E4B1F4A1A601D4B47225A601B4B002225
:104438009A601A4B42F20F72DA60184B00221A6126
:10444800164B00225A61154B00229A61134803F05B
:10445800D1F80346002B01D0FFF74CF94FF48053F5
:10446800BB6007F1080319460C4803F043FC0346F8
:10447800002B01D0FFF73EF900233B6000237B604F
:104488003B461946054803F0FDFF0346002B01D0C3
:10449800FFF730F900BF1837BD4680BD0C18002063
:1044A800002C014080B58AB000AF07F1200300223C
:1044B8001A605A603B1D00221A605A609A60DA60DE
:1044C8001A615A619A61224B4FF080421A60204B60
:1044D80063225A601E4B00229A601D4B40F6FE7202
:1044E800DA601B4B00221A61194B00229A611848A6
:1044F80003F030F90346002B01D0FFF7FBF8002347
:104508003B6200237B6207F120031946104803F041
:10451800B9FF0346002B01D0FFF7ECF860237B605E
:104528000023BB600023FB6000237B613B1D04224A
:104538001946074803F020FB0346002B01D0FFF77C
:10454800D9F8034800F0C6F800BF2837BD4680BD3B
:104558005418002080B58AB000AF07F1200300226C
:104568001A605A603B1D00221A605A609A60DA602D
:104578001A615A619A61224B224A1A60204B092219
:104588005A601F4B00229A601D4B40F6FE72DA609B
:104598001B4B00221A611A4B00229A61184803F03B
:1045A800D9F80346002B01D0FFF7A4F800233B629B
:1045B80000237B6207F120031946114803F062FFCC
:1045C8000346002B01D0FFF795F860237B6000239A
:1045D800BB600023FB6000237B613B1D0022194662
:1045E800074803F0C9FA0346002B01D0FFF782F809
:1045F800034800F06FF800BF2837BD4680BD00BFF4
:10460800341600200004004080B584B000AF786004
:104618007B681B680D4A934213D10D4B9B690C4A6A
:1046280043F4006393610A4B9B6903F40063FB60E6
:10463800FB6800220021192000F087FF192000F0F4
:10464800A0FF00BF1037BD4680BD00BF002C014051
:104658000010024080B584B000AF78607B681B68AA
:10466800B3F1804F14D1194BDB69184A43F00103A9
:10467800D361164BDB6903F00103FB60FB68002282
:1046880001211C2000F061FF1C2000F07AFF18E0D7
:104698007B681B680E4A934213D10C4BDB690B4AAB
:1046A80043F00203D361094BDB6903F00203BB60EB
:1046B800BB68002203211D2000F047FF1D2000F0E9
:1046C80060FF00BF1037BD4680BD00BF001002402C
:1046D8000004004080B58AB000AF786007F1140389
:1046E80000221A605A609A60DA607B681B68B3F12E
:1046F800804F18D1254B9B69244A43F004039361EA
:10470800224B9B6903F004033B613B6902237B61F5
:104718000223BB6102233B6207F1140319461C48BC
:1047280001F0B0FE2EE07B681B681A4A934229D13B
:10473800164B9B69154A43F008039361134B9B6919
:1047480003F00803FB60FB6810237B610223BB6155
:1047580002233B6207F1140319460F4801F092FE49
:104768000E4B5B687B627B6A23F440637B627B6AE7
:1047780043F0E0637B627B6A43F400637B62074A31
:104788007B6A536000BF2837BD4680BD00100240D9
:104798000008014000040040000C014000000140F6
:1047A80080B584B000AF78607B681B68254A934267
:1047B80044D10023FB733CE0FB7B234ADB0013441A
:1047C800DB78002B32D0FB7B1F4ADB0013449B783D
:1047D800002B0CD0FB7B1C4ADB0013445B6898471A
:1047E800FB7B194ADB00134400229A701EE0FB7B16
:1047F800154A12F833200132D1B2134A02F83310A5
:10480800FB7B114A12F83320FB7B0F49DB000B447A
:104818005B789A420AD1FB7B0B4ADB0013440122E6
:104828009A70FB7B084A002102F83310FB7B0133A6
:10483800FB73064B1B78FA7B9A42BDD300BF103737
:10484800BD4680BD002C01407C160020980A00203F
:1048580080B500AF114B124A1A60104B4FF4E13289
:104868005A600E4B00229A600C4B0022DA600B4B08
:1048780000221A61094B0C225A61084B00229A61E6
:10488800064B0022DA61054803F07AFE0346002B46
:1048980001D0FEF72FFF00BF80BD00BF9C1800208D
:1048A8000038014080B500AF114B124A1A60104B16
:1048B8004FF4E1325A600E4B00229A600C4B0022F2
:1048C800DA600B4B00221A61094B0C225A61084B23
:1048D80000229A61064B0022DA61054803F050FE77
:1048E8000346002B01D0FEF705FF00BF80BD00BFC7
:1048F800E01800200044004080B58CB000AF78601C
:1049080007F11C0300221A605A609A60DA607B681B
:104918001B68464A93423AD1454B9B69444A43F443
:1049280080439361424B9B6903F48043BB61BB693D
:104938003F4B9B693E4A43F0040393613C4B9B69A0
:1049480003F004037B617B694FF40073FB6102236E
:104958003B620323BB6207F11C031946354801F08B
:1049680091FD4FF48063FB6100233B6200237B626F
:1049780007F11C0319462F4801F084FD002202218B
:10498800252000F0E2FD252000F0FBFD4AE07B68D1
:104998001B68294A934245D1254BDB69244A43F4D5
:1049A8000033D361224BDB6903F400333B613B697D
:1049B8001F4B9B691E4A43F0200393611C4B9B6964
:1049C80003F02003FB60FB682023FB6102233B62AA
:1049D8000323BB6207F11C031946184801F052FD76
:1049E8004023FB6100233B6200237B6207F11C0329
:1049F8001946124801F046FD114B5B68FB62FB6AE1
:104A080043F0E063FB62FB6A43F00803FB620C4A75
:104A1800FB6A536000220421262000F096FD262020
:104A280000F0AFFD00BF3037BD4680BD0038014003
:104A380000100240000801400044004000140140FA
:104A48000000014080B582B000AF78600B467B80E3
:104A58007B8819467868FEF7A3F9FEF7C3F900BF0B
:104A68000837BD4680BD80B582B000AF78600B4680
:104A78007B807B8819467868FDF792FEFDF7B2FEC9
:104A880000BF0837BD4680BD002103E00B4B5B58D3
:104A9800435004310A480B4B42189A42F6D30A4A4B
:104AA80002E0002342F8043B084B9A42F9D3FFF78F
:104AB800A3FC04F0E5FAFEF775FD70471CDF00085B
:104AC80000000020E4010020E8010020581900201F
:104AD800FEE7000080B500AF084B1B68074A43F0AB
:104AE80010031360032000F025FD002000F008F8F3
:104AF800FFF7A6FA0023184680BD00BF0020024039
:104B080080B582B000AF7860124B1A68124B1B78E0
:104B180019464FF47A73B3FBF1F3B2FBF3F318467B
:104B280000F03DFD0346002B01D001230EE07B6819
:104B38000F2B0AD8002279684FF0FF3000F005FDEE
:104B4800064A7B681360002300E0012318460837F3
:104B5800BD4680BD040000200C0000200800002095
:104B680080B400AF054B1B781A46054B1B681344ED
:104B7800034A136000BFBD4680BC70470C0000208C
:104B88002419002080B400AF024B1B681846BD46AC
:104B980080BC70472419002080B584B000AF7860CD
:104BA800FFF7F0FFB8607B68FB60FB68B3F1FF3F7D
:104BB80005D00A4B1B781A46FB681344FB6000BFFC
:104BC800FFF7E0FF0246BB68D31AFA689A42F7D8A3
:104BD80000BF00BF1037BD4680BD00BF0C000020DD
:104BE80080B586B000AF78600023FB7500233B6179
:104BF8000023BB600023FB607B68002B01D10123ED
:104C0800CEE07B689B68002B7B689B6A002B09D1F0
:104C18007B680022DA627B68002283F824207868A7
:104C2800FEF732FB786800F011FB0346FB757B68E2
:104C38009B6A03F01003002B40F0A980FB7D002B3A
:104C480040F0A5807B689B6A23F4885323F0020315
:104C580043F002027B689A627B685A687B681B682B
:104C680051498B420AD17B68DB69B3F5402F02D0EA
:104C78007B68DB6904E04FF4002301E07B68DB69B3
:104C88001A437B681B7B5B001343BA681343BB6002
:104C98007B689B68B3F5807F03D07B689B68012B9A
:104CA80002D14FF4807300E000233A6913433B615B
:104CB8007B681B7D012B19D17B681B7B002B09D1DD
:104CC8007B689B69013B5A033B69134343F40063C8
:104CD8003B610BE07B689B6A43F020027B689A6229
:104CE8007B68DB6A43F001027B68DA627B681B68D9
:104CF8005B6823F469417B681B683A690A435A6018
:104D08007B681B689A68294B13407A681268B968EF
:104D18000B4393607B689B68B3F5807F03D07B6807
:104D28009B68012B04D17B681B69013B1B05FB6059
:104D38007B681B68DB6A23F470017B681B68FA6870
:104D48000A43DA627B681B689A68194B1340BA6891
:104D58009A420BD17B680022DA627B689B6A23F057
:104D6800030343F001027B689A6218E07B689B6A40
:104D780023F0120343F010027B689A627B68DB6AB7
:104D880043F001027B68DA620123FB7507E07B6868
:104D98009B6A43F010027B689A620123FB75FB7DD6
:104DA80018461837BD4680BD003C0140FDF7E1FFBD
:104DB800FE0E1FFF80B586B000AFF860B9607A605C
:104DC8000023FB75FB681B68644A934204D0FB68A8
:104DD8001B68634A934206D1604B5B6803F47023F7
:104DE800002B40F0B380FB6893F82430012B01D1ED
:104DF8000223AEE0FB68012283F82420F86800F063
:104E0800CBF90346FB75FB7D002B40F09A80FB68CD
:104E18009B6A23F4706323F0010343F48072FB68F8
:104E28009A62FB681B684E4A934205D14B4B5B68FC
:104E380003F47023002B15D1FB689B6A23F48012BE
:104E4800FB689A62FB681B685B6803F48063002B4D
:104E580026D0FB689B6A23F4405343F48052FB68D6
:104E68009A621DE0FB689B6A43F48012FB689A62B1
:104E7800FB681B68394A934204D0FB681B68384AB0
:104E880093420DD1354B5B6803F48063002B07D048
:104E9800FB689B6A23F4405343F48052FB689A6290
:104EA800FB689B6A03F48053002B06D0FB68DB6A1F
:104EB80023F00602FB68DA6202E0FB680022DA628D
:104EC800FB68002283F82420FB681B6A254A9A6243
:104ED800FB681B6A244ADA62FB681B6A234A1A6366
:104EE800FB681B686FF002021A60FB681B689A680F
:104EF800FB681B6842F480729A60FB68186AFB685A
:104F08001B684C331946BA687B6800F0AFFCFB6835
:104F18001B689B6803F46023B3F5602F08D1FB6816
:104F28001B689A68FB681B6842F4A0029A600FE04D
:104F3800FB681B689A68FB681B6842F480129A60D9
:104F480006E0FB68002283F8242001E00123FB75BA
:104F5800FB7D18461837BD4680BD00BF00240140C0
:104F680000280140D7520008535300086F53000827
:104F780080B483B000AF786000BF0C37BD4680BCFA
:104F8800704780B483B000AF786000BF0C37BD466F
:104F980080BC704780B483B000AF786000BF0C3726
:104FA800BD4680BC7047000080B485B000AF786013
:104FB80039600023FB730023BB607B6893F82430BF
:104FC800012B01D10223DCE07B68012283F8242035
:104FD8003B685B68062B1CD87B681B68596B3B6871
:104FE8005A6813469B001344053B1F2202FA03F339
:104FF800DB4319403B6818683B685A6813469B00B6
:105008001344053B00FA03F27B681B680A435A63A2
:105018003CE03B685B680C2B1CD87B681B68196BF1
:105028003B685A6813469B001344233B1F2202FA2D
:1050380003F3DB4319403B6818683B685A6813461A
:105048009B001344233B00FA03F27B681B680A4366
:105058001A631BE07B681B68D96A3B685A68134669
:105068009B001344413B1F2202FA03F3DB43194020
:105078003B6818683B685A6813469B001344413BD9
:1050880000FA03F27B681B680A43DA623B681B6814
:10509800092B1CD97B681B68D9683B681A681346BA
:1050A8005B0013441E3B072202FA03F3DB4319405B
:1050B8003B6898683B681A6813465B0013441E3BBC
:1050C80000FA03F27B681B680A43DA6019E07B6820
:1050D8001B6819693B681A6813465B00134407226A
:1050E80002FA03F3DB4319403B6898683B681A6887
:1050F80013465B00134400FA03F27B681B680A43FB
:105108001A613B681B68102B03D03B681B68112B86
:1051180032D17B681B681D4A934225D17B681B6886
:105128009B6803F40003002B26D17B681B689A68F0
:105138007B681B6842F400029A603B681B68102B6E
:105148001AD1134B1B68134AA2FB03239A0C13466C
:105158009B0013445B00BB6002E0BB68013BBB6083
:10516800BB68002BF9D107E07B689B6A43F02002FB
:105178007B689A620123FB737B68002283F82420F2
:10518800FB7B18461437BD4680BC7047002401409D
:105198000400002083DE1B4380B584B000AF786034
:1051A8000023FB600023BB607B681B689B6803F0DF
:1051B8000103012B40D07B681B689A687B681B68D9
:1051C80042F001029A601F4B1B681F4AA2FB03238F
:1051D8009B0CBB6002E0BB68013BBB60BB68002B5B
:1051E800F9D1FFF7CFFCF8601FE0FFF7CBFC0246D0
:1051F800FB68D31A022B18D97B681B689B6803F0DD
:105208000103012B11D07B689B6A43F010027B6875
:105218009A627B68DB6A43F001027B68DA627B682A
:10522800002283F82420012307E07B681B689B6821
:1052380003F00103012BD8D1002318461037BD46CF
:1052480080BD00BF0400002083DE1B4380B584B00E
:1052580000AF78600023FB607B681B689B6803F0E5
:105268000103012B2ED17B681B689A687B681B6839
:1052780022F001029A60FFF785FCF8601BE0FFF757
:1052880081FC0246FB68D31A022B14D97B681B6881
:105298009B6803F00103012B0DD17B689B6A43F0E7
:1052A80010027B689A627B68DB6A43F001027B68C4
:1052B800DA62012307E07B681B689B6803F001033F
:1052C800012BDCD0002318461037BD4680BD80B5C1
:1052D80084B000AF78607B685B6AFB60FB689B6AA0
:1052E80003F05003002B27D1FB689B6A43F400723C
:1052F800FB689A62FB681B689B6803F46023B3F53C
:10530800602F15D1FB681B7B002B11D1FB689B6AB2
:1053180023F48072FB689A62FB689B6A03F48053EB
:10532800002B05D1FB689B6A43F00102FB689A6277
:10533800F868FFF71DFE04E0FB681B6A1B6B7868C2
:10534800984700BF1037BD4680BD80B584B000AF18
:1053580078607B685B6AFB60F868FFF712FE00BF45
:105368001037BD4680BD80B584B000AF78607B68DB
:105378005B6AFB60FB689B6A43F04002FB689A62C9
:10538800FB68DB6A43F00402FB68DA62F868FFF73F
:1053980001FE00BF1037BD4680BD000080B485B057
:1053A80000AF78607B6803F00703FB600C4BDB6899
:1053B800BB60BA684FF6FF031340BB60FB681A0274
:1053C800BB68134343F0BF6343F40033BB60044A34
:1053D800BB68D36000BF1437BD4680BC704700BFB0
:1053E80000ED00E080B400AF044BDB681B0A03F05B
:1053F80007031846BD4680BC704700BF00ED00E0BB
:1054080080B483B000AF0346FB7197F90730002BD7
:105418000BDBFB7903F01F02064997F907305B099C
:10542800012000FA02F241F8232000BF0C37BD46E4
:1054380080BC704700E100E080B483B000AF034651
:105448003960FB7197F90730002B0ADB3B68DAB249
:105458000C4997F907301201D2B20B4483F80023A4
:105468000AE03B68DAB20849FB7903F00F03043B12
:105478001201D2B20B441A7600BF0C37BD4680BC6D
:10548800704700BF00E100E000ED00E080B489B0A3
:1054980000AFF860B9607A60FB6803F00703FB614E
:1054A800FB69C3F10703042B28BF0423BB61FB6915
:1054B8000433062B02D9FB69033B00E000237B6120
:1054C8004FF0FF32BB6902FA03F3DA43BB681A40B4
:1054D8007B699A404FF0FF317B6901FA03F3D943A6
:1054E8007B680B40134318462437BD4680BC704781
:1054F80080B582B000AF78607B68013BB3F1807FF4
:1055080001D301230FE00A4A7B68013B53600F2156
:105518004FF0FF30FFF790FF054B00229A60044BD5
:1055280007221A60002318460837BD4680BD00BF11
:1055380010E000E080B582B000AF78607868FFF7CF
:105548002DFF00BF0837BD4680BD80B586B000AFCF
:105558000346B9607A60FB7300237B61FFF742FF63
:1055680078617A68B9687869FFF790FF024697F919
:105578000F3011461846FFF75FFF00BF1837BD46CA
:1055880080BD80B582B000AF0346FB7197F9073044
:105598001846FFF735FF00BF0837BD4680BD80B508
:1055A80082B000AF78607868FFF7A2FF034618461C
:1055B8000837BD4680BD80B582B000AF78607B6893
:1055C800002B01D1012314E07B681B79DBB2002B8F
:1055D80005D17B6800225A717868FDF71FFF7B6848
:1055E80002221A717B6800221A617B6801221A71F3
:1055F800002318460837BD4680BD80B483B000AF8D
:10560800786039607B685B79012B01D1022340E027
:105618007B6801225A717B6802221A717B681B68B9
:1056280019683B6803F0100301229A407B681B68E5
:105638000A431A603B68002B0FD17B681B681B6804
:1056480003F03C033C2B1DD17B681B685A687B68C0
:105658001B6842F001025A6014E07B681B681B68F3
:1056680003F470123B6803F010033C2101FA03F3C2
:105678009A4207D17B681B685A687B681B6842F0AE
:1056880002025A607B6801221A717B6800225A71F3
:10569800002318460C37BD4680BC704780B487B0DD
:1056A80000AFF860B9607A603B6000237B61FB68FB
:1056B8001B687B61BB68002B05D17A697B68134442
:1056C80008337B6104E07A697B68134414337B6197
:1056D8007B691A463B681360002318461C37BD4691
:1056E80080BC704780B487B000AFF860B9607A605A
:1056F800FB685B79012B01D102233CE0FB680122A6
:105708005A71FB6802221A71FB681B681B687B616F
:105718007B6803F0100340F6FE7202FA03F3DB43E2
:105728007A6913407B61BB681A68BB685B6813437E
:105738003B617B6803F010033A6902FA03F37A6964
:1057480013437B61FB681B687A691A60FB681B68F6
:1057580019687B6803F01003C02202FA03F3DA43E6
:10576800FB681B680A401A60FB6801221A71FB6813
:1057780000225A71002318461C37BD4680BC70476A
:1057880080B485B000AF78600023FB607B68002B95
:1057980001D1012359E07B681B681A462D4B9A42B8
:1057A8000FD87B681B681A462B4B13442B4AA2FB65
:1057B80003231B099A007B681A647B68284ADA630A
:1057C8000EE07B681B681A46264B1344234AA2FB4B
:1057D80003231B099A007B681A647B68224ADA63F0
:1057E8007B68022283F821207B681B681B68FB60AA
:1057F800FB6823F47F5323F03003FB607B685A680F
:105808007B689B681A437B68DB681A437B681B6963
:105818001A437B685B691A437B689B691A437B68F8
:10582800DB691343FA681343FB607B681B68FA68FB
:105838001A607B6800229A637B68012283F8212022
:105848007B68002283F82020002318461437BD46C1
:1058580080BC704707040240F8FFFDBFCDCCCCCC1C
:1058680000000240F8FBFDBF0004024080B586B08E
:1058780000AFF860B9607A603B600023FB75FB6895
:1058880093F82030012B01D102234AE0FB68012262
:1058980083F82020FB6893F82130012B3AD1FB686C
:1058A800022283F82120FB6800229A63FB681B68A8
:1058B8001A68FB681B6822F001021A603B687A6864
:1058C800B968F86800F0B0FBFB68DB6A002B08D009
:1058D800FB681B681A68FB681B6842F00E021A60B6
:1058E8000FE0FB681B681A68FB681B6822F004025B
:1058F8001A60FB681B681A68FB681B6842F00A029A
:105908001A60FB681B681A68FB681B6842F0010292
:105918001A6005E0FB68002283F820200223FB754B
:10592800FB7D18461837BD4680BD80B485B000AFF2
:1059380078600023FB737B6893F82130022B08D032
:105948007B6804229A637B68002283F82020012365
:1059580020E07B681B681A687B681B6822F00E02CF
:105968001A607B681B681A687B681B6822F0010252
:105978001A607B681A6C7B68DB6B012101FA02F202
:105988005A607B68012283F821207B68002283F813
:105998002020FB7B18461437BD4680BC70470000AA
:1059A80080B584B000AF78600023FB737B6893F800
:1059B8002130022B05D07B6804229A630123FB73F4
:1059C800D6E07B681B681A687B681B6822F00E02A9
:1059D8001A607B681B681A687B681B6822F00102E2
:1059E8001A607B681B681A46644B9A4258D97B68D0
:1059F8001B68634A93424FD07B681B68614A934295
:105A080048D07B681B68604A934240D07B681B681B
:105A18005E4A934238D07B681B685D4A934230D017
:105A28007B681B685B4A934228D07B681B68534A93
:105A3800934220D07B681B68574A934219D07B68F1
:105A48001B68564A934212D07B681B68544A93429B
:105A58000AD07B681B68534A934202D14FF48053A3
:105A68001BE04FF4803318E04FF4807315E01023E7
:105A780013E0012311E04FF080730EE04FF4801320
:105A88000BE04FF4803308E04FF4805305E04FF407
:105A9800807302E0102300E00123434A536057E07B
:105AA8007B681B68364A93424FD07B681B68354A2F
:105AB800934248D07B681B68334A934240D07B6846
:105AC8001B68324A934238D07B681B68304A93423D
