:020000040800F2
:10000000F8550020C10200088160000879590008F5
:1000100061600008DD210008196C00080000000084
:10002000000000000000000000000000276300083E
:10003000812D0008000000000D610008B168000873
:10004000DB020008DB020008DB020008DB0200081C
:10005000DB020008DB020008DB020008DB0200080C
:10006000DB020008DB020008DB020008812900082F
:10007000DB020008DB0200088D290008992900082E
:10008000A5290008B1290008DB020008DB020008EE
:10009000DB020008DB020008DB020008DB020008CC
:1000A000DB020008C5680008DB020008DB0200086C
:1000B000DB020008DB020008DB020008DB020008AC
:1000C000DB020008DB020008DB020008DB0200089C
:1000D000DB020008896B0008D16B0008DB02000816
:1000E000DB020008DB020008DB020008DB0200087C
:1000F000DB020008DB020008DB020008DB0200086C
:10010000DB020008DB020008DB020008DB0200085B
:10011000DB020008DB020008DB020008DB0200084B
:10012000DB020008DB020008DB020008DB0200083B
:1001300000F002F800F0B4F80AA090E8000C824445
:100140008344AAF10107DA4501D100F0A9F8AFF222
:10015000090EBAE80F0013F0010F18BFFB1A43F0A5
:100160000103184764AB000084AB00000A444FF061
:10017000000C10F8013B13F0070408BF10F8014B06
:100180001D1108BF10F8015B641E05D010F8016B4B
:10019000641E01F8016BF9D113F0080F1EBF10F8AF
:1001A000014BAD1C0C1B09D16D1E58BF01F801CBD2
:1001B000FAD505E014F8016B01F8016B6D1EF9D555
:1001C0009142D6D37047000000230024002500266A
:1001D000103A28BF78C1FBD8520728BF30C148BFAA
:1001E0000B6070476E2900F07583702900F0BF84A2
:1001F00066290AF0108165290AF00D8167290AF045
:100200000A8161290AF0098103681B0A28BF41F0AD
:100210008001692900F02283642900F01F83752979
:1002200000F01C836F2900F04C84782900F08B8447
:10023000E92900F0E783E42900F0E483F52900F0E0
:10024000E183EF2900F04984F82900F08A840368EB
:10025000DB0928BF41F08001632901F0AB817329DC
:1002600001F0B081E32901F0BB81F32901F0C081E5
:10027000002070471FB59DE8030000F057FA01F019
:1002800011FA04000020002109F008FB401C606006
:100290000020002109F0ECFAE0601FBD10B510BD90
:1002A00001F0D2F91146FFF7E5FF06F08FFD01F0EE
:1002B000AFFA03B4FFF7F2FF03BC01F0DFFA00006E
:1002C0000948804709480047FEE7FEE7FEE7FEE7EA
:1002D000FEE7FEE7FEE7FEE7FEE7FEE70448054926
:1002E000054A064B70470000B56800083101000858
:1002F000F8150020F8550020F8350020F8350020CA
:1003000070B5064600F0F6F9056806F10B0020F01E
:100310000704B4429CBF002070BD2B466A68BAB186
:100320001068A04210D304F1080188423CBF506815
:10033000586007D35168101941601168091B0160AA
:1003400058601460101D70BD13465268002AE7D132
:100350002146284600F0D6F90028DED170BD70B5E0
:100360000446051F00F0C6F90068002C14BF44685D
:1003700070BD002C18BFAC423CBF20466468F8D367
:1003800001680A18AA4218BF456003D12A680546C9
:100390001144016028684119A1421CBF6C6070BD06
:1003A0006168696021680844286070BDB2F120036B
:1003B0000AD5C2F1200320FA02F001FA03F321FA70
:1003C00002F140EA0300704721FA03F04FF0000108
:1003D000704700007CB51D4616460C00009001D009
:1003E0002044401E074B7B442A4669460190304614
:1003F00000F089FA05461CB10020694600F096FA23
:1004000028467CBD4D05000010B5431C02E010F8E5
:10041000011B71B18107FAD14FF0013202C88C1A69
:100420008C4314EAC211F9D0C01A0A0603D0C01EC8
:1004300010BDC01A10BD0A0401D0801E10BD0902F3
:10044000FCD0401E10BD40EA010370B59B072ED1C1
:100450004FF00136042A2AD308C810C99D1B9D43BA
:10046000121F15EAC61517D0D8B2E1B2401A50EAE9
:10047000056110D198B2A1B2401A50EA05410AD1E3
:1004800023F07F4024F07F41401A50EA052102D139
:10049000180EA0EB146070BDA342DBD018BA21BACD
:1004A000884201D9012070BD4FF0FF3070BD0AB9FC
:1004B000002070BD10F8013B11F8014B63B1A3425D
:1004C0000AD1521E08D010F8013B11F8014B1BB1A4
:1004D000A34201D1521EEDD1181B70BD032A40F278
:1004E000308010F0030C00F0158011F8013BBCF1D6
:1004F000020F624498BF11F801CB00F8013B38BFEE
:1005000011F8013BA2F1040298BF00F801CB38BFFB
:1005100000F8013B11F0030300F02580083AC0F019
:10052000088051F8043B083A51F804CBA0E80810C1
:10053000F5E7121D5CBF51F8043B40F8043BAFF3F4
:100540000080D20724BF11F8013B11F801CB48BF4E
:1005500011F8012B24BF00F8013B00F801CB48BF84
:1005600000F8012B704710B5203AC0F00B80B1E8BD
:100570001850203AA0E81850B1E81850A0E81850D8
:10058000BFF4F5AF5FEA027C24BFB1E81850A0E8E1
:10059000185044BF18C918C0BDE810405FEA827CFB
:1005A00024BF51F8043B40F8043B08BF7047D20712
:1005B00028BF31F8023B48BF11F8012B28BF20F8B3
:1005C000023B48BF00F8012B704702F0FF0343EAEB
:1005D000032242EA024200F002B84FF0000204296E
:1005E000C0F0128010F0030C00F01B80CCF1040C62
:1005F000BCF1020F18BF00F8012BA8BF20F8022B96
:10060000A1EB0C0100F00DB85FEAC17C24BF00F83B
:10061000012B00F8012B48BF00F8012B70474FF069
:10062000000200B5134694469646203922BFA0E842
:100630000C50A0E80C50B1F12001BFF4F7AF09074E
:1006400028BFA0E80C5048BF0CC05DF804EB89003F
:1006500028BF40F8042B08BF704748BF20F8022B82
:1006600011F0804F18BF00F8012B70474FF0013C8C
:1006700050F8042B51F8043B9A4221D1A2EB0C0311
:10068000934313EACC1317D150F8042B51F8043BD1
:100690009A4215D1A2EB0C03934313EACC130BD16E
:1006A00050F8042B51F8043B9A4209D1A2EB0C03F9
:1006B000934313EACC13DBD04FF00000704700BF28
:1006C000D01A01BAB1FA81F101F0180122FA01F051
:1006D000CB40C1F12001DBB2C0B2C01A2CFA01F349
:1006E000D11A914311EAC311E6D1704770477047A0
:1006F0007047000000487047A01500207047704701
:100700007047704738B504460A4600206946AFF383
:100710000080002808BF38BD02460099204600F03E
:10072000F9FA012038BD012000F086BFF8B5AFF31B
:100730000080054600200C46102000BF0646A81980
:10074000A0420DD9324669460020AFF30080070071
:1007500008BF00F071FF0098A04218BF0546C419F9
:10076000FFF7C8FF05600746F01D20F00700461997
:10077000284600F00AF8B44208BFF8BDA21B314673
:100780003868BDE8F84000F0C5BA00210160C0E952
:10079000011070471020704770B5044685690068E5
:1007A000C10601D5302600E02026C00707D070BD65
:1007B000D4E9012130469047206A401C20626D1E1A
:1007C000F6D570BD70B5044685690078C00707D1BD
:1007D00070BDD4E9012120209047206A401C20628E
:1007E0006D1EF6D570BD09684A0501D540B2704747
:1007F000C905FCD500B2704709684A0501D5C0B2E9
:100800007047C905FCD580B2704770B50C460546E7
:10081000012A05D02878800600D5EA69002302E085
:10082000012305E05B1C934202D2E05C0028F9D171
:10083000A869E618C01AA861286A184428622846E0
:10084000FFF7AAFF04E0D5E9012114F8010B904756
:10085000B442F8D32846FFF7B5FF70BD2DE9F0414B
:100860000646002410687529314616A510D0FFF7FA
:10087000BAFF002802DA404213A507E031688A0770
:1008800001D512A502E0490704D511A5012401E014
:10089000FFF7B2FF00210A2206F1240709E0B0FBAE
:1008A000F2FCB0FBF2F302FB1C0030307854184627
:1008B000491C0028F3D123462A463046BDE8F041C2
:1008C00000F087BA000000002D0000002B0000009F
:1008D0002000000011680268006A530501D5087005
:1008E0000AE0D30501D5088006E0130603D5C21738
:1008F000C1E9000200E008600120704701694A1C5C
:1009000002610878704700B58FB0CDE90131002150
:10091000059105497944CDE903101146684600F078
:1009200031F90FB000BD0000E5FFFFFF0A6802F8D3
:10093000010B0A607047D1E900239A4202D2531C8E
:100940000B601070704700002DE9FF5F15468A4666
:100950000446DFF8AC80F8440027D8E900103E4692
:10096000CDE9001010E03AF816106A4602A800F02F
:1009700043FE411C07D02178890603D5E269391866
:1009800091420DD80744761C2078800602D5E06994
:10099000B84205DDAE42E6DB3AF816000028E2D1A7
:1009A000A069C01BA0612046FFF7F6FED8E9001041
:1009B000CDE90010002017E03AF818106A4602A8A6
:1009C00000F01AFEB0F1FF3F81460BD000250DF17B
:1009D000080B05E0D4E901211BF8050090476D1CC8
:1009E0004D45F7D308F10100B0428046E4DB206AB0
:1009F000384420622046FFF7E5FEBDE8FF9F000077
:100A0000B69F00002DE9F0418046D21D22F007027A
:100A10000025D2E90002F52915A614D0011E72F1B5
:100A2000000106DA0023D0EB030063EB020211A6FB
:100A300008E0D8F800108B0701D50FA602E049079F
:100A400001D50EA601251146002408F1240704E073
:100A500000F07AF930323A55641C50EA0102F7D1BD
:100A60002B46324621464046BDE8F04100F0B1B980
:100A7000000000002D0000002B00000020000000FE
:100A800030B4002100F1240408E002F00705D20888
:100A9000303542EA4372DB086554491C52EA0305CB
:100AA000F3D10468002310A2250707D5A40600D4BB
:100AB00021B1C46901230DA2641EC46130BC00F0E1
:100AC00088B910B5044621461068FFF795FE024626
:100AD0002046BDE810400023D2E7D21D22F00701D6
:100AE000D1E90023CCE70000000000003000000046
:100AF000F0B40D460188090502D5214C7C4402E082
:100B00001F4C7C440E34002100F1240608E002F062
:100B10000F071209E75D42EA03721B097754491C6B
:100B200052EA0307F3D102780023120704D5702D8F
:100B300006D009B1022311342246F0BC00F049B9B5
:100B400001231034F8E770B504460D4621461068BD
:100B5000FFF752FE024629462046BDE870400023BA
:100B6000C6E7D21D22F00703D3E90023C0E70368DC
:100B7000126843F0200303600823C3610023B7E732
:100B8000189E00002DE9F05F894604464FF0000AE8
:100B9000DFF874B1FB44C0F820A02046E168884724
:100BA000002874D0252806D0D4E901219047206A76
:100BB000401C2062F1E700265F462046E168884736
:100BC0002028054607DB312D05D2781910F8200CB6
:100BD00008B10643F1E7B00701D526F00406C4F8D2
:100BE0001CA00027C4F818A02A2D09D0284606F01A
:100BF0004CF838B304EB8708303DC8F8185019E0BA
:100C000059F8041B204604EB87029161E16888478C
:100C1000012F054618D1E069002820DA26F02006C9
:100C20001DE0D8F8180000EB800005EB40003038DC
:100C3000C8F818002046E1688847054606F025F800
:100C40000028EED1012F0AD02E2D08D12046E168D0
:100C500088477F1C0546022F46F02006C4DBA069AA
:100C6000002803DA404246F00106A061F00701D0F7
:100C700026F010066C2D0BD0682D09D04C2D39D0E4
:100C80006A2D35D0742D35D07A2D33D016E038E06A
:100C9000E1682F4620468847B842054609D16C2FA7
:100CA00026D04FF48060E168064320468847054619
:100CB00004E06C2F1AD04FF4807006430DB3A5F1F9
:100CC0004100192802D8203546F400664A462946D4
:100CD000204626604E46FFF785FA80B101280BD0EA
:100CE000F61D26F0070000F1080956E74020E4E76A
:100CF0008020D8E70020D6E706F104094DE7284612
:100D000052E7206ABDE8F09FA89D000000487047A8
:100D100098150020034640688C46002818BF88427A
:100D20003CBF03464068F8D318681844884207D08F
:100D30000CF1030020F00700001D411A521A014671
:100D4000081D0A60FFF70BBB30B5B0F10A024FEA8D
:100D5000900E71F100034EEA817EB0EB0E0061EB64
:100D600091014FEA101E4EEA017E10EB0E0041EB9E
:100D700011114FEA102E4EEA016E10EB0E0041EBFE
:100D800011214FEA104E4EEA014E10EB0E0041EBDE
:100D90001141401841F100014FEAD00040EA417092
:100DA0004FEAD10110EB80054FEA810444EA9074C8
:100DB00044EB01046D1944EB0404521BA3414FF0B2
:100DC000000348BF0A3200D530BD401C41F100018C
:100DD00030BD2DE9F0470D4699469246044600F194
:100DE00024080168880604D5E06921F0100121601B
:100DF00000E00120A84201DD471B00E00027A169B7
:100E00007A1902EB0900081AA0612078C00602D402
:100E10002046FFF7C1FC002608E0D4E901211AF8BA
:100E200006009047206A401C761C20624E45F4DB89
:100E30002078C0060AD52046FFF7AEFC06E0D4E9CC
:100E4000012130209047206A401C2062381EA7F103
:100E50000107F4DC07E0D4E9012118F80500904708
:100E6000206A401C2062281EA5F10105F3DC204603
:100E7000FFF7A8FC2078000602D50220BDE8F08725
:100E80000120FBE770472DE9FF4F0C461E464FF04F
:100E9000FF378BB0D2E90001DDF860800A908A4606
:100EA000C1F30A5505B93D46002108464FF0000040
:100EB000BAF1000F00F4400005DA00EB80004FF4B7
:100EC000400101EA50004FEA9059B9F1010F00DDED
:100ED000B9460A9850EA4A000ED044F61050A5F2DE
:100EE000FF3545432F14B8F1000F1ED07542291E5F
:100EF0001EDDC9F100021CE0B8F1010F4FF0000047
:100F000001D0302103E0F24305E02154401CB042FF
:100F1000FBDB30460022002121540B99C1F80880E8
:100F2000C1E900200FB0BDE8F08FBD1B6D1CDEE7EE
:100F30004A4600DA694206A800F0F8FB06AB93E8DF
:100F4000070003AB83E8070050460A9900F0BCFC99
:100F50008DE80700A0F500501F3800900398002D81
:100F60000ADD42F21F014A460844002303A9039008
:100F7000684600F025FF09E0A0F500504A461F38FA
:100F8000002303A90390684600F02FFF8DE80700B7
:100F90000004000C03D04FF0FF30410800E0104681
:100FA000B8F1000F03D00022009215461EE0751E16
:100FB00005D4FFF7C9FE303262556D1EF9D5B34630
:100FC0000122084302D000227F1C04E02078302850
:100FD00001D100227F1E002A099784D01DE0112D27
:100FE00007DAFFF7B1FE303262556D1C50EA01029C
:100FF000F5D1084302D00098C8B10EE00021681E68
:1010000005E0235C625C63542254401E491C81420B
:10101000F7DBAB46A81B401E0990002004F80B002C
:101020000B98099AC0F80880C0E9002B7AE71126CE
:101030004FF0000857E72DE9F04F88460446D21DCF
:1010400022F0070191B0D1E90001CDE90A0105F0D4
:1010500008FE02460B98C00F01D02D2007E0206843
:10106000810701D52B2002E0202101EAC000032ADC
:10107000099001D0072A05DB03464146204600F0CF
:1010800015FB0BE12078800601D5E06900E0062021
:10109000B8F1650F814606D0B8F1660F18D0B8F1E7
:1010A000670F70D131E00020B9F1110F009001DB22
:1010B000112301E009F101030AAA01A90CA8FFF715
:1010C000E2FEDDE90C70002609F10105834647E0E8
:1010D00001204B4600904FF000470AAA01A90CA836
:1010E000FFF7D1FEDDE90DB00C995D46002610B981
:1010F00009F101000D18B9EB050003D4C0F1FF366A
:1011000009F10105A5EB09002BE0B9F1010F01DAA6
:101110004FF001090020B9F1110F0090484601DDA0
:10112000112300E003460AAA01A90CA8FFF7ABFEB1
:10113000DDE90C704D4600268346207800070AD46E
:10114000AB4500DA5D4601A8012D04DD411911F817
:10115000011C302907D04F4502DA17F1040F04DAD9
:10116000012082460FE06D1EEEE7002F02DCED1B32
:101170003E4403E0781CA84200DD7D1CB81B00F152
:10118000010A4FF000472078000703D4AA4501DB8D
:101190004FF0FF3A0021B7F1004F0DF143088DF8F1
:1011A000431024D002202B23002F01DA7F422D236D
:1011B0000A21021EA0F1010000DC5FB197FBF1FCE7
:1011C00097FBF1F201FB1C7C17460CF1300C08F880
:1011D00001CDEEE7A8F1010003702188090501D5D2
:1011E000452100E06521A0F1010800F8011C0998E3
:1011F0000FA9A1EB0807FF1D00B10120411901EB68
:10120000EA70A1693844081A401EA0612078C0061F
:1012100002D42046FFF7C0FA099828B1D4E9012189
:101220009047206A401C20622078C00622D52046C4
:10123000FFF7B2FA1EE0002E04DBB34502DD01A881
:10124000805D00E03020D4E901219047206A401CF5
:101250002062761CAAF101005FEA000A0AD100F0C0
:1012600021FAC0680168405CD4E901219047206AF6
:10127000401C2062281EA5F10105DCDC07E0D4E952
:10128000012118F8010B9047206A401C2062381E8B
:10129000A7F10107F3DC2046FFF794FA032011B011
:1012A00041E600002DE9F04F04460D46D21D22F024
:1012B000070089B0D0E900974846394605F0D1FCCF
:1012C0000246F80F01D02D2307E02068810701D5E1
:1012D0002B2302E0202101EAC0038DF820300BB15E
:1012E000012000E00020032A824601D0072A04DB07
:1012F0002946204600F0DAF93FE12078800601D443
:101300000D2500E0E569C7F30A560D2D49DA0021E5
:101310004FEA175B08464FF00000002F00F4400032
:1013200007DA00EB80004FF4400100EBD07001EAD7
:1013300060008115012901DD4FF0FF3100224FEAE5
:10134000850CBCF1180F06D31346ACF118004FF012
:101350008052C24003E04FF4801323FA0CF30CF1E7
:101360000C0CBCF1200F04D3ACF1200C09FA0CF0EA
:1013700001E007FA0CF000294FF0004801DD18B930
:101380000FE00ED140450CD319EB02095F4121B9A2
:10139000404502D19F4329EA0209BBEB175F00D009
:1013A000761C2088000502D57B48784402E07A4804
:1013B0007844193808AA302302F80A30037C0AF16D
:1013C0000101002E0AF1020A53546A4602DC4FF072
:1013D000300101E04FF031014FF001088DF80010AD
:1013E00002D0A6F2FF3603E059EA470100D06B4E67
:1013F000002D02DC2178090704D54FF002082E21C8
:101400008DF80110C44600210BE0C7F303433F01F0
:10141000C35C491C6D1E02F80830052908F101085B
:1014200001DA002DF1DC00210CE000EB1973491CFE
:101430001B786D1E082902F808304FEA091908F1D7
:10144000010801DA002DF0DC21688B0602D516E0D8
:10145000A8F10108E04505DD02EB080313F8013CA3
:10146000302BF5D0B8F1000F09DD02EB080313F8BB
:10147000013C2E2B03D1090701D4A8F10108002D4E
:1014800005DD3E2102F808106D1E08F10108407CC0
:10149000002E02F8080008F1010804DA2D20764237
:1014A00002F8080002E02B2002F808000A214FF49D
:1014B0007A70864208F101080BDB96FBF0F33033BB
:1014C00002F8083096FBF0F308F1010800FB136600
:1014D00001E0642E0CDB642096FBF0F3303302F85D
:1014E000083096FBF0F308F1010800FB136601E0F9
:1014F0000A2E06DB96FBF1F0303002F8080008F106
:10150000010896FBF1F001FB1060303002F8080092
:10151000A16908F1010808EB050202EB0A00081AAC
:10152000A0612078C00602D42046FFF735F9216A71
:1015300008AE01EB0A00206204E0D4E9012116F8AC
:10154000010B9047BAF1010AF7D22078C00602D504
:101550002046FFF721F96E4609E016F8010B3E28F8
:101560000FD0D4E901219047206A401C2062B8F1D5
:101570000108F2D22046FFF725F909B00320BDE8A3
:10158000F08F206A2844206203E0D4E90121302052
:1015900090476D1EEBD3F8E7B695000002FCFFFF05
:1015A00010B5436913B1AFF3008001E0FFF72DF9E7
:1015B000012010BD127800F124010A7000224A7047
:1015C0000122EDE711684FF0FF32E9E710B54369FA
:1015D00013B1AFF3008001E0FFF7B6F9012010BDB1
:1015E000128800F1240182840022C2840122EDE7E6
:1015F00011684FF0FF32E9E770B516460C46054614
:1016000000F048F8036893F80101012806D0FF2C88
:101610000FD8185D68B101202C7070BDD3F8070198
:101620003246214603F2071303442846BDE87040C2
:1016300018474FF0FF3070BD10B500F0F7F8BDE867
:10164000104000F0EEB870477546FFF75FFBAE46FE
:1016500005006946534620F00700854618B020B5BE
:10166000FEF73CFEBDE820404FF000064FF00007BB
:101670004FF000084FF0000B21F00701AC46ACE83A
:10168000C009ACE8C009ACE8C009ACE8C0098D46A7
:101690007047000010B500F005F8001D10BD00BF38
:1016A000FD81000000487047B81500202DE9F04189
:1016B0001F46044603260168072A01F4006004DB84
:1016C00008B116A505E016A503E008B115A500E0D0
:1016D00015A521F010002060A069C01EA0610FB107
:1016E000401EA0612046FFF757F84FB1D4E9012111
:1016F00038469047206A401C2062C01C206206E0E9
:10170000206AFAE7D4E9012115F8010B9047761E0B
:10171000F8D22046FFF756F8BDE8F0814E414E0062
:101720006E616E00494E4600696E66002DE9F04715
:10173000814616468AB0354878440DC88DE80D00BC
:1017400032487844801C03AC0DC884E80D0041F693
:101750009B300844372190FBF1F290FBF1F5A5F1A5
:10176000800501FB12041B3C02D56442012000E00D
:101770000020DFF898A080460027FA44AAF1BE0AAC
:101780000EE0E0070AD03246684607EB4701012326
:101790000AEB810100F029FB8DE8070064107F1C33
:1017A000002CEED1194F7F44AE3F19E0E80715D069
:1017B00007EB04100DF1180A90E80E008AE80E00FD
:1017C000C068F04201D1981908903246012306A959
:1017D00003A800F00AFB03AB83E807006D10641C4C
:1017E000002DE3D14FF0010332466946B8F1000FF6
:1017F00003A802D000F0E4FA01E000F0F6FAC9E92B
:101800000001C9F808200AB0BDE8F087B8920000CE
:1018100010B50446AFF300802046BDE81040FEF747
:1018200048BD002801D000F029B8704710B5012844
:1018300005D0002103A000F027F8012010BD09A168
:10184000F8E7000053494752544D454D3A204F7533
:1018500074206F662068656170206D656D6F7279A8
:10186000000000003A2048656170206D656D6F7260
:101870007920636F72727570746564000149182075
:10188000ABBEFEE72600020070B505460C460A20F6
:1018900000E06D1C00F011F835B128780028F8D16F
:1018A00002E0641C00F009F814B120780028F8D197
:1018B000BDE870400A20AFF3008008B569468DF896
:1018C00000000320ABBE08BD5FEA400C08BF91F0EA
:1018D000000F4FEA8C234FEAC12243EA51514FEAED
:1018E0001C5018BF00F5F0404FEA300018BF41F01F
:1018F00000415FEA6C5C00F02980BCF1FF3F08BF4B
:1019000040F080407047130C06BF12044FF0100CDB
:101910004FF0000C130E04BF12020CF1080C130F51
:1019200004BF12010CF1040C930F04BF92000CF1E0
:10193000020CD30F04BF52000CF1010C11464FF002
:101940000002A0F11F00A0EB0C00704711F0004F47
:1019500008BF704731F000413FF4D5AF0B0C06BF14
:1019600009044FF0100C4FF0000C0B0E04BF0902DD
:101970000CF1080C0B0F04BF09010CF1040C8B0FC8
:1019800004BF89000CF1020CCB0F04BF49000CF11D
:10199000010CCCF12003A0EB0C0022FA03F302FAB5
:1019A0000CF241EA030100F10100704720F07F4C86
:1019B00080EA030023F07F47ACEB070303F57C5379
:1019C00000F0004003F1FF032DE980494FEA154B79
:1019D00009B44FEA144325EA0B4E24EA03480FF2F8
:1019E000042606EB132749083E785FEA320203FB20
:1019F0000667C7F5000707FB06F64FEA54374FEABC
:101A0000D64606F1020607FB066CCCF1005C4FEAF5
:101A10001C472CEA074C07FB06F40CFB06F504EB0D
:101A200015464FEA961634BF00204FF000404FEAAB
:101A3000D13706FB07FC4FEA1C4C0CFB0BF7D21B03
:101A400003FB0CF761EB07010CFB0EF7B0EB074053
:101A500072EB17420CFB08F734BFA2EB0742B2EB64
:101A6000074261EB17414FEA0C444FEA910706FB2E
:101A700007FC4FEA1C4C0CFB0BF7B0EBC74072EBBA
:101A8000573203FB0CF734BFA2EBC742B2EBC7429D
:101A900061EB57310CFB0EF7B0EBC70072EB5772DE
:101AA0000CFB08F734BFA2EBC702B2EBC70261EB35
:101AB0005771039F4FEA816141EA921104EBCC0414
:101AC0004FEAD1374FEA826206FB07FC42EA9012E6
:101AD0004FEA80604FEA1C4C0CFB0BF7D21B03FB58
:101AE0000CF761EB07010CFB0EF7B0EB074072EB54
:101AF00017420CFB08F734BFA2EB0742B2EB0742D8
:101B000061EB17414FEA8C554FEA910704EB9C2497
:101B100006FB07FC4FEA1C4C0CFB0BF7B0EBC74075
:101B200072EB573203FB0CF734BFA2EBC742B2EBA8
:101B3000C74261EB57310CFB0EF7B0EBC70072EBFD
:101B400057720CFB08F734BFA2EBC702B2EBC70217
:101B500061EB577115EB4C254FEA816141EA921117
:101B60004FEA82624FEAD13742EA901206FB07FC45
:101B700044F100044FEA80604FEA1C4C0CFB0BF769
:101B8000D21B03FB0CF761EB07010CFB0EF7B0EB6C
:101B9000074072EB17420CFB08F734BFA2EB074279
:101BA000B2EB074261EB174115EB1C154FEA81318F
:101BB00041EA92414FEA823242EA90424FEA803053
:101BC0004FEA0C7644F1000448EA03434EEA0B481E
:101BD0004FF0000EB2EB080C71EB030724BF624616
:101BE00039464EEB0E0E4FF0000B001852414941A2
:101BF0004BEB0B0BB2EB080C71EB03077BF1000B0B
:101C000024BF624639464EEB0E0E4FF0000B001813
:101C1000524149414BEB0B0BB2EB080C71EB030744
:101C20007BF1000B24BF624639464EEB0E0E51EAA3
:101C3000020718BF46F0010616EB0E7655F10002BA
:101C400054F1000103D5BDE88901BDE80088BDE875
:101C50008901BDE80048B619524141EB0101A3F1E9
:101C60000103704780807F7E7D7C7B7A79787776F0
:101C700076757473727171706F6E6E6D6C6C6B6A69
:101C80006A69686867666665646463636261616007
:101C9000605F5F5E5E5D5D5C5C5B5B5A5A59595884
:101CA00058575756565555555454535352525251EE
:101CB000515050504F4F4F4E4E4D4D4D4C4C4C4B44
:101CC0004B4B4A4A4A49494948484847474747468B
:101CD00046464545454444444443434343424242C7
:101CE00042414141002B9C4630D477002BD01CB59B
:101CF0004FEA370703B44FF010004FF01001BAF16C
:101D0000000F06D0BCF1000FDCBF40F0080040F02F
:101D100008014FF000000FBCBDE810400BF1010BB3
:101D2000BBF1010F08BF5FEA170722BF12F10102E2
:101D300011F101014FF0004143F1000300F00040B8
:101D400043EA00007047F9D35708D0E746EA064651
:101D500013F1400F4FEA16461FDD13F1200FDFBFCE
:101D600016430A46002120335B42BED0C3F1200750
:101D700046EA064602FA07F74FEA164646EA07061B
:101D8000C3F1200722FA03F201FA07F721FA03F15F
:101D90004FF0000342EA0702A7E746EA020646EAD6
:101DA00006464FEA164646EA0106BCBF46EA064624
:101DB000360C4FF000034FF000024FF0000194E7A3
:101DC0002DE9804C9A46934670B491E8380007C8D4
:101DD00031EA400C48BF34EA430C03D5FFF7E6FD77
:101DE000FFF780FFF0BCBDE8008C2DE9804C9A46DF
:101DF000934670B491E8380007C810F0804F08BFD0
:101E000013F0804F03D100F005F8FFF76BFFF0BC33
:101E1000BDE8008C20F07F4780EA030023F07F4C70
:101E200007EB0C03A3F57C5300F00040A3F1FE0385
:101E300092F0000F00F0B38095F0000F00F0778073
:101E40002DE901494FEA11404FEA144621EA0048C2
:101E500000FB06FC24EA064708FB06F607FB08F829
:101E600000FB07F718EB06484CEB164C4FEA124BF9
:101E700018EB07484FEA15464CEB174022EA0B4E89
:101E80000BFB06FC25EA06470EFB06F607FB0EFEDB
:101E90000BFB07F71EEB064E4CEB164C4FF0000603
:101EA0001EEB074E4CEB174B18EB0B0840F10000F4
:101EB00018EB0E0B58EB000840F100008F1A4FF0A2
:101EC00000013CBFC943661B14BFB5EB040C0021E5
:101ED0003CBFC943F61B4FEA17444EEA8E0E27EA71
:101EE00004454FEA1C4704FB07622CEA074C05FB3C
:101EF00007F70CFB05F604FB0CFC16EB074642EB60
:101F0000174216EB0C4642EB1C421BEB060658EB45
:101F10000202414146EA9E0601D5BDE80189B61993
:101F2000524141EB0101A3F10103BDE801894FEAF0
:101F300014454FEA114724EA054621EA074C05FB00
:101F400007F406FB07F70CFB06F105FB0CFC11EB95
:101F5000074144EB17444FEA124711EB0C4144EBA5
:101F60001C4422EA074C05FB07F206FB07F70CFBB3
:101F700006F605FB0CFC16EB074642EB174216EB88
:101F80000C4642EB1C456A1854F1000148BF7047EB
:101F9000B619524141EB0101A3F10103704795F0DD
:101FA000000F37D04FEA11424FEA144721EA0246A8
:101FB00024EA074C02FB07F106FB07F70CFB06F4CB
:101FC00002FB0CFC14EB074441EB17414FEA1547A9
:101FD00014EB0C4441EB1C4125EA074C02FB07F5CE
:101FE00006FB07F70CFB06F602FB0CFC16EB07469C
:101FF00045EB174516EB0C4645EB1C42121951F107
:10200000000148BF7047B619524141EB0101A3F1ED
:10201000010370474FEA14454FEA114724EA054689
:1020200021EA074C05FB07F106FB07F70CFB06F25C
:102030004FF0000605FB0CFC12EB074241EB174189
:1020400012EB0C4251EB1C4148BF7047921841EB18
:102050000101A3F10103704770B50446006881686F
:1020600011F0010F20D0816821F00101816002F0A0
:102070002BF805462068806810F0010F14D000BFCF
:1020800002F022F8401B022809D9A06A40F0100093
:10209000A062E06A40F00100E062012070BD2068AB
:1020A000806810F0010FEBD1002070BD10B5024622
:1020B000406A816A11F0500F05D0006A016BBDE8DB
:1020C000104010460847816A41F40071816201683E
:1020D00089684FF4602232EA010104BF017B0029C4
:1020E0000BD1816A21F480718162816A11F4805F71
:1020F00003D1816A41F00101816201F0CBF810BD8A
:1021000010B5406A816A41F040018162C16A41F0C4
:102110000401C16201F0C0F810BD10B5406A01F0C1
:10212000BAF810BD70B582B000260446019600686A
:10213000816811F0010F44D1816841F00101816093
:10214000244825490068B0FBF1F001900090C0B12F
:10215000B0F1004F38D20028D8BF002005DD10F0C4
:10216000010002D00199491E01910099401C491CAF
:10217000884206DA019A801C521E521E0192884241
:10218000F8DB01F0A1FF05462068806810F0010F20
:1021900017D100BF01F098FF401B02280CD9A06A9C
:1021A00040F01000A062E06A40F00100E06284F8B4
:1021B000246002B0012070BD2068806810F0010F1B
:1021C000E8D002B0002070BD0198401E0190FCD103
:1021D000D7E700001002002040420F00FEE7000099
:1021E000034901220A80008840BA488270470000F3
:1021F0001C0C0020064901220A80008842BA0548CA
:10220000CA810B2100688069D0F864321847000049
:102210001C0C002030020020094890F836100129DB
:1022200006BF90F837100029704710B5054C21699A
:10223000491C21618168606907F096FD606110BDED
:10224000340C0020040000202DE9F04F85B08248B6
:1022500000250195006801AA29468069D0F82C3232
:1022600098470198002818BF01207C4C7C4FDFF86C
:10227000F49184F8390021684FF0020A4FF0010808
:10228000B1F1804F0BDB94F8371001291FBF94F890
:102290003A10012994F83B10012900D020B184F8AC
:1022A000365084F83CA06DE03878002866D03D7048
:1022B00000F0A8FE6C4E8346708A07F0F1FE6B4971
:1022C00007F0C0FD594607F04FFD6060BBF5000FF9
:1022D00002DB1BF1FF4F24D265480BEB0001654880
:1022E000814238BFC3461DD363495944814238BF38
:1022F000D34617D36149624A5944914238BF4FF0DF
:10230000030B0FD35F495944814238BF4FF0040B90
:1023100008D35D485D495844884238BF4FF0050BEB
:1023200000D3AB46308A07F0BBFE5949009007F056
:10233000FFFE5849606107F0FBFE07F079FE7080F0
:102340005549009807F0F4FE5249E06107F0F0FEAD
:1023500007F06EFEF0805149009807F0E9FE4D4904
:10236000A06207F0E5FE07F063FEB081584604F076
:1023700081F803F0CDFEC82089F8010084F836808A
:1023800084F83C5094F83C00DFF814B1454EE8B3B3
:1023900002281CBF05B0BDE8F08F03F073FEA169F1
:1023A000206807F091FE07D32068B0F1804FA4BFEA
:1023B00094F83900002810D087F8008084F83B504A
:1023C000A56065603D617D6184F837504FF0000283
:1023D0004FF00101304601F071FE606804F0F4F83E
:1023E00000220321584601F069FE002202213046F6
:1023F00001F064FE89F8005084F833A094F83B00A3
:10240000012808BF84F8358005B000E001E0BDE890
:10241000F08F94F8390098B901220221304601F07A
:102420004DFE99F8000098B101220321584601F0B1
:1024300045FE01221146304601F040FE04F02CFC1E
:1024400094F83D00032818BF00F0AEF800F02CF817
:1024500084F83380D8E7000030020020340C0020DC
:1024600004000020FB0100201C0C002000007A4426
:102470006566E6BEFEFF4700656666BE989919BEB2
:10248000CBCC42006566E6BDFFFFBFBDFFFF4C0041
:10249000CDCC4C3D00002041CDCCCC3D0AD7A33D56
:1024A0000008014000140140F8B51D4C00250095BE
:1024B00094F83D00012605282ED2DFE800F0032421
:1024C00008262B00606900F0FDFD022011E0154890
:1024D0006A46022100688069D0F82C32984700983B
:1024E00001281CBF84F83850E06905D000F0EAFDEF
:1024F000042084F835000FE084F838600A49E06968
:1025000007F016FEF2E70820F3E784F837601020A2
:102510006560EEE784F83560606804F055F8F8BD52
:10252000340C0020300200200000A03FF8B5154D0B
:102530000024009495F83D000126022812D195F858
:102540003800012814BF8DF801408DF80160022287
:10255000694641F2104000F0CBFA8DF801400220AC
:1025600001F064FB95F8360001280CBF8DF801607E
:102570008DF80140022269464FF4A05000F0B8FAED
:10258000F8BD0000340C00200088024940BA0881E0
:1025900070470000040000200088024940BAC8804B
:1025A00070470000040000202DE9F041254C002672
:1025B0000127A068244DB0F17C5F08DAA878401CA0
:1025C000C0B2A8700A2884BF84F83A70AE704FF089
:1025D0007E51206807F0AAFE616807F075FE13D3EC
:1025E0004FF07F51206A07F0BFFB616807F06CFD78
:1025F0000AD34FF07F51206A07F0B6FB216807F03D
:1026000063FD28BFBDE8F08100F0FCFC80460F4868
:10261000408A07F045FD0E4907F014FC414607F0DB
:10262000A3FB6060E878401CC0B2E870032838BFA4
:10263000BDE8F081EE7084F83B70042084F83D0022
:10264000BDE8F081340C0020040000201C0C0020A8
:1026500000007A442DE9F04F784883B0417871B397
:10266000774F00F1580A0AF10406B946341D09F102
:102670000405631C00F158086A1D09F1080C0020CC
:1026800056F810BB14F8109B13F810AB58F810EB69
:1026900047F810EB45F810BB0CF8109BDFF8A4913D
:1026A00002F810AB09EB0019D9F80CA0DFF89091F3
:1026B00009EB0019401CC9F80CA0491EE0D1624D7D
:1026C000002400BF05EBC400416855F8340000F059
:1026D00075F9601CC4B2172CF4D34FF0804818224F
:1026E0005A495B4800F072FB584C5AA0E289218895
:1026F00004F094FA21880020012919D04FF4C07108
:10270000A180022161804FF40D7121810521E180BA
:102710004FF4047262810322A28121824FF4F0718E
:10272000E1814FF4FA716182A0824FF4FF71E1827E
:102730002080C4224F49504800F048FB01464FA07A
:1027400004F06CFA4B4F97F8C000002836D0504C7C
:1027500001220221204601F0B1FC4E4D012211461A
:10276000284601F0ABFC01220321284601F0A6FC1B
:1027700001221146204601F0A1FC00F0F9F90028E1
:1027800008BF012416D019E0641C032C12D9424C56
:10279000022204F1340194F8350080F0010084F83D
:1027A000350041F20C0000F0A3F94FF47A7001F00B
:1027B0003DFAEDE700F0DCF90028E5D0602207F1F2
:1027C00060013648FDF7CFFEDFF8D09000250024E9
:1027D00009EBC50656F8240007F09AFACDE9000186
:1027E000224629462EA004F019FA601C84B2022C5D
:1027F000F0D334A004F012FA681C85B20C2DE6D395
:10280000314C324D0DE0404603F0DEFE2946404695
:1028100007F0AAFA804641F2883001F007FAA04595
:1028200003DA97F8C0000028EDD1012087F8C00036
:1028300003B0BDE8F04F03F06BBC000004000020C3
:10284000740C00205C000020DC0000201C0C002028
:1028500000F00708666C61672069732020307825D6
:10286000582C206D696E757465732069732025641A
:10287000200D0A009414002000F807086572726F9A
:10288000722069732030782558200D0A000000005E
:102890000014014000080140340C00209401002085
:1028A0004441435F506172616D5F496E7465727639
:1028B000616C5B25645D5B25645D203D20256609B8
:1028C000000000000D0A0000000064420000A0406B
:1028D000074910B501220A80008840BA088107F034
:1028E000DFFB044907F0AEFA0349086210BD00009F
:1028F0001C0C002000002041340C0020074910B5BA
:1029000001220A80008840BAC88007F0C9FB044948
:1029100007F098FA0349C86110BD00001C0C0020A4
:1029200000002041340C0020074910B501220A8024
:10293000008840BA888107F0B3FB044907F082FAA7
:102940000349886210BD00001C0C002000002041DB
:10295000340C0020074910B501220A80008840BAD3
:10296000488107F09DFB044907F06CFA034948626F
:1029700010BD00001C0C002000002041340C002081
:10298000014800F083BF000044100020014800F01F
:102990007DBF0000C8130020014800F077BF000091
:1029A00084130020014800F071BF00005014002083
:1029B000014800F06BBF00000C140020064BDFF84C
:1029C00014C01A784CF832000CEBC2004160501C65
:1029D00018707047F404002000000020F0B4154B7C
:1029E000002203F597714FF05A0C012402F801C040
:1029F000A52565540226072575540326822777549A
:102A000004267254052284265654062202F801C078
:102A100008226C544FEA102C02F801C009225054CD
:102A20000A22A3F85A2203F597712303F0BC024847
:102A300002F0CCBE98020020441300201A4801780E
:102A40005A291BBF4178A529C178002116BFA0F8DB
:102A50002C118329704730B5818899B04CBA81799F
:102A600049060D0EC11D2A466846FDF737FD0F4980
:102A700000200978B1F1FF3F19BF0D4B491C19B077
:102A800030BD00BF53F830C0A44507D103EBC000F0
:102A9000294642686846904719B030BD401CC0B214
:102AA0008842EFD319B030BD98020020000000200A
:102AB000F404002010B4DFF834C099B1421EACF128
:102AC000010011F0010F03D012F8013F00F8013F9F
:102AD0004B0807D05478447012F8024F00F8024FA8
:102AE0005B1EF7D1ACF82C1110BC70479802002087
:102AF00030B4DFF874C000240CF597735A25E55400
:102B00000124A525E5540225D41CEC540324822578
:102B1000E5540424050AE5540524E0540620ACF8E5
:102B20005A02BAB1581D491E12F0010F03D011F814
:102B3000013F00F8013F530807D04C78447011F86A
:102B4000024F00F8024F5B1EF7D1BCF85A02104446
:102B5000ACF85A029CF85A2230BC0CF597714FF42D
:102B60008053024802F032BE980200204413002035
:102B70002DE9F04F0025DFF8888183B04FF001097F
:102B80002E4640F6FF7A5F48002400EBC6075E48F9
:102B900000EBC60B00F036FA009057F824004146CF
:102BA00007F0C4FB009907F08FFA15D857F82400F6
:102BB000414607F0D9F8009907F086FB0CD84BF88E
:102BC0002450601C84B2009807F0A2F802460B461D
:102BD0004EA0009504F022F800222B4611465648DC
:102BE00000F04AFD4FF4967001F020F8681C85B2A1
:102BF000554502D3601C84B20025022CCAD3701C38
:102C000086B20C2EBFD300231A4619464A4800F05C
:102C100033FD3D4F0026002407EBC605224655F83C
:102C20002430314645A003F0F9FF55F82400002870
:102C300008BF4FF00009601C84B2022CEED346A0FE
:102C400003F0ECFF701C86B20C2EE4D32E48434CEC
:102C5000071D064600F1600500F164084FF00C0AFC
:102C600054F8040C01902068019907F05FFB83463B
:102C7000396830680090081A07F012FA594607F0D0
:102C8000E1F88346019907F053FA0190009807F0A4
:102C900007FA019907F04AFB45F808BB08340836E3
:102CA000083748F8080BBAF1010AD9D1164F0025A8
:102CB000002407EBC50600BF06EB8400006E07F09A
:102CC00027F8CDE900012246294625A003F0A6FFFA
:102CD000601C84B2022CEFD31FA003F09FFF681C7E
:102CE00085B20C2DE4D3002087F8C000C422064929
:102CF000224800F0EFF803B04846BDE8F08F00002E
:102D0000CDCC4C3D40A500089414002053616D705B
:102D10006C696E675F566F6C74616765203D202536
:102D2000662C204F75747075745F56616C756520E4
:102D30003D2025642E0D0A00881000204441435F89
:102D400056414C55455B25645D5B25645D203D2007
:102D500025642E09000000000D0A000044A50008AB
:102D60004461632E506172615F417272795B2564C8
:102D70005D5B25645D203D202566090000F807089D
:102D80007047530870B40A44A2F1010202F0FF0C2C
:102D900019BF0144002270BC70470D78ACEB0204EF
:102DA000521C065D01F8016B05555B1EF5D170BC28
:102DB0007047704710B501F067F803493420C860C8
:102DC000BDE8104000F0AEBF0020024010B4A0F1FA
:102DD0000063B3F5002F1DD8002A18BF002919D0B1
:102DE00012F0010303D030F801CB81F800C0934208
:102DF0000DD200BF30F801CB01F803C030F801CB91
:102E0000CC189B1C9BB284F801C09342F2D310BC37
:102E10000120704710BC00207047000070B50546C7
:102E200001F052F9294C0646E06810F0010F0ED06F
:102E3000B5F1FF3F07D025B101F046F9801BA8424C
:102E400001D9032070BDE06810F0010FF0D1E068F7
:102E500010F0200F1CBF2020E060E06810F0100F81
:102E600001BFE06910F0010FE06810F0040008BF36
:102E700070BD0021E06810F0100F154804D0C16942
:102E800041F00201C1611021E26812F0040F05D087
:102E9000C26942F00102C26141F00401E26912F02C
:102EA000010F07D0C26942F00402C261E06920F05C
:102EB0000100E061A1F58070013818BFE16003D125
:102EC000E06920F00100E061012070BD00200240B7
:102ED000581500202DE9F04186B005460024A0F1E8
:102EE000006016460F460094B0F5002F25D8002E3E
:102EF00018BF002F21D000F0C7FF0120CDE90450FA
:102F0000154902943420C860694602A800F0A2FE68
:102F10000024002E19D900BF37F8142005EB440116
:102F200090460023012000F007FF35F814004045CB
:102F300007D006B00120BDE8F08106B00020BDE852
:102F4000F081601C84B2B442E6D300F0EBFE00983E
:102F500006B0BDE8F08100000020024070B50E4CC4
:102F60002088012818BF70BD18220C4E0A4930462F
:102F7000FFF7B0FF01460AA003F050FE0025E581EF
:102F8000182205493046FFF721FFE18908A003F028
:102F900045FE258070BD00001C0C002000F00708D5
:102FA0006572726F72206973202530580D0A000017
:102FB0006D696E757465732069732025640D0A0050
:102FC00030B40F49002301EB80042046D4F808C038
:102FD0002168072250F8105F6144D0F808C02B44E4
:102FE000521EF7D1C818211B78312246C9105CBF88
:102FF00052F831100844C0F3CF0030BC70470000D5
:10300000940F00202DE9F0410120FFF7D9FF00289F
:1030100008BFBDE8F0814FF0010C0225032604270C
:10302000002240F23231B0F51B7F1AD3A0F26D239B
:10303000B3F5337F38BF644614D3A0F23A53B3F5E7
:10304000347F98BF2C460DD9A0F60C03B3F5347F1E
:1030500098BF344606D9A0F6DE23994288BF3C4685
:1030600000D81446164BB0F51B7F53F8344019D3E3
:10307000A0F26D28B8F5337F38BF624612D3A0F2B4
:103080003A5CBCF5347F98BF2A460BD9A0F60C0CED
:10309000BCF5347F98BF324604D9A0F6DE2C8C45AF
:1030A00038BF3A4603EBC2014D6806F0F9FF2146EE
:1030B00007F03EF82946BDE8F04106F055BE000095
:1030C00018A5000870B5194D84B00646A96807F028
:1030D0002DF9029020F00040009000241449304661
:1030E00006F0B0FE3116012646EAE111B1F1FF3FCC
:1030F00004BF04B070BD009911F0FF4F0ED001461F
:10310000009807F0E1F809D29DF90B0046EAE010BB
:1031100006F0AEFF074907F00BF804462146686841
:1031200006F022FE686004B070BD0000340C002080
:103130000000F0410AD7233C70B483B04FF0000C7C
:10314000CDF808C090F824206446012A01BF02206F
:1031500003B070BC7047012280F824204A681F2306
:10316000072A0DD205686E6B521E02EB8202934055
:1031700026EA03030E6806FA02F21A436A631BE0AA
:1031800005680D2A0CD22E6BD21F02EB82029340EF
:1031900026EA03030E6806FA02F21A432A630BE0DA
:1031A000EE6A0D3A02EB8202934026EA03030E68B0
:1031B00006FA02F21A43EA620A68072503680A2A35
:1031C0000CD3DE680A3A02EB4202954026EA050576
:1031D0008E6806FA02F22A43DA600AE01E6902EB00
:1031E0004202954026EA05058E6806FA02F22A4355
:1031F0001A610A68102A18BF112A0BD10268A2F1BD
:103200008043B3F592330BD0816A41F02001816293
:103210004FF0010C80F8244003B0604670BC70474A
:10322000936813F4000FF5D1936843F4000393609F
:1032300009681029EED11549154A0968B1FBF2F168
:1032400001EB8101490002910091E3D0B1F1004FFF
:1032500016D20029D8BF002105DD11F0010102D0EE
:10326000029A521E0292009A491C521C9142D1DAD3
:10327000029B891C5B1E5B1E02939142F8DBC9E72F
:103280000299491E0291FCD1C4E7000010020020FF
:1032900040420F0070477047704700002DE9F04131
:1032A00004004FF0000604BF0120BDE8F081A06AD1
:1032B000002528B9E56284F82450204600F090F8F3
:1032C0002046FEF7C9FE0146A06A10F0100F08BFA5
:1032D000002904D0A06A40F01000A06276E0A06A45
:1032E00020F4885040F00200A0622268A2F18040E1
:1032F000B0F59E30E06904BFB0F5402F4FF40020D8
:1033000094F80CC040EA4C03606843EA0003A068EC
:10331000B0F5807F16BF01284FF480700020277D14
:10332000012F0ED1BCF1000F21D0D4F828C04CF0F1
:10333000200CC4F828C0D4F82CC04CF0010CC4F800
:103340002CC0D2F804C02CF4694C4CEA0000506048
:1033500020688268DFF87CC002EA0C021A438260AF
:10336000A068B0F5807F18BF01280FD109E01A4F7F
:10337000D4F818C007EB4C3C4CEA000040F4006065
:10338000DFE7208A4FEA0050A0F580162068C26A65
:1033900022F4700242EA0602C262206880680F4A84
:1033A00000EA0200984207D1E562A06A20F002001C
:1033B00040F00100A0620AE0A06A20F0020040F0A4
:1033C0001000A062E06A40F00100E06201210846BE
:1033D000BDE8F081FDF7E1FF00E0FFFFFE0E1FFFFB
:1033E00070B586B0002605460096019602960396B3
:1033F0000068A0F18041B1F592311CBF06B070BDEC
:103400001949886940F400708861886900F4007087
:103410000490886940F0040088618869694600F07A
:1034200004000490C0200090032001900F4800F099
:1034300043FD104C0E48C4E900068020C4E9026038
:1034400080002061800060612020A0614FF4405026
:10345000E061204600F04EFB002818BFFFF7A9FCF2
:103460002C62656206B070BD001002400008014089
:1034700008000240441000202DE9F047044600688F
:103480008946404F404EA0F180419046B1F59231BF
:1034900018BFB84208D1306810F4702F18BF01254A
:1034A00002D02846BDE8F08794F82400012804BF24
:1034B0000220BDE8F087012084F824002046FEF7B2
:1034C00031FE05004FF0000018BF84F82400E8D159
:1034D000A16A21F0010121F4606141F48071A162CF
:1034E0002168B94245D1326812F4702F41D0A16AE7
:1034F00041F48011A162316811F4806F05D0A16A96
:1035000021F4005141F48051A162A16A11F4805F5D
:1035100008BFE06203D0E16A21F00601E16284F8AD
:103520002400216A19488862216A1948C862216A00
:103530001848086321686FF00200086020688168FD
:1035400041F4807181602068434600F14C014A4695
:10355000206A00F01FFB206881684FF4602232EA85
:10356000010181680CBF41F4A00141F48011816028
:1035700097E7A26A22F48012A262496811F4806F70
:10358000C3D0BCE70028014004240140AD2000085E
:103590001B210008012100084379012B04BF0220F0
:1035A000704730B44FF0010C80F805C0022303715E
:1035B00003681C6802F0100240F6FE759540AC43AB
:1035C000D1E90051294391402143196001680C68F9
:1035D000C02303FA02F224EA02030B6001680B68BD
:1035E00023EA02020A6080F804C00021417130BC65
:1035F00008467047002804BF0120704770B5044694
:103600000079002518B96571204600F007F80220FE
:103610002071256101202071002070BD00B585B0AA
:10362000002100910191029103910068A0F1804175
:10363000B1F5E8411CBF05B000BD0D48C16941F0BE
:103640000051C161C16901F000510491816941F0EB
:10365000040181618069694600F004000490102033
:10366000009003200190034800F026FC05B000BD47
:10367000001002400008014081B0D0F800C0CDF831
:1036800000C00068002910440CBF083014300090BE
:103690000360002001B070474279012A04BF022074
:1036A000704730B40122427102230371D0F800C088
:1036B000DCF8004001F0100302FA03F52C43CCF8CB
:1036C0000040002901684FF03C0C11D00C680CFA46
:1036D00003F304F470149C4204BF4B6843F00203EC
:1036E00000D14B6002710021417130BC0846704727
:1036F0000B683CEA030304BF4B6843F00103F1D1BC
:10370000EFE790F821200021022A05D004228263ED
:1037100080F82010012070470268136823F00E0320
:1037200013600268136823F00103136090F84030BF
:10373000D0F83CC0012202FA03F3CCF8043080F840
:10374000212080F820100846704700002DE9F05F26
:1037500090F821100024022903D004218163012460
:1037600077E001680A6822F00E020A6001680A68C0
:1037700022F001020A60384A0168384BDFF8E0C0E5
:10378000384D394E394FDFF8E880DFF8E890DFF840
:10379000E8A0DFF8E8B0DFF8E8E0914225D99942E7
:1037A0000ED0614510D0A94212D0B14215D0B94215
:1037B00016D0414508BF4FF4801113D0494501D1BF
:1037C00001210FE0514501D110210BE0594502D1F3
:1037D0004FF4807106E0714502D14FF4805101E051
:1037E0004FF48031274A116029E0994213D0614596
:1037F00015D0A94217D0B1421AD0B9421BD04145C9
:1038000008BF4FF4801118D0914208BF4FF080716B
:1038100013D0494501D101210FE0514501D11021BB
:103820000BE0594502D14FF4807106E0714502D199
:103830004FF4805101E04FF48031134A516001216F
:1038400080F82110002180F82010416B002918BF5A
:1038500088472046BDE8F09F8000024008000240F3
:103860001C00024030000240440002405800024068
:103870006C000240080402401C0402403004024074
:103880004404024004040240000002402DE9F05FBD
:10389000C16B0E6801680D68D0F840B0042202FACE
:1038A0000BF23242864A874FDFF81C82DFF81C9207
:1038B000DFF81CA2874BDFF820C2884C18BF15F038
:1038C000040F64D00D6815F0200F03D10D6825F0AA
:1038D00004050D60824D0168A94227D991420ED09E
:1038E000B94210D0414513D0494517D0514518D0A1
:1038F000994208BF4FF4800115D0614501D10421E0
:1039000011E0A14201D140210DE0764A914202D15D
:103910004FF4806107E0744A914202D14FF4804134
:1039200001E04FF48021714A11602BE0914213D0E5
:10393000B94215D0414518D049451CD051451DD03C
:10394000994208BF4FF480011AD0A94208BF4FF036
:10395000806115D0614501D1042111E0A14201D15E
:1039600040210DE05F4A914202D14FF4806107E0AF
:103970005D4A914202D14FF4804101E04FF4802131
:103980005B4A5160C16A002975D1BDE8F09F4FF0D4
:10399000020E0EFA0BFE1EEA060F18BF15F0020FFC
:1039A0006BD00D6815F0200F06D10D6825F00A05C3
:1039B0000D60012180F82110494D0168A94227D9E5
:1039C00091420ED0B94210D0414513D0494517D08D
:1039D000514518D0994208BF4FF4001115D06145E8
:1039E00001D1022111E0A14201D120210DE03D4A87
:1039F000914202D14FF4007107E03B4A914202D15B
:103A00004FF4005101E04FF40031384A11602BE0CF
:103A1000914213D0B94215D0414518D049451CD028
:103A200051451DD0994208BF4FF400111AD0A94248
:103A300008BF4FF0007115D0614501D1022111E09E
:103A4000A14201D120210DE0264A914202D14FF43A
:103A5000007107E0244A914202D14FF4005101E085
:103A60004FF40031224A5160002180F82010816A11
:103A700009B9BDE8F09F1FE0FFE7082202FA0BF248
:103A8000324214BF15F0080FBDE8F09F0A6822F01B
:103A90000E020A6090F84020C36B012101FA02F285
:103AA0005A60816380F82110002180F82010016B9A
:103AB000002908BFBDE8F09FBDE8F05F084700009F
:103AC000080002401C000240300002404400024056
:103AD000580002406C000240080402401C040240EE
:103AE00080000240300402404404024004040240CA
:103AF00000000240002804BF012070471F4B0168EE
:103B00001F4A994208D21F4B0B44A2FB03321209F1
:103B1000920002641C4A07E01C4B0B44A2FB0332D8
:103B20001209920002641A4AC26310B4022280F899
:103B300021200A68D0E9013C43EA0C03D0E903C420
:103B40004CEA040C43EA0C03D0F814C06FF30D12D6
:103B500043EA0C03D0F818C043EA0C03D0F81CC0A9
:103B600043EA0C031A430A6000218163012280F8B2
:103B7000212080F8201010BC08467047080402403D
:103B8000CDCCCCCCF8FFFDBF00000240F8FBFDBF60
:103B90000004024070B490F820404FF0000C012C5B
:103BA00002BF022070BC7047012480F8204090F8CA
:103BB00021600025012E1CBF80F820504FF0020C20
:103BC00002D070BC60467047022680F82160856391
:103BD00005682E6826F001062E6090F84050AC4033
:103BE000C56B6C60046863604368102B036803BF97
:103BF0009A600268D16099601CBF0168CA60C16A9E
:103C0000002901680A6818BF42F00E0206D122F0AE
:103C100004020A6001680A6842F00A020A60006849
:103C2000016841F001010160CBE7000070B5044676
:103C300000F04AFA0546B4F1FF3F02D0044800788C
:103C4000044400F041FA401BA042FAD370BD0000CA
:103C5000040200202DE9F047304F06468A46387EA0
:103C60004FF00108012804BF0220BDE8F0870120C1
:103C7000387630682A4D02284FF000094CF2503057
:103C800003D0FFF7CBF8C0B143E0FFF7C7F8002837
:103C90003FD1C7F81C90286940F0040028612869CA
:103CA00040F0400028614CF25030FFF7B7F88046F2
:103CB000286920F0040028612BE04FF0FF30CAF89B
:103CC0000000D6E9024004EBC020A04221D900BF89
:103CD000C7F81C90286940F0020028616C612869CF
:103CE00040F0400028614CF25030FFF797F85FEA4F
:103CF0000008286920F00200286102D0CAF80040BC
:103D000007E0D6E9020100EBC12004F50064A042FF
:103D1000DED887F818904046BDE8F0875815002097
:103D2000002002400348016941F080010161002048
:103D300070470000002002402DE9FF5FDFF840815E
:103D40000646002598F8180082B092469B46012846
:103D500002BF022006B0BDE8F09F012488F8184099
:103D60004CF25030FFF75AF84FF0000900287DD18F
:103D7000012E08BF012026D0022E0EBF02200420F3
:103D8000009020D03F4C03982A0100EB4506504696
:103D90005946FCF70BFBC8F81C90216941F0010162
:103DA000216130804CF2503600F08EF90746E06811
:103DB00010F0010F0DD000BF00F086F9C01BB0421B
:103DC00003D903204AE00090DCE7E06810F0010F1F
:103DD000F2D1E06810F0200F1CBF2020E060E06806
:103DE00010F0100F04BFE06910F0010F05D1E0687A
:103DF00010F0040F08BF484630D0E168002011F0F1
:103E0000100F06D0D8F81C0040F00200C8F81C00C3
:103E10001020E16811F0040F07D0D8F81C1041F011
:103E20000101C8F81C1040F00400E16911F0010F15
:103E300009D0D8F81C1041F00401C8F81C10E16941
:103E400021F00101E161A0F58071013918BFE06046
:103E500003D1E06920F00100E0610120216921F037
:103E60000101216110B9691CCDB200E002E00099A6
:103E70008D4288D388F8189006B0BDE8F09F000006
:103E80005815002000200240084900200A6912F05D
:103E9000800F08BF7047064A4A60064A4A600969AF
:103EA00011F0800F18BF0120704700000020024071
:103EB00023016745AB89EFCD00230A689C46002AA1
:103EC00008BF70472DE9F84F784EDFF8DC914FF0CE
:103ED00001080F2706F1040E0A6808FA03F42240CD
:103EE000A2427CD14D68A5F1805AAAF5881A4D45A9
:103EF00000F0C98074DC032D08BF4FF0000C1BD00C
:103F00000DDC002D6DD0012D08BFD1F80CC013D0F1
:103F1000022D04BFD1F80CC00CF1080C0CE0112DDF
:103F200004BFD1F80CC00CF1040C05D0122D04BF55
:103F3000D1F80CC00CF10C0CB2F5807F34BF0546F3
:103F4000051D4FEA830428BF203CD5F800A007FADE
:103F500004FB2AEA0B0A0CFA04F44AEA04042C6073
:103F60004C6814F0805F74D0514CA56945F0010590
:103F7000A561A46904F00104009423F0030404F192
:103F8000804505F58035D5F808A04FEA83744FEADF
:103F9000147407FA04FB2AEA0B0AA0F1804BBBF564
:103FA000843B2CD0A0F1804BBBF5863B08BF4FF083
:103FB000010B24D0A0F1804BBBF5883B08BF4FF02C
:103FC000020B1CD0A0F1804BBBF58A3B08BF4FF021
:103FD000030B14D0A0F1804BBBF58C3B02E038E022
:103FE0003EE050E008BF4FF0040B08D0A0F1804B3A
:103FF000BBF58E3B0CBF4FF0050B4FF0060B0BFAD9
:1040000004F444EA0A04AC604C6814F4803F346859
:1040100014BF1443944334604C6814F4003FDEF83A
:10402000004014BF14439443CEF800404C6814F48D
:10403000801F204C256814BF1543954325604C68AC
:1040400014F4001F1C4C256814BF2A4325EA020201
:1040500022600A685B1CDA407FF43EAFBDE8F88F4F
:10406000BAF5881F0FD007DCBAF5803F18BFBAF544
:10407000801F7FF461AF06E0BAF5001F18BFBAF5E4
:10408000041F7FF459AFD1F808C0BCF1000F08BF7E
:104090004FF0040C3FF450AFBCF1010F4FF0080C8F
:1040A0000CBF0461446147E70000111000040140A7
:1040B00000100240080401400C040140002A08BF1F
:1040C00009040161704700000148806870470000E2
:1040D00004020020002804BF0120704770B5044688
:1040E0004CF6CC4021680860216845F255500860C4
:1040F000D4E9000141602168A0688860FFF7E4FF0F
:1041000005462068C06850B1FFF7DEFF401B262837
:1041100001D9032070BD2068C0680028F4D121684F
:104120004AF6AA200860002070BD00684AF6AA215D
:104130000160002070470000024881680278114445
:104140008160704704020020074810B5016841F003
:1041500010010160032000F08DF8002000F006F847
:1041600000F024F8002010BD0020024070B50D4D75
:1041700004464FF47A712878B1FBF0F00A490968D7
:10418000B1FBF0F000F096FD48B9102C07D20022E8
:104190002146501E00F03CF800206C6070BD0120EC
:1041A00070BD000004020020100200200E4808B577
:1041B000816941F001018161816901F00101009192
:1041C000C16941F08051C161C06900F08050009028
:1041D000042000F04FF80548416821F0E06141F00B
:1041E0000071416008BD0000001002400000014065
:1041F0000028B8BF704700F01F01012202FA01F148
:104200004009800000F1E020C0F800117047000074
:10421000174B10B41B68C3F30223C3F1070CBCF1A6
:10422000040F88BF4FF0040C1C1D072C34BF002363
:10423000DB1E012404FA0CFCACF1010C0CEA0101B8
:10424000994004FA03F35B1E1A40114300284FEA19
:104250000111A1BF00F1E02080F8001410BC7047EC
:1042600000F00F0000F1E02080F8141D10BC704732
:104270000CED00E0074900F007000A684FF6FF0365
:104280001A4042EA002040F0FD7040F08060086073
:10429000704700000CED00E0014901200862704702
:1042A00000000E4210B586B001460FF2EC0C9CE8FF
:1042B0000D108DE80D103CA03C4C006804900020CF
:1042C00004293ED010DC01293FD002291CBF06B0D2
:1042D00010BD00F0FBF9616806B0C1F38131491CE3
:1042E0004900B0FBF1F010BD08292AD010291CBFED
:1042F00006B010BD6168226812F0807F04BF06B06E
:1043000010BDC1F3834211F4803F1DF8020004BFC9
:104310002749484308D0616804AAC1F34041515C71
:10432000244AB2FBF1F14843616811F4800F1CBFCD
:1043300006B010BD4000204906B0A1FB00104008A7
:1043400010BD00F0D3F906B010BD216A01F440722F
:10435000B2F5807F06D111F0020F1EBF4FF400406E
:1043600006B010BDB2F5007F07D1626A12F0020FED
:104370001EBF49F6404006B010BD4FF4407232EA0D
:1043800001011CBF06B010BD216811F4003F18BF29
:104390004FF2244006B010BD0203040506070809C9
:1043A0000A0B0C0D0E0F101001020000001002404D
:1043B00000093D0000127A00ABAAAAAA2DE9F84331
:1043C00004460078DFF8148110F0010F6AD0D8F8A5
:1043D0001C00002710F0805F0BD1D8F81C0040F0C3
:1043E0008050C8F81C00D8F81C00012700F080504D
:1043F00000903B4E306810F4807F14D1306840F458
:1044000080703060FFF760FE0546306810F4807FF2
:1044100009D100BFFFF758FE401B64282BD8306835
:1044200010F4807FF6D0D8F8200010F440702AD025
:10443000A18801F44071814225D0D8F820000122E2
:1044400020F440712748026000220260C8F8201062
:1044500011F0010F17D0FFF737FE0546D8F82000FE
:1044600010F0020F08BF41F288360CD1FFF72CFE86
:10447000401BB04202D90320BDE8F883D8F82000E1
:1044800010F0020FF2D0D8F82000616820F44070DC
:104490000843C8F820002FB1D8F81C0020F0805045
:1044A000C8F81C00207810F0020F07D0D8F80400DC
:1044B000A16820F440400843C8F80400207810F0B8
:1044C000100F07D0D8F80400616920F48000084379
:1044D000C8F804000020BDE8F88300000010024086
:1044E0000070004040044242002804BF0120704791
:1044F0002DE9F043DFF89081054685B0D8F800003B
:104500000E4600F00700B0420CD2D8F8000020F0B0
:1045100007003043C8F80000D8F8000000F007009A
:10452000B04265D12868594C10F0020F14D010F039
:10453000040F03D0606840F4E0606060287810F0F9
:10454000080F03D0606840F4605060606068A9683C
:1045500020F0F00008436060287810F0010F34D09C
:104560006868012821D02168022823D011F0020FA9
:104570003ED0616821F0030108436060FFF7A4FDAD
:1045800007466068696800F00C00B0EB810F18BF47
:1045900041F2883919D000BFFFF796FDC01B48458E
:1045A0000CD905B00320BDE8F083216811F4003F69
:1045B000DFD11DE011F0007FDBD119E06068696890
:1045C00000F00C00B0EB810FE6D1D8F8000000F04D
:1045D0000700B04210D9D8F8000020F0070030439F
:1045E000C8F80000D8F8000000F00700B04203D07F
:1045F00005B00120BDE8F083287810F0040F05D045
:104600006068E96820F4E06008436060287810F092
:10461000080F06D06068296920F4605040EAC100A4
:1046200060601B490FC98DE80F001A4800680490AC
:104630006168194801F00C02042A14D0082A12D12A
:10464000C1F3834211F4803F1DF8020004BF1349F7
:10465000484308D0616804AAC1F34041515C0E4A46
:104660005043B0FBF1F061680D4AC1F30311515C96
:10467000C8400C4908600C480068FFF777FD05B09A
:104680000020BDE8F083000000200240001002403E
:10469000444700085447000800127A0000093D0012
:1046A000E8A500081002002008020020044805497F
:1046B00000684968044AC1F30221515CC840704750
:1046C0001002002000100240F8A500080448054927
:1046D00000684968044AC1F3C221515CC840704770
:1046E0001002002000100240F8A5000815A186B0B5
:1046F0000FC98DE80F0017A0174A00680490516891
:10470000164801F00C03042B04BF06B07047082BB9
:104710001CBF06B07047C1F3834311F4803F1DF8FE
:10472000030001BF0E49484306B07047516804AA10
:10473000C1F34041515C094A06B05043B0FBF1F06F
:104740007047000002030405060708090A0B0C0D58
:104750000E0F1010010200000010024000127A003B
:1047600000093D00002804BF012070472DE9F84FE3
:1047700004460078E84D10F0010F59D0686800F049
:104780000C00042808D0686800F00C0008280CD140
:10479000686810F4803F08D0286810F4003F47D0C4
:1047A0006068002800F0B28142E06068B0F5803FA8
:1047B00004BF286840F480300AD010B1B0F5A02FB3
:1047C00011D0286820F480302860286820F48020E8
:1047D00028606068D0B1FFF777FC0646286810F4BF
:1047E000003F08D024E0286840F480202860286832
:1047F00040F48030ECE7FFF767FC801B642800F290
:104800003681286810F4003FF5D011E0FFF75CFC1A
:104810000646286810F4003F0AD000BFFFF754FC9A
:10482000801B642800F22381286810F4003FF5D132
:104830002078BA4E10F0020F4FF0010B4FF0000835
:1048400045D0686810F00C0F14D0686800F00C00B8
:10485000082804BF686810F4803F0BD0206918B3A3
:10486000C6F800B0FFF730FC0746286810F0020FCA
:1048700009D011E0286810F0020F1CBF2069012840
:104880000AD000F043B9FFF71FFCC01B02287DD8F7
:10489000286810F0020FF6D02868616920F0F8004F
:1048A00040EAC100286012E0C6F80080FFF70CFC67
:1048B0000746286810F0020F09D000BFFFF704FC7C
:1048C000C01B022862D8286810F0020FF6D12078A9
:1048D00010F0080F35D09248A169F9B1C0F800B0C6
:1048E000FFF7F2FB0746686A10F0020F09D100BF1C
:1048F000FFF7EAFBC01B022848D8686A10F0020FD5
:10490000F6D0884801684FF4FA50B1FBF0F00090FF
:1049100000BF0098411E0091FAD212E0C0F800805A
:10492000FFF7D2FB0746686A10F0020F09D000BFFC
:10493000FFF7CAFBC01B022828D8686A10F0020FD4
:10494000F6D1207810F0040F79D0E8694FF0000A12
:1049500010F0805F09D1E86940F08050E861E869B3
:104960004FF0010A00F080500090DFF8BC91D9F8B8
:10497000000010F4807F19D1D9F8000040F4807055
:10498000C9F80000FFF7A0FB074600E06FE0D9F888
:10499000000010F4807F09D1FFF796FBC01B64284C
:1049A00065D8D9F8000010F4807FF5D0E0680128C0
:1049B00004BF286A40F0010009D008B1052813D0CF
:1049C000286A20F001002862286A20F0040028628A
:1049D000E06841F28837D0B1FFF776FB8146286A5C
:1049E00010F0020F08D023E0286A40F0040028628B
:1049F000286A40F00100EAE7FFF766FBA0EB090038
:104A0000B84234D8286A10F0020FF5D010E0FFF752
:104A10005BFB8146286A10F0020F09D0FFF754FBB8
:104A2000A0EB0900B84222D8286A10F0020FF5D195
:104A3000BAF1000F03D0E86920F08050E861E06926
:104A4000F0B3696801F00C01082950D00228C6F8BB
:104A500060800FD0FFF738FB0446286810F0007F15
:104A600057D000BFFFF730FB001B02283AD90320C4
:104A7000BDE8F88FFFF728FB0746286810F0007F95
:104A800009D000BFFFF720FBC01B0228EFD8286821
:104A900010F0007FF6D1206AB0F5803F05D168683C
:104AA000A16820F4003008436860D4E90801084395
:104AB000696821F4741108436860C6F860B000E0CA
:104AC00027E0FFF701FB0446286810F0007F20D1A3
:104AD000FFF7FAFA001B0228C9D8286810F0007FF7
:104AE000F6D016E0286810F0007FBBD111E0012855
:104AF00008BFBDE8F88F6868226A00F480319142EF
:104B000004D1616A00F47010884202D00120BDE82F
:104B1000F88F0020BDE8F88F0010024000004242EC
:104B2000800442421002002000700040024850F809
:104B3000210080B270470000006C0040024800EB8A
:104B4000810091B201607047006C0040002804BFF2
:104B5000012070472DE9F0410446407C002618B939
:104B60002674204600F08AF80220607420684168AC
:104B700021F008014160FFF7A7FA05462068406868
:104B80004FF0040710F0080F0FD100BFFFF79CFA99
:104B9000401BB0F57A7F03D967740120BDE8F0812E
:104BA0002068406810F0080FF0D0FFF78DFA054636
:104BB0002068406810F0200F0BD100BFFFF784FA87
:104BC000401BB0F57A7FE7D82068406810F0200FCE
:104BD000F4D02068416841F01001416020684168CC
:104BE00021F007014160A06820B12248016821F04E
:104BF0000101016020480168A26821F4607111433D
:104C000001606068B0F1FF3F19D021688A6822F026
:104C10000F0242EA10428A602168CA6860F30F02FC
:104C2000CA602068416821F010014160FFF74CFA2A
:104C300005462068406810F0200F08D012E00120DF
:104C4000FFF730FB002818BF401EDED1A4E7FFF7B6
:104C50003BFA401BB0F57A7F9ED82068406810F080
:104C6000200FF4D0E67301206073A07360740020FD
:104C7000BDE8F081306C00402C6C004008B5006845
:104C8000A0F18041B1F5205118BF08BDFFF704FB2A
:104C90000648C16941F00061C161C069044900F082
:104CA000006000900120086008BD00000010024074
:104CB0003C044242411EB1F1807F24BF0120704775
:104CC0004FF0E0204161054AF02182F8141D0021D7
:104CD0008161072101610020704700000FE000E0C2
:104CE0007047704790F83C20012A04BF02207047AB
:104CF00030B4012380F83C30022280F83D20026865
:104D00005468D2F808C00D6824F070042C43546035
:104D10000268A2F18044B4F596341CBFA2F180442D
:104D2000B4F59A3411D0B2F1804F1CBFA2F1804487
:104D3000B4F5806409D0A2F18044B4F500641CBFCE
:104D4000A2F18044B4F5406405D149682CF0800C90
:104D500041EA0C01916080F83D30002180F83C1060
:104D600030BC08467047002804BF0120704710B5CA
:104D7000044690F83D0028B9002084F83C00204605
:104D800000F01EF8022084F83D00211D206801F08B
:104D90009FFD012084F8460084F83E0084F83F001F
:104DA00084F8400084F8410084F8420084F843000D
:104DB00084F8440084F8450084F83D00002010BDCC
:104DC00008B50068A0F18041B1F5963118BF08BD63
:104DD0000948816941F4006181618069002200F421
:104DE0000060009002211920FFF712FABDE8084088
:104DF0001920FFF7FDB900000010024090F83D10A7
:104E000001291CBF01207047022180F83D10016874
:104E1000CA6842F00102CA600068A0F18041B1F5A1
:104E200096311CBFA0F18041B1F59A3111D0B0F19B
:104E3000804F1CBFA0F18041B1F5806109D0A0F185
:104E40008041B1F500611CBFA0F18041B1F5406126
:104E500004D1816801F00701062903D0016841F0FF
:104E6000010101600020704790F83C20012A0DBF2D
:104E70000220012380F83C30704730B4022280F8D1
:104E80003D20D0F800C0DCF8082022F0770222F4A0
:104E90007F42CCF808200A68502A3DD00CDC202A3A
:104EA00074D004DC002A18BF102A51D18CE0302ABB
:104EB0006CD0402A6CD091E0602A4AD0702A06D08B
:104EC000B2F5805F44D0B2F5005F12D086E0D1E940
:104ED000014C0268C968956844EA012125F47F45C0
:104EE00041EA0C012943916001688A6842F0770227
:104EF00010E00268D1F804C08C68C96895684CEA73
:104F0000012125F47F4521432943916001688A6886
:104F100042F480428A6061E00268D1F804C0C96846
:104F2000146A156A25F001051562956924F00A04D2
:104F300025F0F00545EA011144EA0C0C9161C2F834
:104F400020C001688A6822F0700242F057028A602D
:104F500044E00268D1F804C0C968146A24F010045F
:104F600014629569146A25F4704545EA013124F00C
:104F7000A00444EA0C1C9161C2F820C001688A6850
:104F800022F0700242F067028A6027E01CE0FFE72F
:104F90000268D1F804C0CC68116A156A25F00105D1
:104FA0001562956921F00A0125F0F00545EA04141F
:104FB00041EA0C019461116201688A6822F0700272
:104FC00042F047028A6009E00168D1F808C02CF07D
:104FD000700C4CEA020242F007028A6080F83D3011
:104FE000002180F83C1030BC08467047704770B50F
:104FF0000446006801694FF0000511F0020F1CBF64
:10500000C16811F0020F13D06FF00201016101209D
:1050100020772068806910F0030F204602D0FFF748
:10502000E5FF04E000F099F8204600F097F82577B6
:105030002068016911F0040F1CBFC16811F0040F52
:1050400013D06FF00401016102202077206880698D
:1050500010F4407F204602D0FFF7C8FF04E000F0C4
:105060007CF8204600F07AF825772068016911F075
:10507000080F1CBFC16811F0080F13D06FF00801B2
:105080000161042020772068C06910F0030F2046DA
:1050900002D0FFF7ABFF04E000F05FF8204600F01D
:1050A0005DF825772068016911F0100F1CBFC168F9
:1050B00011F0100F13D06FF010010161082020775C
:1050C0002068C06910F4407F204602D0FFF78EFFB1
:1050D00004E000F042F8204600F040F82577206810
:1050E000016911F0010F1CBFC16811F0010F05D05B
:1050F0006FF001010161204600F032F8206801697B
:1051000011F0800F1CBFC16811F0800F05D06FF047
:10511000800101612046FFF7E3FD2068016911F07D
:10512000400F1CBFC16811F0400F05D06FF0400167
:105130000161204600F054F82068016911F0200F49
:105140001ABFC16811F0200F70BD6FF0200101611E
:105150002046BDE87040FFF7C4BD704770470000AF
:105160002DE9F0410068A0F18041B1F5963118BFFA
:10517000BDE8F0811648FEF7D8FF164801250178F2
:10518000E1B1DFF854C00CF109026046531F00265C
:105190000CF1080C147844B10468641C04601F68A6
:1051A000BC4204BF8CF8005006601030491E02F16A
:1051B000100203F110030CF1100CEBD107484178F9
:1051C000491E11F0FF01417008BF0570BDE8F08174
:1051D0009C10002005000020740C0020FB01002022
:1051E000704770B504460068416994F83920C1F3EE
:1051F000C0112025212A10D179B1416921F0800107
:105200004161206B002818BFFEF77BFA2068C16857
:1052100021F0C001C16084F839502068416994F8D8
:105220003A20C1F38011222A15D1A1B1416921F0A0
:1052300040014161606B002818BFFEF762FA2068E8
:10524000C16821F49071C1602068416921F00101B9
:10525000416184F83A50002070BD704770B5016814
:1052600004460868CA684B6910F00F0F4FF020051C
:1052700041D003F0010C02F490765CEA060600F0DF
:10528000FC8010F0010F18BF12F4807F03D0E66B92
:1052900046F00106E66310F0040F18BF13F0010F8B
:1052A00003D0E66B46F00206E66310F0020F18BF6B
:1052B00013F0010F03D0E36B43F00403E36310F03A
:1052C000080F1CBF02F0200353EA0C0303D0E36B6A
:1052D00043F00803E363E36B002B08BF70BD10F0DD
:1052E000200F18BF12F0200F79D094F83A202046F2
:1052F000222A4BD08AE010F0200F18BF12F0200FA6
:105300006ED094F83A202046222A18BF70BD8368D8
:10531000B3F5805F04BF0269002A826A0BD0B3F53F
:10532000805F31D0002B07BF0369002B496801F073
:105330007F0129D007E04968C1F308011180816A23
:1053400001F1020103E01170816A01F10101816242
:10535000C18DA1F101010904090CC18518BF70BDFF
:105360000168CA6822F02002CA600168CA6822F493
:105370008072CA6001684A6922F001024A6180F8BD
:105380003A5000F021FA70BD4968DCE78368B3F554
:10539000805F04BF0269002A826A0BD0B3F5805F88
:1053A0001FD0002B07BF0369002B496801F07F0164
:1053B00017D007E04968C1F308011180816A01F143
:1053C000020103E01170816A01F101018162C18D66
:1053D000A1F101010904090CC18517D103E015E011
:1053E0004BE04968EEE70168CA6822F02002CA6013
:1053F0000168CA6822F48072CA6001684A6922F0B2
:1054000001024A6180F83A5000F0DEF920684169F3
:10541000E26BC1F3801112F0080F08BF002926D0FB
:10542000C16821F49071C1602068416921F00101D7
:10543000416184F83A502068416911F0400F12D060
:10544000416921F040014161606B60B12D494163C8
:10545000606BFEF77BF9002808BF70BD606B416B85
:10546000BDE8704008472046FFF7F7FE70BD2046B4
:10547000FFF7F3FE0020E06370BD10F0800F18BF4F
:1054800012F0800F2DD094F83900212818BF70BD7C
:10549000A068B0F5805F04BF20690028206A18D09A
:1054A00000F101012162216800784860E08CA0F1E0
:1054B00001000004000CE08418BF70BD2068C168C2
:1054C00021F08001C1602068C16841F04001C160E5
:1054D00070BD0088C0F308004860206A801C20620C
:1054E000E4E710F0400F14BF12F0400F70BD2046EB
:1054F000CA6822F04002CA6084F8395000F03AFAD3
:1055000070BD0000BD690008002804BF012070477D
:1055100070B5044690F83900002520B984F8385059
:10552000204600F023F8242084F839002068C16860
:1055300021F40051C160204601F0C0FA20680169E1
:1055400021F4904101612068416921F02A01416103
:105550002068C16841F40051C160E563202084F8EF
:10556000390084F83A00002070BD00002DE9F043B6
:1055700085B00024009401940294039403680646C5
:105580005F49022003228027A3F1804C4FF01008CE
:10559000BCF59C3C63D0A3F1804CBCF5884C1CBF8F
:1055A00005B0BDE8F083CB6943F40033CB61CB6930
:1055B00003F4003304938B6943F020038B61896902
:1055C000504D01F0200104912021CDE900100392FB
:1055D00069462846FEF770FC4020CDE90004694684
:1055E00028460294FEF768FC4748416841F00801EC
:1055F00041F0E0614160464D4448C5E902472C61F5
:105600006C61C5E900084FF40058C5E90648284612
:10561000FEF770FA002818BFFDF7CBFB35636E620A
:105620003D4D3C48C5E90004C5E902472C616C6169
:10563000C5E906482846FEF75DFA002818BFFDF7C1
:10564000B8FB75630022032126206E62FEF7E0FDA1
:105650005FF02600FEF7CCFD05B0BDE8F0838B6956
:1056600043F480438B618B6903F4804304938B691B
:1056700043F004038B618969284D01F00401049112
:105680004FF40071CDE90010039269462846FEF7F9
:1056900013FC2815CDE90004694628460294FEF75C
:1056A0000BFC204D1E484FF48059C5E90004C5E9A4
:1056B00002472C616C61C5E906492846FEF71AFAD3
:1056C000002818BFFDF775FB75636E62174D16480D
:1056D000C5E902472C616C61C5E90008C5E90649C6
:1056E0002846FEF707FA002818BFFDF762FB35636E
:1056F0000122032125206E62FEF78AFD2520A9E7FD
:1057000000100240001401400000014080000240EF
:105710000C1400206C0002405014002000080140CE
:10572000580002408413002044000240C8130020A7
:1057300038B5044690F83A0020283DD1002912BF20
:10574000002A012038BD94F83800012834D0012007
:1057500084F83800A162A2850025E563222084F840
:105760003A00636B15489862636B1548D862636BA7
:1057700014481863606B134645630846D4F834C078
:10578000216802466046091DFEF704FA2068016898
:105790004168009184F83850C16841F48071C1605B
:1057A0002068416941F0010141612068416941F08F
:1057B00040014161002038BD022038BD3B6A00082D
:1057C000796A0008CD690008704770472DE9F05FDD
:1057D000044690F839001D4616468846202870D1A8
:1057E000B8F1000F12BF002E0120BDE8F09F94F821
:1057F0003800012878D0012084F838004FF0000BE1
:10580000C4F83CB0212084F83900FEF75DFCA68482
:105810008146E684A068B0F5805F03BF2069002858
:105820000026464618BF4FF0000884F838B0E08CD8
:105830004FF0200A10B300BF20684FF080070068C7
:1058400037EA00000FD000BFB5F1FF3F06D02DB3FF
:10585000FEF73AFCA0EB0901A9421FD820680068B6
:1058600037EA0000F0D16EB3216816F8010B4860EA
:10587000E08C401EE084E08C0028DDD120684026CA
:10588000006836EA00002AD0B5F1FF3F22D02DB1E2
:10589000FEF71AFCA0EB0900A8421BD92068C168DA
:1058A00021F4D071C1602068416921F0010141619A
:1058B00084F839A084F83AA084F838B00320BDE811
:1058C000F09F11E0FFE738F8020B2168C0F30800F1
:1058D0004860CDE72068006836EA0000D4D184F83B
:1058E00039A00020BDE8F09F0220BDE8F09F000035
:1058F00070B5044690F83900202833D1002912BF32
:10590000002A012070BD94F8380001282AD0012017
:1059100084F838002162A284E2840025E563212016
:1059200084F83900236B10489862236B0F48D862C3
:10593000236B0F481863206B13464563206800F102
:10594000040C6246206BFEF725F921686FF04000D9
:10595000086084F838502068416941F08001416155
:10596000002070BD022070BD836A0008B36A000881
:10597000CD69000870477047FEE708B50020009029
:105980000222694641F22600FDF7B2F8022269467A
:1059900041F22700FDF7ACF808BD00002DE9F843FF
:1059A000264E00270097244DF0883C464FF0010812
:1059B00035F8241081422ED18DF8017002226946FB
:1059C00041F22600FDF794F80220FEF72FF905EBCF
:1059D0008400328941886846914215D1811C8DF836
:1059E0000370022241F22700FDF782F80220FEF741
:1059F0001DF9F088A0F5E061E53914BF05201120FC
:105A0000FCF7ECFFBDE8F8830222811C8DF80380CF
:105A100041F227000CE0611CCCB2022CC8D318BFA5
:105A2000BDE8F8838DF801800222694641F2260024
:105A3000FDF75EF8BDE8F88310A50008040000201B
:105A400000B58BB000200290039004900590069062
:105A500007900890099002A800F0A4FB034602A852
:105A600000905A080021022000F002F80BB000BD9F
:105A700070B53D4DADF5007D002605F5017C849C9B
:105A800006F80C000120462600F80C6002200E0AE1
:105A900000F80C60032000F80C100420110A00F834
:105AA0000C10052000F80C20062000F80C30072010
:105AB000A5F80404DBB1611E05F20A2013F0010F02
:105AC00003D011F8012F00F8012F5A080AD000BFA7
:105AD00091F801C080F801C011F802CF00F802CFA0
