:020000040800F2
:10000000385500201502000861440008593D0008D9
:10001000414400088D090008E94F00080000000075
:10002000000000000000000000000000074700087A
:10003000B911000800000000ED4400088D4C0008D4
:100040002F0200082F0200082F0200082F020008CC
:100050002F0200082F0200082F0200082F020008BC
:100060002F0200082F0200082F020008C90F000805
:100070002F0200082F020008D50F0008E10F00082A
:10008000ED0F0008F90F00082F0200082F020008EA
:100090002F0200082F0200082F0200082F0200087C
:1000A0002F020008954C00082F0200082F020008BC
:1000B0002F0200082F0200082F0200082F0200085C
:1000C0002F0200082F0200082F0200082F0200084C
:1000D0002F020008594F0008A14F00082F02000806
:1000E0002F0200082F0200082F0200082F0200082C
:1000F0002F0200082F0200082F0200082F0200081C
:100100002F0200082F0200082F0200082F0200080B
:100110002F0200082F0200082F0200082F020008FB
:100120002F0200082F0200082F0200082F020008EB
:1001300000F002F800F05EF80AA090E8000C82449B
:100140008344AAF10107DA4501D100F053F8AFF278
:10015000090EBAE80F0013F0010F18BFFB1A43F0A5
:1001600001031847F08C0000108D00000A444FF086
:10017000000C10F8013B13F0070408BF10F8014B06
:100180001D1108BF10F8015B641E05D010F8016B4B
:10019000641E01F8016BF9D113F0080F1EBF10F8AF
:1001A000014BAD1C0C1B09D16D1E58BF01F801CBD2
:1001B000FAD505E014F8016B01F8016B6D1EF9D555
:1001C0009142D6D37047000000230024002500266A
:1001D000103A28BF78C1FBD8520728BF30C148BFAA
:1001E0000B6070471FB59DE8030000F0FDF91FBDCF
:1001F00010B510BD00F086FA1146FFF7F3FF04F0CA
:1002000081FF00F0A4FA03B4FFF7F2FF03BC00F093
:10021000D5FA00000948804709480047FEE7FEE795
:10022000FEE7FEE7FEE7FEE7FEE7FEE7FEE7FEE7A6
:1002300004480549054A064B70470000914C0008E8
:1002400031010008381500203855002038350020CD
:100250003835002070B5064600F0AAF9056806F1A9
:100260000B0020F00704B4429CBF002070BD2B4659
:100270006A68BAB11068A04210D304F1080188423C
:100280003CBF5068586007D351681019416011682D
:10029000091B016058601460101D70BD1346526840
:1002A000002AE7D12146284600F08AF90028DED14D
:1002B00070BD70B50446051F00F07AF90068002C87
:1002C00014BF446870BD002C18BFAC423CBF204630
:1002D0006468F8D301680A18AA4218BF456003D1C0
:1002E0002A6805461144016028684119A1421CBFD3
:1002F0006C6070BD6168696021680844286070BDE9
:10030000B2F120030AD5C2F1200320FA02F001FA6B
:1003100003F321FA02F140EA0300704721FA03F0E7
:100320004FF00001704710B5431C02E010F8011BAC
:1003300071B18107FAD14FF0013202C88C1A8C4397
:1003400014EAC211F9D0C01A0A0603D0C01E10BDAB
:10035000C01A10BD0A0401D0801E10BD0902FCD0D5
:10036000401E10BD40EA010370B59B072ED14FF02F
:100370000136042A2AD308C810C99D1B9D43121FA9
:1003800015EAC61517D0D8B2E1B2401A50EA056195
:1003900010D198B2A1B2401A50EA05410AD123F017
:1003A0007F4024F07F41401A50EA052102D1180E07
:1003B000A0EB146070BDA342DBD018BA21BA88420A
:1003C00001D9012070BD4FF0FF3070BD0AB9002087
:1003D00070BD10F8013B11F8014B63B1A3420AD183
:1003E000521E08D010F8013B11F8014B1BB1A3427B
:1003F00001D1521EEDD1181B70BD032A40F230808E
:1004000010F0030C00F0158011F8013BBCF1020F55
:10041000624498BF11F801CB00F8013B38BF11F8D6
:10042000013BA2F1040298BF00F801CB38BF00F8ED
:10043000013B11F0030300F00D81083AC0F0088081
:1004400051F8043B083A51F804CBA0E80810F5E74E
:10045000121D5CBF51F8043B40F8043BAFF3008031
:10046000D20724BF11F8013B11F801CB48BF11F8A6
:10047000012B24BF00F8013B00F801CB48BF00F876
:10048000012B704702F0FF0343EA032242EA0242D3
:1004900000F002B84FF000020429C0F0128010F002
:1004A000030C00F01B80CCF1040CBCF1020F18BF50
:1004B00000F8012BA8BF20F8022BA1EB0C0100F0E3
:1004C0000DB85FEAC17C24BF00F8012B00F8012BB6
:1004D00048BF00F8012B70474FF0000200B51346EB
:1004E00094469646203922BFA0E80C50A0E80C5054
:1004F000B1F12001BFF4F7AF090728BFA0E80C5005
:1005000048BF0CC05DF804EB890028BF40F8042BFD
:1005100008BF704748BF20F8022B11F0804F18BF6A
:1005200000F8012B704700004FF0013C50F8042BFD
:1005300051F8043B9A4221D1A2EB0C03934313EAF6
:10054000CC1317D150F8042B51F8043B9A4215D123
:10055000A2EB0C03934313EACC130BD150F8042BFA
:1005600051F8043B9A4209D1A2EB0C03934313EADE
:10057000CC13DBD04FF00000704700BFD01A01BA97
:10058000B1FA81F101F0180122FA01F0CB40C1F17A
:100590002001DBB2C0B2C01A2CFA01F3D11A914388
:1005A00011EAC311E6D170477047704770470000E9
:1005B00000487047E014002070477047704770474C
:1005C00038B504460A4600206946AFF3008000288B
:1005D00008BF38BD02460099204600F071F801209E
:1005E00038BD012000F086B8F8B5AFF300800546AD
:1005F00000200C46102000BF0646A819A0420DD9C5
:10060000324669460020AFF30080070008BF00F0C3
:1006100071F80098A04218BF0546C419FFF7C8FF3B
:1006200005600746F01D20F007004619284600F037
:100630000AF8B44208BFF8BDA21B31463868BDE8CD
:10064000F84000F03DB800210160C0E9011070479A
:100650001020704710B5203AC0F00B80B1E8185058
:10066000203AA0E81850B1E81850A0E81850BFF49C
:10067000F5AF5FEA027C24BFB1E81850A0E818503B
:1006800044BF18C918C0BDE810405FEA827C24BF8F
:1006900051F8043B40F8043B08BF7047D20728BF1D
:1006A00031F8023B48BF11F8012B28BF20F8023B6C
:1006B00048BF00F8012B704700487047D81400204D
:1006C000034640688C46002818BF88423CBF03465A
:1006D0004068F8D318681844884207D00CF103002A
:1006E00020F00700001D411A521A0146081D0A6039
:1006F000FFF7DFBD10B500F039F8BDE8104000F09D
:100700002FB870477546FFF7D7FFAE46050069461C
:10071000534620F00700854618B020B5FFF788FD46
:10072000BDE820404FF000064FF000074FF00008F2
:100730004FF0000B21F00701AC46ACE8C009ACE873
:10074000C009ACE8C009ACE8C0098D46704710B5D7
:100750000446AFF300802046BDE81040FFF753BDCC
:10076000002801D000F02AB87047000010B5012819
:1007700005D0002103A000F027F8012010BD09A139
:10078000F8E7000053494752544D454D3A204F7504
:1007900074206F662068656170206D656D6F727979
:1007A000000000003A2048656170206D656D6F7231
:1007B0007920636F72727570746564000149182046
:1007C000ABBEFEE72600020070B505460C460A20C7
:1007D00000E06D1C00F011F835B128780028F8D140
:1007E00002E0641C00F009F814B120780028F8D168
:1007F000BDE870400A20AFF3008008B569468DF867
:1008000000000320ABBE08BD70B5044600688168D7
:1008100011F0010F20D0816821F00101816001F009
:1008200049FE05462068806810F0010F14D000BF13
:1008300001F040FE401B022809D9A06A40F01000D8
:10084000A062E06A40F00100E062012070BD206813
:10085000806810F0010FEBD1002070BD10B502468A
:10086000406A816A11F0500F05D0006A016BBDE843
:10087000104010460847816A41F4007181620168A6
:1008800089684FF4602232EA010104BF017B00292C
:100890000BD1816A21F480718162816A11F4805FD9
:1008A00003D1816A41F00101816200F0E9FE10BDCF
:1008B00010B5406A816A41F040018162C16A41F02D
:1008C0000401C16200F0DEFE10BD10B5406A00F008
:1008D000D8FE10BD70B582B00026044601960068AF
:1008E000816811F0010F44D1816841F001018160FC
:1008F000244825490068B0FBF1F001900090C0B198
:10090000B0F1004F38D20028D8BF002005DD10F02C
:10091000010002D00199491E01910099401C491C17
:10092000884206DA019A801C521E521E01928842A9
:10093000F8DB01F0BFFD05462068806810F0010F6C
:1009400017D100BF01F0B6FD401B02280CD9A06AE8
:1009500040F01000A062E06A40F00100E06284F81C
:10096000246002B0012070BD2068806810F0010F83
:10097000E8D002B0002070BD0198401E0190FCD16B
:10098000D7E700001002002040420F00FEE7000001
:10099000034901220A80008840BA4882704700005B
:1009A0001C0C0020064901220A80008842BA054832
:1009B000CA810B2100688069D0F8643218470000B2
:1009C0001C0C002030020020094890F83610012944
:1009D00006BF90F837100029704710B5054C216903
:1009E000491C21618168606907F006FB606110BDE8
:1009F000340C0020040000202DE9F04F85B08A4817
:100A000000250295006802AA29468069D0F82C3298
:100A10009847DFF818B2DFF81892DFF818A2864C72
:100A200002984FF00208012758B184F8397000226B
:100A30000221504601F038FD84F83C8084F836509D
:100A40007FE084F839507D4821688142C0F2C2803D
:100A500094F8370001281FBF94F83A00012894F851
:100A60003B0001287ED09BF80000002865D08BF861
:100A7000005000F0BDFC724E0090708A07F058FCE8
:100A8000704907F027FB009907F0B6FA60600098FC
:100A9000B0F5000F02DB10F1FF4F20D26A49421877
:100AA0006A498A4238BF38461AD3694A02448A42A0
:100AB00038BF404614D3674A674B02449A4238BF56
:100AC00003200DD3654A02448A4238BF042007D36D
:100AD000634908446349884238BF052000D328464B
:100AE0000190308A07F024FC5F49009007F068FC11
:100AF0005E49606107F064FC07F0E2FB70805C49CE
:100B0000009807F05DFC5949E06107F059FC07F0D7
:100B1000D7FBF0805749009807F052FC5349A06278
:100B200007F04EFC07F0CCFBB081019803F090FE7B
:100B300003F0DEFCC82089F8010084F8367084F8E0
:100B40003C5094F83C004C4EE8B302281CBF05B062
:100B5000BDE8F08F03F086FCA169206807F0FCFB7C
:100B600009D300E036E0354821688142A4BF94F8FB
:100B70003900002817D08BF8007084F83B50A5602E
:100B80006560CBF81050CBF8145084F837504FF014
:100B900000024FF00101504601F086FC00220221C4
:100BA000504601F081FC606803F0FCFE0022032146
:100BB000304601F079FC89F8005084F8338094F8CD
:100BC0003B00012800E00AE008BF84F8357005B05A
:100BD000BDE8F08F84F8365084F83C80B1E794F893
:100BE000390098B901220221504601F05DFC99F8C4
:100BF000000098B101220321304601F055FC01228A
:100C00001146504601F050FC04F0FCF994F83D0008
:100C1000032818BF00F0B2F800F030F884F8337001
:100C200005B0BDE8F08F0000300200200400002075
:100C3000FB01002000140140340C00200000A04003
:100C40001C0C002000007A446566E6BEFEFF4700EB
:100C5000656666BE989919BECBCC42006566E6BD56
:100C6000FFFFBFBDFFFF4C00CDCC4C3D000020413D
:100C7000CDCCCC3D0AD7A33D00080140F8B51D4CB2
:100C80000025009594F83D0048B1012808BF0820D0
:100C90001DD00126022807D0032825D019E060695D
:100CA00000F006FC022012E013486A4602210068A8
:100CB0008069D0F82C329847009801281CBF84F82E
:100CC0003850E06909D000BF00F0F2FB042084F83E
:100CD0003500606803F066FEF8BD84F838600749A7
:100CE000E06907F06DFBEFE784F83760102065607E
:100CF000EDE70000340C0020300200200000A03F8F
:100D0000F8B5154D0024009495F83D000126022801
:100D100012D195F83800012814BF8DF801408DF8E4
:100D200001600222694641F2104000F005FA8DF898
:100D30000140022001F070F995F8360001280CBF3F
:100D40008DF801608DF80140022269464FF4A050F1
:100D500000F0F2F9F8BD0000340C002000880249D0
:100D600040BA088170470000040000200088024952
:100D700040BAC88070470000040000202DE9F0410F
:100D8000254C00260127A068244DB0F17C5F08DACD
:100D9000A878401CC0B2A8700A2884BF84F83A70B2
:100DA000AE704FF07E51206807F008FC616807F0D4
:100DB000D3FB13D34FF07F51206A07F01DF9616810
:100DC00007F0CAFA0AD34FF07F51206A07F014F9EE
:100DD000216807F0C1FA28BFBDE8F08100F008FBE8
:100DE00080460F48408A07F0A3FA0E4907F072F9CF
:100DF000414607F001F96060E878401CC0B2E87035
:100E0000052838BFBDE8F081EE7084F83B700420FF
:100E100084F83D00BDE8F081340C0020040000207F
:100E20001C0C002000007A442DE9F05F3448417822
:100E300079B3344F00F1580A0AF10406B946341D5B
:100E400009F10405631C00F158086A1D09F1080C3A
:100E50005FF0000056F810AB14F8109B13F810BBAD
:100E600058F810EB47F810EB45F810AB0CF8109B56
:100E7000DFF8949002F810BB09EB0019D9F80CA028
:100E8000DFF8809009EB0019401CC9F80CA0491E3E
:100E9000E0D11E4D002400BF05EBC400416855F8A9
:100EA000340000F0AFF8601CC4B2172CF4D3182241
:100EB0001749184800F0A6F9154800210288012AB0
:100EC00019D04FF4C0728280022242804FF40D721A
:100ED00002810522C2804FF404734381032383817E
:100EE00002824FF4F072C2814FF4FA724282818220
:100EF0004FF4FF72C2820180BDE8F05F03F0F8BAE0
:100F000004000020740C00205C000020DC000020A5
:100F10001C0C002000F80708074910B501220A80C0
:100F2000008840BA088107F003FA044907F0D2F8B4
:100F30000349086210BD00001C0C00200000204185
:100F4000340C0020074910B501220A80008840BAFD
:100F5000C88007F0EDF9044907F0BCF80349C861FF
:100F600010BD00001C0C002000002041340C0020AB
:100F7000074910B501220A80008840BA888107F02D
:100F8000D7F9044907F0A6F80349886210BD0000AC
:100F90001C0C002000002041340C0020074910B533
:100FA00001220A80008840BA488107F0C1F904494B
:100FB00007F090F80349486210BD00001C0C0020A7
:100FC00000002041340C0020014800F055BE000014
:100FD00044100020014800F04FBE0000C81300205C
:100FE000014800F049BE000084130020014800F0D1
:100FF00043BE000050140020014800F03DBE000038
:101000000C140020064BDFF814C01A784CF832009C
:101010000CEBC2004160501C18707047F4040020B3
:1010200000000020F0B4154B002203F597714FF03B
:101030005A0C012402F801C0A52565540226072593
:101040007554032682277754042672540522842679
:101050005654062202F801C008226C544FEA102CA4
:1010600002F801C0092250540A22A3F85A2203F5BB
:1010700097712303F0BC024802F098BD980200204B
:10108000441300201A4801785A291BBF4178A5292A
:10109000C178002116BFA0F82C118329704730B504
:1010A000818899B04CBA817949060D0EC11D2A4636
:1010B0006846FFF7A2F90F4900200978B1F1FF3F18
:1010C00019BF0D4B491C19B030BD00BF53F830C0DB
:1010D000A44507D103EBC000294642686846904703
:1010E00019B030BD401CC0B28842EFD319B030BD3A
:1010F0009802002000000020F404002010B4DFF863
:1011000034C099B1421EACF1010011F0010F03D0BF
:1011100012F8013F00F8013F4B0807D054784470A3
:1011200012F8024F00F8024F5B1EF7D1ACF82C11F9
:1011300010BC70479802002030B4DFF874C000245F
:101140000CF597735A25E5540124A525E55402258D
:10115000D41CEC5403248225E5540424050AE554E8
:101160000524E0540620ACF85A02BAB1581D491EB5
:1011700012F0010F03D011F8013F00F8013F5308AE
:1011800007D04C78447011F8024F00F8024F5B1EF4
:10119000F7D1BCF85A021044ACF85A029CF85A2213
:1011A00030BC0CF597714FF48053024802F0FEBC3E
:1011B00098020020441300207047530870B40A447A
:1011C000A2F1010202F0FF0C19BF0144002270BC21
:1011D00070470D78ACEB0204521C065D01F8016B00
:1011E00005555B1EF5D170BC7047704710B501F016
:1011F00041F803493420C860BDE8104000F088BFC2
:101200000020024010B4A0F10063B3F5002F1ED8F7
:10121000002A18BF00291AD012F0010303D050F899
:1012200002CBA1F800C093420ED200BF50F802CB0F
:1012300021F813C050F802CB01EB43049B1C9BB276
:10124000A4F802C09342F1D310BC0120704710BC37
:101250000020704770B5054601F02CF9294C064670
:10126000E06810F0010F0ED0B5F1FF3F07D025B1B7
:1012700001F020F9801BA84201D9032070BDE0686D
:1012800010F0010FF0D1E06810F0200F1CBF2020FB
:10129000E060E06810F0100F01BFE06910F0010F8E
:1012A000E06810F0040008BF70BD0021E06810F095
:1012B000100F154804D0C16941F00201C16110212D
:1012C000E26812F0040F05D0C26942F00102C26167
:1012D00041F00401E26912F0010F07D0C26942F047
:1012E0000402C261E06920F00100E061A1F58070B4
:1012F000013818BFE16003D1E06920F00100E0612E
:10130000012070BD00200240981400202DE9F0411A
:1013100086B0054600200F46009001210290CDE9DD
:101320000451A5F100601646B0F5002F1DD8002E1F
:1013300018BF002F19D000F09DFF694602A800F0E9
:101340007FFE0024002E18D937F8142005EB440145
:1013500090460023012000F0E5FE35F814004045DA
:1013600007D006B00120BDE8F08106B00020BDE83E
:10137000F081601C84B2B442E6D300F0C9FE00984C
:1013800006B0BDE8F081000010B5064C20880128A9
:1013900018BF10BD182203490348FFF7B7FF00200C
:1013A000208010BD1C0C002000F8070830B40F4945
:1013B000002301EB80042046D4F808C021680722EE
:1013C00050F8105F6144D0F808C02B44521EF7D18A
:1013D000C818211B78312246C9105CBF52F8311061
:1013E0000844C0F3CF0030BC70470000940F0020C9
:1013F0002DE9F0410120FFF7D9FF002808BFBDE823
:10140000F0814FF0010C022503260427002240F250
:101410003231B0F51B7F1AD3A0F26D23B3F5337FC1
:1014200038BF644614D3A0F23A53B3F5347F98BF63
:101430002C460DD9A0F60C03B3F5347F98BF344683
:1014400006D9A0F6DE23994288BF3C4600D8144650
:10145000164BB0F51B7F53F8344019D3A0F26D281A
:10146000B8F5337F38BF624612D3A0F23A5CBCF5C0
:10147000347F98BF2A460BD9A0F60C0CBCF5347FFC
:1014800098BF324604D9A0F6DE2C8C4538BF3A46C8
:1014900003EBC2014D6806F04BFF214606F090FFBA
:1014A0002946BDE8F04106F0A7BD0000A08700086E
:1014B00070B5194D84B00646A96807F07FF8029010
:1014C00020F00040009000241449304606F002FE4F
:1014D0003116012646EAE111B1F1FF3F04BF04B025
:1014E00070BD009911F0FF4F0ED00146009807F033
:1014F00033F809D29DF90B0046EAE01006F000FF30
:10150000074906F05DFF04462146686806F074FD51
:10151000686004B070BD0000340C00200000F04191
:10152000CDCC4C3D70B483B04FF0000CCDF808C06A
:1015300090F824206446012A01BF022003B070BC49
:101540007047012280F824204A681F23072A0DD201
:1015500005686E6B521E02EB8202934026EA03037B
:101560000E6806FA02F21A436A631BE005680D2A48
:101570000CD22E6BD21F02EB8202934026EA0303A9
:101580000E6806FA02F21A432A630BE0EE6A0D3A7D
:1015900002EB8202934026EA03030E6806FA02F287
:1015A0001A43EA620A68072503680A2A0CD3DE6830
:1015B0000A3A02EB4202954026EA05058E6806FAD1
:1015C00002F22A43DA600AE01E6902EB4202954009
:1015D00026EA05058E6806FA02F22A431A610A68AD
:1015E000102A18BF112A0BD10268A2F18043B3F56B
:1015F00092330BD0816A41F0200181624FF0010CDF
:1016000080F8244003B0604670BC7047936813F4C0
:10161000000FF5D1936843F4000393600968102923
:10162000EED11549154A0968B1FBF2F101EB8101D0
:10163000490002910091E3D0B1F1004F16D2002988
:10164000D8BF002105DD11F0010102D0029A521E1F
:101650000292009A491C521C9142D1DA029B891CC9
:101660005B1E5B1E02939142F8DBC9E70299491E9B
:101670000291FCD1C4E700001002002040420F009C
:1016800070477047704700002DE9F04104004FF0AB
:10169000000604BF0120BDE8F081A06A002528B93A
:1016A000E56284F82450204600F090F82046FFF7C9
:1016B000ABF80146A06A10F0100F08BF002904D053
:1016C000A06A40F01000A06276E0A06A20F4885082
:1016D00040F00200A0622268A2F18040B0F59E3086
:1016E000E06904BFB0F5402F4FF4002094F80CC01F
:1016F00040EA4C03606843EA0003A068B0F5807FCD
:1017000016BF01284FF480700020277D012F0ED1D5
:10171000BCF1000F21D0D4F828C04CF0200CC4F844
:1017200028C0D4F82CC04CF0010CC4F82CC0D2F85E
:1017300004C02CF4694C4CEA0000506020688268B8
:10174000DFF87CC002EA0C021A438260A068B0F5A0
:10175000807F18BF01280FD109E01A4FD4F818C0B4
:1017600007EB4C3C4CEA000040F40060DFE7208AC5
:101770004FEA0050A0F580162068C26A22F4700279
:1017800042EA0602C262206880680F4A00EA02004C
:10179000984207D1E562A06A20F0020040F0010003
:1017A000A0620AE0A06A20F0020040F01000A062EF
:1017B000E06A40F00100E06201210846BDE8F081E6
:1017C000FDF7E1FF00E0FFFFFE0E1FFF70B586B0E2
:1017D0000026054600960196029603960068A0F141
:1017E0008041B1F592311CBF06B070BD19498869BE
:1017F00040F400708861886900F400700490886982
:1018000040F0040088618869694600F00400049093
:10181000C0200090032001900F4800F043FD104CC1
:101820000E48C4E900068020C4E9026080002061FF
:10183000800060612020A0614FF44050E0612046AC
:1018400000F04EFB002818BFFFF7CFFC2C6265624A
:1018500006B070BD001002400008014008000240C0
:10186000441000202DE9F047044600688946404FA7
:10187000404EA0F180419046B1F5923118BFB84278
:1018800008D1306810F4702F18BF012502D0284607
:10189000BDE8F08794F82400012804BF0220BDE8C9
:1018A000F087012084F824002046FFF713F8050094
:1018B0004FF0000018BF84F82400E8D1A16A21F09D
:1018C000010121F4606141F48071A1622168B94293
:1018D00045D1326812F4702F41D0A16A41F48011D1
:1018E000A162316811F4806F05D0A16A21F4005122
:1018F00041F48051A162A16A11F4805F08BFE062E7
:1019000003D0E16A21F00601E16284F82400216A33
:1019100019488862216A1948C862216A1848086310
:1019200021686FF0020008602068816841F48071CE
:1019300081602068434600F14C014A46206A00F06D
:101940001FFB206881684FF4602232EA0101816840
:101950000CBF41F4A00141F48011816097E7A26AB5
:1019600022F48012A262496811F4806FC3D0BCE7F0
:1019700000280140042401405D080008CB0800084D
:10198000B10800084379012B04BF0220704730B42E
:101990004FF0010C80F805C00223037103681C6836
:1019A00002F0100240F6FE759540AC43D1E90051BB
:1019B000294391402143196001680C68C02303FA50
:1019C00002F224EA02030B6001680B6823EA0202B8
:1019D0000A6080F804C00021417130BC084670479D
:1019E000002804BF0120704770B504460079002527
:1019F00018B96571204600F007F8022020712561B2
:101A000001202071002070BD00B585B0002100913B
:101A10000191029103910068A0F18041B1F5E84184
:101A20001CBF05B000BD0D48C16941F00051C16146
:101A3000C16901F000510491816941F004018161A3
:101A40008069694600F00400049010200090032093
:101A50000190034800F026FC05B000BD00100240D4
:101A60000008014081B0D0F800C0CDF800C0006887
:101A7000002910440CBF083014300090036000208F
:101A800001B070474279012A04BF0220704730B488
:101A90000122427102230371D0F800C0DCF800403B
:101AA00001F0100302FA03F52C43CCF800400029A2
:101AB00001684FF03C0C11D00C680CFA03F304F4ED
:101AC00070149C4204BF4B6843F0020300D14B608A
:101AD00002710021417130BC084670470B683CEA36
:101AE000030304BF4B6843F00103F1D1EFE790F823
:101AF00021200021022A05D00422826380F82010D0
:101B0000012070470268136823F00E031360026817
:101B1000136823F00103136090F84030D0F83CC004
:101B2000012202FA03F3CCF8043080F8212080F877
:101B300020100846704700002DE9F05F90F8211052
:101B40000024022903D004218163012477E0016885
:101B50000A6822F00E020A6001680A6822F0010297
:101B60000A60384A0168384BDFF8E0C0384D394E1A
:101B7000394FDFF8E880DFF8E890DFF8E8A0DFF819
:101B8000E8B0DFF8E8E0914225D999420ED06145EE
:101B900010D0A94212D0B14215D0B94216D0414559
:101BA00008BF4FF4801113D0494501D101210FE046
:101BB000514501D110210BE0594502D14FF48071FC
:101BC00006E0714502D14FF4805101E04FF48031BD
:101BD000274A116029E0994213D0614515D0A942E6
:101BE00017D0B1421AD0B9421BD0414508BF4FF4BB
:101BF000801118D0914208BF4FF0807113D0494531
:101C000001D101210FE0514501D110210BE05945CF
:101C100002D14FF4807106E0714502D14FF480513A
:101C200001E04FF48031134A5160012180F8211006
:101C3000002180F82010416B002918BF88472046FA
:101C4000BDE8F09F80000240080002401C000240F6
:101C50003000024044000240580002406C00024044
:101C6000080402401C0402403004024044040240C4
:101C700004040240000002402DE9F05FC16B0E68D1
:101C800001680D68D0F840B0042202FA0BF232422B
:101C9000864A874FDFF81C82DFF81C92DFF81CA20F
:101CA000874BDFF820C2884C18BF15F0040F64D0B2
:101CB0000D6815F0200F03D10D6825F004050D60A7
:101CC000824D0168A94227D991420ED0B94210D065
:101CD000414513D0494517D0514518D0994208BF06
:101CE0004FF4800115D0614501D1042111E0A142DA
:101CF00001D140210DE0764A914202D14FF480613A
:101D000007E0744A914202D14FF4804101E04FF460
:101D10008021714A11602BE0914213D0B94215D055
:101D2000414518D049451CD051451DD0994208BFA6
:101D30004FF480011AD0A94208BF4FF0806115D03E
:101D4000614501D1042111E0A14201D140210DE002
:101D50005F4A914202D14FF4806107E05D4A9142AF
:101D600002D14FF4804101E04FF480215B4A516081
:101D7000C16A002975D1BDE8F09F4FF0020E0EFA3E
:101D80000BFE1EEA060F18BF15F0020F6BD00D6890
:101D900015F0200F06D10D6825F00A050D60012110
:101DA00080F82110494D0168A94227D991420ED0EF
:101DB000B94210D0414513D0494517D0514518D0EC
:101DC000994208BF4FF4001115D0614501D102219D
:101DD00011E0A14201D120210DE03D4A914202D102
:101DE0004FF4007107E03B4A914202D14FF4005199
:101DF00001E04FF40031384A11602BE0914213D0DA
:101E0000B94215D0414518D049451CD051451DD087
:101E1000994208BF4FF400111AD0A94208BF4FF0F1
:101E2000007115D0614501D1022111E0A14201D11B
:101E300020210DE0264A914202D14FF4007107E0C3
:101E4000244A914202D14FF4005101E04FF4003195
:101E5000224A5160002180F82010816A09B9BDE84A
:101E6000F09F1FE0FFE7082202FA0BF2324214BF94
:101E700015F0080FBDE8F09F0A6822F00E020A6014
:101E800090F84020C36B012101FA02F25A6081638D
:101E900080F82110002180F82010016B002908BF74
:101EA000BDE8F09FBDE8F05F084700000800024071
:101EB0001C00024030000240440002405800024032
:101EC0006C000240080402401C04024080000240F2
:101ED0003004024044040240040402400000024076
:101EE000002804BF012070471F4B01681F4A994218
:101EF00008D21F4B0B44A2FB03321209920002646A
:101F00001C4A07E01C4B0B44A2FB0332120992004F
:101F100002641A4AC26310B4022280F821200A68BF
:101F2000D0E9013C43EA0C03D0E903C44CEA040CB9
:101F300043EA0C03D0F814C06FF30D1243EA0C030C
:101F4000D0F818C043EA0C03D0F81CC043EA0C03D5
:101F50001A430A6000218163012280F8212080F861
:101F6000201010BC0846704708040240CDCCCCCCF1
:101F7000F8FFFDBF00000240F8FBFDBF0004024077
:101F800070B490F820404FF0000C012C02BF0220EA
:101F900070BC7047012480F8204090F82160002533
:101FA000012E1CBF80F820504FF0020C02D070BCF4
:101FB00060467047022680F82160856305682E68B8
:101FC00026F001062E6090F84050AC40C56B6C6066
:101FD000046863604368102B036803BF9A6002685B
:101FE000D16099601CBF0168CA60C16A002901689C
:101FF0000A6818BF42F00E0206D122F004020A60FD
:1020000001680A6842F00A020A600068016841F04B
:1020100001010160CBE7000070B5044600F04AFA08
:102020000546B4F1FF3F02D004480078044400F0B4
:1020300041FA401BA042FAD370BD00000402002008
:102040002DE9F047304F06468A46387E4FF00108AA
:10205000012804BF0220BDE8F087012038763068EF
:102060002A4D02284FF000094CF2503003D0FFF700
:10207000F1F8C0B143E0FFF7EDF800283FD1C7F811
:102080001C90286940F004002861286940F0400055
:1020900028614CF25030FFF7DDF88046286920F0C7
:1020A000040028612BE04FF0FF30CAF80000D6E9A9
:1020B000024004EBC020A04221D900BFC7F81C9009
:1020C000286940F0020028616C61286940F04000F6
:1020D00028614CF25030FFF7BDF85FEA000828692C
:1020E00020F00200286102D0CAF8004007E0D6E9DB
:1020F000020100EBC12004F50064A042DED887F89D
:1021000018904046BDE8F087981400200020024057
:102110000348016941F0800101610020704700001F
:10212000002002402DE9FF5FDFF8408106460025D0
:1021300098F8180082B092469B46012802BF022000
:1021400006B0BDE8F09F012488F818404CF25030EA
:10215000FFF780F84FF0000900287DD1012E08BF5D
:10216000012026D0022E0EBF02200420009020D095
:102170003F4C03982A0100EB450650465946FEF7AE
:10218000BFF8C8F81C90216941F00101216130803D
:102190004CF2503600F08EF90746E06810F0010F5F
:1021A0000DD000BF00F086F9C01BB04203D9032058
:1021B0004AE00090DCE7E06810F0010FF2D1E0683F
:1021C00010F0200F1CBF2020E060E06810F0100F1E
:1021D00004BFE06910F0010F05D1E06810F0040FB2
:1021E00008BF484630D0E168002011F0100F06D03B
:1021F000D8F81C0040F00200C8F81C001020E1686C
:1022000011F0040F07D0D8F81C1041F00101C8F8F4
:102210001C1040F00400E16911F0010F09D0D8F85A
:102220001C1041F00401C8F81C10E16921F0010103
:10223000E161A0F58071013918BFE06003D1E06968
:1022400020F00100E0610120216921F001012161FC
:1022500010B9691CCDB200E002E000998D4288D32C
:1022600088F8189006B0BDE8F09F00009814002090
:1022700000200240084900200A6912F0800F08BFC0
:102280007047064A4A60064A4A60096911F0800FA1
:1022900018BF01207047000000200240230167455D
:1022A000AB89EFCD00230A689C46002A08BF70471F
:1022B0002DE9F84F784EDFF8DC914FF001080F2739
:1022C00006F1040E0A6808FA03F42240A2427CD107
:1022D0004D68A5F1805AAAF5881A4D4500F0C980CD
:1022E00074DC032D08BF4FF0000C1BD00DDC002D5B
:1022F0006DD0012D08BFD1F80CC013D0022D04BF42
:10230000D1F80CC00CF1080C0CE0112D04BFD1F871
:102310000CC00CF1040C05D0122D04BFD1F80CC078
:102320000CF10C0CB2F5807F34BF0546051D4FEA59
:10233000830428BF203CD5F800A007FA04FB2AEA52
:102340000B0A0CFA04F44AEA04042C604C6814F0FA
:10235000805F74D0514CA56945F00105A561A46961
:1023600004F00104009423F0030404F1804505F512
:102370008035D5F808A04FEA83744FEA147407FA41
:1023800004FB2AEA0B0AA0F1804BBBF5843B2CD05E
:10239000A0F1804BBBF5863B08BF4FF0010B24D06A
:1023A000A0F1804BBBF5883B08BF4FF0020B1CD05F
:1023B000A0F1804BBBF58A3B08BF4FF0030B14D054
:1023C000A0F1804BBBF58C3B02E038E03EE050E0F2
:1023D00008BF4FF0040B08D0A0F1804BBBF58E3B3B
:1023E0000CBF4FF0050B4FF0060B0BFA04F444EA58
:1023F0000A04AC604C6814F4803F346814BF144382
:10240000944334604C6814F4003FDEF8004014BF7D
:1024100014439443CEF800404C6814F4801F204CC1
:10242000256814BF1543954325604C6814F4001FBC
:102430001C4C256814BF2A4325EA020222600A6860
:102440005B1CDA407FF43EAFBDE8F88FBAF5881F19
:102450000FD007DCBAF5803F18BFBAF5801F7FF4B4
:1024600061AF06E0BAF5001F18BFBAF5041F7FF48C
:1024700059AFD1F808C0BCF1000F08BF4FF0040CF1
:102480003FF450AFBCF1010F4FF0080C0CBF0461DA
:10249000446147E7000011100004014000100240B1
:1024A000080401400C040140002A08BF090401612E
:1024B0007047000001488068704700000402002057
:1024C000002804BF0120704770B504464CF6CC408C
:1024D00021680860216845F255500860D4E9000180
:1024E00041602168A0688860FFF7E4FF0546206826
:1024F000C06850B1FFF7DEFF401B262801D903203A
:1025000070BD2068C0680028F4D121684AF6AA206E
:102510000860002070BD00684AF6AA210160002012
:10252000704700000248816802781144816070475A
:1025300004020020074810B5016841F01001016055
:10254000032000F08DF8002000F006F800F024F8D9
:10255000002010BD0020024070B50D4D04464FF420
:102560007A712878B1FBF0F00A490968B1FBF0F004
:1025700000F096FD48B9102C07D200222146501ECB
:1025800000F03CF800206C6070BD012070BD0000C0
:1025900004020020100200200E4808B5816941F0B5
:1025A00001018161816901F001010091C16941F07E
:1025B0008051C161C06900F080500090042000F09B
:1025C0004FF80548416821F0E06141F00071416039
:1025D00008BD000000100240000001400028B8BF04
:1025E000704700F01F01012202FA01F1400980004A
:1025F00000F1E020C0F8001170470000174B10B444
:102600001B68C3F30223C3F1070CBCF1040F88BF9E
:102610004FF0040C1C1D072C34BF0023DB1E0124CB
:1026200004FA0CFCACF1010C0CEA0101994004FA2B
:1026300003F35B1E1A40114300284FEA0111A1BFAA
:1026400000F1E02080F8001410BC704700F00F008B
:1026500000F1E02080F8141D10BC70470CED00E084
:10266000074900F007000A684FF6FF031A4042EAE4
:10267000002040F0FD7040F080600860704700006E
:102680000CED00E0014901200862704700000E4295
:1026900010B586B001460FF2EC0C9CE80D108DE8E9
:1026A0000D103CA03C4C00680490002004293ED052
:1026B00010DC01293FD002291CBF06B010BD00F07C
:1026C000FBF9616806B0C1F38131491C4900B0FBD8
:1026D000F1F010BD08292AD010291CBF06B010BD8A
:1026E0006168226812F0807F04BF06B010BDC1F39C
:1026F000834211F4803F1DF8020004BF274948437C
:1027000008D0616804AAC1F34041515C244AB2FB7D
:10271000F1F14843616811F4800F1CBF06B010BD91
:102720004000204906B0A1FB0010400810BD00F099
:10273000D3F906B010BD216A01F44072B2F5807F72
:1027400006D111F0020F1EBF4FF4004006B010BDBD
:10275000B2F5007F07D1626A12F0020F1EBF49F680
:10276000404006B010BD4FF4407232EA01011CBF78
:1027700006B010BD216811F4003F18BF4FF224408D
:1027800006B010BD02030405060708090A0B0C0D6C
:102790000E0F1010010200000010024000093D0061
:1027A00000127A00ABAAAAAA2DE9F84304460078E1
:1027B000DFF8148110F0010F6AD0D8F81C00002750
:1027C00010F0805F0BD1D8F81C0040F08050C8F8A2
:1027D0001C00D8F81C00012700F0805000903B4EF0
:1027E000306810F4807F14D1306840F4807030601D
:1027F000FFF760FE0546306810F4807F09D100BF06
:10280000FFF758FE401B64282BD8306810F4807FF7
:10281000F6D0D8F8200010F440702AD0A18801F436
:102820004071814225D0D8F82000012220F4407167
:102830002748026000220260C8F8201011F0010F42
:1028400017D0FFF737FE0546D8F8200010F0020F2A
:1028500008BF41F288360CD1FFF72CFE401BB04276
:1028600002D90320BDE8F883D8F8200010F0020F49
:10287000F2D0D8F82000616820F440700843C8F80E
:1028800020002FB1D8F81C0020F08050C8F81C00A0
:10289000207810F0020F07D0D8F80400A16820F4C7
:1028A00040400843C8F80400207810F0100F07D00B
:1028B000D8F80400616920F480000843C8F80400D7
:1028C0000020BDE8F88300000010024000700040C6
:1028D00040044242002804BF012070472DE9F04324
:1028E000DFF89081054685B0D8F800000E4600F06C
:1028F0000700B0420CD2D8F8000020F007003043A7
:10290000C8F80000D8F8000000F00700B04265D118
:102910002868594C10F0020F14D010F0040F03D0A7
:10292000606840F4E0606060287810F0080F03D021
:10293000606840F4605060606068A96820F0F00052
:1029400008436060287810F0010F34D068680128CF
:1029500021D02168022823D011F0020F3ED06168F7
:1029600021F0030108436060FFF7A4FD074660689B
:10297000696800F00C00B0EB810F18BF41F2883994
:1029800019D000BFFFF796FDC01B48450CD905B014
:102990000320BDE8F083216811F4003FDFD11DE082
:1029A00011F0007FDBD119E06068696800F00C006D
:1029B000B0EB810FE6D1D8F8000000F00700B0427C
:1029C00010D9D8F8000020F007003043C8F8000004
:1029D000D8F8000000F00700B04203D005B0012095
:1029E000BDE8F083287810F0040F05D06068E9682E
:1029F00020F4E06008436060287810F0080F06D0EB
:102A00006068296920F4605040EAC10060601B4999
:102A10000FC98DE80F001A480068049061681948D2
:102A200001F00C02042A14D0082A12D1C1F3834207
:102A300011F4803F1DF8020004BF1349484308D039
:102A4000616804AAC1F34041515C0E4A5043B0FB97
:102A5000F1F061680D4AC1F30311515CC8400C49A3
:102A600008600C480068FFF777FD05B00020BDE85E
:102A7000F08300000020024000100240302B0008CC
:102A8000402B000800127A0000093D007088000801
:102A90001002002008020020044805490068496827
:102AA000044AC1F30221515CC84070471002002063
:102AB0000010024080880008044805490068496801
:102AC000044AC1F3C221515CC84070471002002083
:102AD000001002408088000815A186B00FC98DE85B
:102AE0000F0017A0174A006804905168164801F0BB
:102AF0000C03042B04BF06B07047082B1CBF06B0A4
:102B00007047C1F3834311F4803F1DF8030001BFF8
:102B10000E49484306B07047516804AAC1F34041CA
:102B2000515C094A06B05043B0FBF1F07047000019
:102B300002030405060708090A0B0C0D0E0F1010FE
:102B4000010200000010024000127A0000093D005E
:102B5000002804BF012070472DE9F84F0446007893
:102B6000E84D10F0010F59D0686800F00C000428FF
:102B700008D0686800F00C0008280CD1686810F4D0
:102B8000803F08D0286810F4003F47D060680028D4
:102B900000F0B28142E06068B0F5803F04BF286871
:102BA00040F480300AD010B1B0F5A02F11D02868C1
:102BB00020F480302860286820F480202860606835
:102BC000D0B1FFF777FC0646286810F4003F08D024
:102BD00024E0286840F480202860286840F4803091
:102BE000ECE7FFF767FC801B642800F23681286859
:102BF00010F4003FF5D011E0FFF75CFC06462868B2
:102C000010F4003F0AD000BFFFF754FC801B64287B
:102C100000F22381286810F4003FF5D12078BA4EE5
:102C200010F0020F4FF0010B4FF0000845D068681C
:102C300010F00C0F14D0686800F00C00082804BFD6
:102C4000686810F4803F0BD0206918B3C6F800B054
:102C5000FFF730FC0746286810F0020F09D011E09A
:102C6000286810F0020F1CBF206901280AD000F06C
:102C700043B9FFF71FFCC01B02287DD8286810F05D
:102C8000020FF6D02868616920F0F80040EAC10020
:102C9000286012E0C6F80080FFF70CFC07462868A1
:102CA00010F0020F09D000BFFFF704FCC01B022880
:102CB00062D8286810F0020FF6D1207810F0080FC3
:102CC00035D09248A169F9B1C0F800B0FFF7F2FB26
:102CD0000746686A10F0020F09D100BFFFF7EAFB50
:102CE000C01B022848D8686A10F0020FF6D0884846
:102CF00001684FF4FA50B1FBF0F0009000BF00986B
:102D0000411E0091FAD212E0C0F80080FFF7D2FB1A
:102D10000746686A10F0020F09D000BFFFF7CAFB30
:102D2000C01B022828D8686A10F0020FF6D120785C
:102D300010F0040F79D0E8694FF0000A10F0805FBE
:102D400009D1E86940F08050E861E8694FF0010A74
:102D500000F080500090DFF8BC91D9F8000010F42A
:102D6000807F19D1D9F8000040F48070C9F80000C4
:102D7000FFF7A0FB074600E06FE0D9F8000010F471
:102D8000807F09D1FFF796FBC01B642865D8D9F86E
:102D9000000010F4807FF5D0E068012804BF286AA5
:102DA00040F0010009D008B1052813D0286A20F0AE
:102DB00001002862286A20F004002862E06841F2DD
:102DC0008837D0B1FFF776FB8146286A10F0020FF2
:102DD00008D023E0286A40F004002862286A40F006
:102DE0000100EAE7FFF766FBA0EB0900B84234D820
:102DF000286A10F0020FF5D010E0FFF75BFB814668
:102E0000286A10F0020F09D0FFF754FBA0EB09006D
:102E1000B84222D8286A10F0020FF5D1BAF1000F9B
:102E200003D0E86920F08050E861E069F0B3696898
:102E300001F00C01082950D00228C6F860800FD09C
:102E4000FFF738FB0446286810F0007F57D000BF1A
:102E5000FFF730FB001B02283AD90320BDE8F88FAA
:102E6000FFF728FB0746286810F0007F09D000BF55
:102E7000FFF720FBC01B0228EFD8286810F0007F66
:102E8000F6D1206AB0F5803F05D16868A16820F4CA
:102E9000003008436860D4E908010843696821F4F8
:102EA000741108436860C6F860B000E027E0FFF7DF
:102EB00001FB0446286810F0007F20D1FFF7FAFAE2
:102EC000001B0228C9D8286810F0007FF6D016E051
:102ED000286810F0007FBBD111E0012808BFBDE8D1
:102EE000F88F6868226A00F48031914204D1616AE7
:102EF00000F47010884202D00120BDE8F88F002055
:102F0000BDE8F88F001002400000424280044242B7
:102F10001002002000700040024850F8210080B2EA
:102F200070470000006C0040024800EB810091B245
:102F300001607047006C0040002804BF012070470A
:102F40002DE9F0410446407C002618B9267420463D
:102F500000F08AF8022060742068416821F00801BE
:102F60004160FFF7A7FA0546206840684FF0040764
:102F700010F0080F0FD100BFFFF79CFA401BB0F50F
:102F80007A7F03D967740120BDE8F081206840682A
:102F900010F0080FF0D0FFF78DFA05462068406862
:102FA00010F0200F0BD100BFFFF784FA401BB0F5E3
:102FB0007A7FE7D82068406810F0200FF4D02068AE
:102FC000416841F0100141602068416821F007012B
:102FD0004160A06820B12248016821F00101016030
:102FE00020480168A26821F46071114301606068A3
:102FF000B0F1FF3F19D021688A6822F00F0242EA3F
:1030000010428A602168CA6860F30F02CA602068B3
:10301000416821F010014160FFF74CFA0546206835
:10302000406810F0200F08D012E00120FFF730FBBD
:10303000002818BF401EDED1A4E7FFF73BFA401B73
:10304000B0F57A7F9ED82068406810F0200FF4D049
:10305000E67301206073A07360740020BDE8F08106
:10306000306C00402C6C004008B50068A0F1804135
:10307000B1F5205118BF08BDFFF704FB0648C16930
:1030800041F00061C161C069044900F00060009036
:103090000120086008BD0000001002403C044242CC
:1030A000411EB1F1807F24BF012070474FF0E02026
:1030B0004161054AF02182F8141D00218161072138
:1030C00001610020704700000FE000E0704770478A
:1030D00090F83C20012A04BF0220704730B401233D
:1030E00080F83C30022280F83D2002685468D2F813
:1030F00008C00D6824F070042C4354600268A2F1EB
:103100008044B4F596341CBFA2F18044B4F59A34DF
:1031100011D0B2F1804F1CBFA2F18044B4F580649D
:1031200009D0A2F18044B4F500641CBFA2F1804430
:10313000B4F5406405D149682CF0800C41EA0C01DB
:10314000916080F83D30002180F83C1030BC08468A
:103150007047002804BF0120704710B5044690F85E
:103160003D0028B9002084F83C00204600F01EF8FD
:10317000022084F83D00211D206801F091FD01200E
:1031800084F8460084F83E0084F83F0084F840004C
:1031900084F8410084F8420084F8430084F8440035
:1031A00084F8450084F83D00002010BD08B5006893
:1031B000A0F18041B1F5963118BF08BD0948816979
:1031C00041F4006181618069002200F40060009098
:1031D00002211920FFF712FABDE808401920FFF775
:1031E000FDB900000010024090F83D1001291CBFFD
:1031F00001207047022180F83D100168CA6842F042
:103200000102CA600068A0F18041B1F596311CBF8F
:10321000A0F18041B1F59A3111D0B0F1804F1CBFBF
:10322000A0F18041B1F5806109D0A0F18041B1F5F4
:1032300000611CBFA0F18041B1F5406104D18168FB
:1032400001F00701062903D0016841F00101016086
:103250000020704790F83C20012A0DBF0220012376
:1032600080F83C30704730B4022280F83D20D0F81E
:1032700000C0DCF8082022F0770222F47F42CCF86C
:1032800008200A68502A3DD00CDC202A74D004DCC7
:10329000002A18BF102A51D18CE0302A6CD0402A65
:1032A0006CD091E0602A4AD0702A06D0B2F5805FD7
:1032B00044D0B2F5005F12D086E0D1E9014C02683B
:1032C000C968956844EA012125F47F4541EA0C016B
:1032D0002943916001688A6842F0770210E0026831
:1032E000D1F804C08C68C96895684CEA012125F4BE
:1032F0007F4521432943916001688A6842F48042F6
:103300008A6061E00268D1F804C0C968146A156A6D
:1033100025F001051562956924F00A0425F0F005F1
:1033200045EA011144EA0C0C9161C2F820C0016821
:103330008A6822F0700242F057028A6044E0026814
:10334000D1F804C0C968146A24F0100414629569A5
:10335000146A25F4704545EA013124F0A00444EADA
:103360000C1C9161C2F820C001688A6822F07002CA
:1033700042F067028A6027E01CE0FFE70268D1F8AC
:1033800004C0CC68116A156A25F0010515629569BB
:1033900021F00A0125F0F00545EA041441EA0C0188
:1033A0009461116201688A6822F0700242F047025B
:1033B0008A6009E00168D1F808C02CF0700C4CEA72
:1033C000020242F007028A6080F83D30002180F856
:1033D0003C1030BC08467047704770B50446006822
:1033E00001694FF0000511F0020F1CBFC16811F018
:1033F000020F13D06FF002010161012020772068D5
:10340000806910F0030F204602D0FFF7E5FF04E0CB
:1034100000F099F8204600F097F8257720680169B8
:1034200011F0040F1CBFC16811F0040F13D06FF02E
:1034300004010161022020772068806910F4407F38
:10344000204602D0FFF7C8FF04E000F07CF82046D9
:1034500000F07AF825772068016911F0080F1CBF89
:10346000C16811F0080F13D06FF00801016104204A
:1034700020772068C06910F0030F204602D0FFF7C4
:10348000ABFF04E000F05FF8204600F05DF8257720
:103490002068016911F0100F1CBFC16811F0100FF6
:1034A00013D06FF010010161082020772068C069F7
:1034B00010F4407F204602D0FFF78EFF04E000F0BA
:1034C00042F8204600F040F825772068016911F0A5
:1034D000010F1CBFC16811F0010F05D06FF0010191
:1034E0000161204600F032F82068016911F0800F78
:1034F0001CBFC16811F0800F05D06FF08001016121
:103500002046FFF7E3FD2068016911F0400F1CBF62
:10351000C16811F0400F05D06FF0400101612046F5
:1035200000F04EF82068016911F0200F1ABFC16841
:1035300011F0200F70BD6FF0200101612046BDE841
:103540007040FFF7C4BD704770470000F0B40068DA
:10355000A0F18041B1F596311CBFF0BC7047154811
:1035600001250178E1B1DFF850C00CF10902604695
:10357000531F00260CF1080C147844B10468641C35
:1035800004601F68BC4204BF8CF800500660103015
:10359000491E02F1100203F110030CF1100CEBD1E3
:1035A00006484178491E11F0FF01417008BF0570BF
:1035B000F0BC704705000020740C0020FB010020C7
:1035C000704770B504460068416994F83920C1F32A
:1035D000C0112025212A10D179B1416921F0800143
:1035E0004161206B002818BFFEF781FA2068C1688E
:1035F00021F0C001C16084F839502068416994F815
:103600003A20C1F38011222A15D1A1B1416921F0DC
:1036100040014161606B002818BFFEF768FA20681E
:10362000C16821F49071C1602068416921F00101F5
:10363000416184F83A50002070BD704770B5016850
:1036400004460868CA684B6910F00F0F4FF0200558
:1036500041D003F0010C02F490765CEA060600F01B
:10366000FC8010F0010F18BF12F4807F03D0E66BCE
:1036700046F00106E66310F0040F18BF13F0010FC7
:1036800003D0E66B46F00206E66310F0020F18BFA7
:1036900013F0010F03D0E36B43F00403E36310F076
:1036A000080F1CBF02F0200353EA0C0303D0E36BA6
:1036B00043F00803E363E36B002B08BF70BD10F019
:1036C000200F18BF12F0200F79D094F83A2020462E
:1036D000222A4BD08AE010F0200F18BF12F0200FE2
:1036E0006ED094F83A202046222A18BF70BD836815
:1036F000B3F5805F04BF0269002A826A0BD0B3F57C
:10370000805F31D0002B07BF0369002B496801F0AF
:103710007F0129D007E04968C1F308011180816A5F
:1037200001F1020103E01170816A01F1010181627E
:10373000C18DA1F101010904090CC18518BF70BD3B
:103740000168CA6822F02002CA600168CA6822F4CF
:103750008072CA6001684A6922F001024A6180F8F9
:103760003A5000F021FA70BD4968DCE78368B3F590
:10377000805F04BF0269002A826A0BD0B3F5805FC4
:103780001FD0002B07BF0369002B496801F07F01A0
:1037900017D007E04968C1F308011180816A01F17F
:1037A000020103E01170816A01F101018162C18DA2
:1037B000A1F101010904090CC18517D103E015E04D
:1037C0004BE04968EEE70168CA6822F02002CA604F
:1037D0000168CA6822F48072CA6001684A6922F0EE
:1037E00001024A6180F83A5000F0DEF92068416930
:1037F000E26BC1F3801112F0080F08BF002926D038
:10380000C16821F49071C1602068416921F0010113
:10381000416184F83A502068416911F0400F12D09C
:10382000416921F040014161606B60B12D49416304
:10383000606BFEF781F9002808BF70BD606B416BBB
:10384000BDE8704008472046FFF7F7FE70BD2046F0
:10385000FFF7F3FE0020E06370BD10F0800F18BF8B
:1038600012F0800F2DD094F83900212818BF70BDB8
:10387000A068B0F5805F04BF20690028206A18D0D6
:1038800000F101012162216800784860E08CA0F11C
:1038900001000004000CE08418BF70BD2068C168FE
:1038A00021F08001C1602068C16841F04001C16021
:1038B00070BD0088C0F308004860206A801C206248
:1038C000E4E710F0400F14BF12F0400F70BD204627
:1038D000CA6822F04002CA6084F8395000F03AFA0F
:1038E00070BD00008D4D0008002804BF0120704706
:1038F00070B5044690F83900002520B984F8385096
:10390000204600F023F8242084F839002068C1689C
:1039100021F40051C160204601F0B8FA2068016925
:1039200021F4904101612068416921F02A0141613F
:103930002068C16841F40051C160E563202084F82B
:10394000390084F83A00002070BD00002DE9F043F2
:1039500085B0002400940194029403940368064601
:103960005F49022003228027A3F1804C4FF010080A
:10397000BCF59C3C63D0A3F1804CBCF5884C1CBFCB
:1039800005B0BDE8F083CB6943F40033CB61CB696C
:1039900003F4003304938B6943F020038B6189693E
:1039A000504D01F0200104912021CDE90010039237
:1039B00069462846FEF776FC4020CDE900046946BA
:1039C00028460294FEF76EFC4748416841F0080122
:1039D00041F0E0614160464D4448C5E902472C6131
:1039E0006C61C5E900084FF40058C5E9064828464F
:1039F000FEF776FA002818BFFDF7F7FB35636E6215
:103A00003D4D3C48C5E90004C5E902472C616C61A5
:103A1000C5E906482846FEF763FA002818BFFDF7F7
:103A2000E4FB75630022032126206E62FEF7E6FDAB
:103A30005FF02600FEF7D2FD05B0BDE8F0838B698C
:103A400043F480438B618B6903F4804304938B6957
:103A500043F004038B618969284D01F0040104914E
:103A60004FF40071CDE90010039269462846FEF735
:103A700019FC2815CDE90004694628460294FEF792
:103A800011FC204D1E484FF48059C5E90004C5E9DA
:103A900002472C616C61C5E906492846FEF720FA09
:103AA000002818BFFDF7A1FB75636E62174D16481D
:103AB000C5E902472C616C61C5E90008C5E9064902
:103AC0002846FEF70DFA002818BFFDF78EFB356378
:103AD0000122032125206E62FEF790FD2520A9E733
:103AE000001002400014014000000140800002402C
:103AF0000C1400206C00024050140020000801400B
:103B0000580002408413002044000240C8130020E3
:103B100038B5044690F83A0020283DD1002912BF5C
:103B2000002A012038BD94F83800012834D0012043
:103B300084F83800A162A2850025E563222084F87C
:103B40003A00636B15489862636B1548D862636BE3
:103B500014481863606B134645630846D4F834C0B4
:103B6000216802466046091DFEF70AFA20680168CE
:103B70004168009184F83850C16841F48071C16097
:103B80002068416941F0010141612068416941F0CB
:103B900040014161002038BD022038BD0B4E0008B5
:103BA000494E00089D4D0008704770472DE9F05FB1
:103BB000044690F839001D4616468846202870D1E4
:103BC000B8F1000F12BF002E0120BDE8F09F94F85D
:103BD0003800012878D0012084F838004FF0000B1D
:103BE000C4F83CB0212084F83900FEF763FCA684B9
:103BF0008146E684A068B0F5805F03BF2069002895
:103C00000026464618BF4FF0000884F838B0E08C14
:103C10004FF0200A10B300BF20684FF08007006803
:103C200037EA00000FD000BFB5F1FF3F06D02DB33B
:103C3000FEF740FCA0EB0901A9421FD820680068EC
:103C400037EA0000F0D16EB3216816F8010B486026
:103C5000E08C401EE084E08C0028DDD12068402606
:103C6000006836EA00002AD0B5F1FF3F22D02DB11E
:103C7000FEF720FCA0EB0900A8421BD92068C16810
:103C800021F4D071C1602068416921F001014161D6
:103C900084F839A084F83AA084F838B00320BDE84D
:103CA000F09F11E0FFE738F8020B2168C0F308002D
:103CB0004860CDE72068006836EA0000D4D184F877
:103CC00039A00020BDE8F09F0220BDE8F09F000071
:103CD00070B5044690F83900202833D1002912BF6E
:103CE000002A012070BD94F8380001282AD0012054
:103CF00084F838002162A284E2840025E563212053
:103D000084F83900236B10489862236B0F48D862FF
:103D1000236B0F481863206B13464563206800F13E
:103D2000040C6246206BFEF72BF921686FF040000F
:103D3000086084F838502068416941F08001416191
:103D4000002070BD022070BD534E0008834E000855
:103D50009D4D000870477047FEE708B500200090B1
:103D60000222694641F22600FDF7E6F90222694681
:103D700041F22700FDF7E0F908BD00002DE9F84306
:103D8000264E00270097244DF0883C464FF001084E
:103D900035F8241081422ED18DF801700222694637
:103DA00041F22600FDF7C8F90220FEF735F905EBD0
:103DB0008400328941886846914215D1811C8DF872
:103DC0000370022241F22700FDF7B6F90220FEF748
:103DD00023F9F088A0F5E061E53914BF0520112032
:103DE000FDF720F9BDE8F8830222811C8DF80380DD
:103DF00041F227000CE0611CCCB2022CC8D318BFE2
:103E0000BDE8F8838DF801800222694641F2260060
:103E1000FDF792F9BDE8F8839887000804000020B8
:103E200000B58BB00020029003900490059006909E
:103E300007900890099002A800F0A4FB034602A88E
:103E400000905A080021022000F002F80BB000BDDB
:103E500070B53D4DADF5007D002605F5017C849CD7
:103E600006F80C000120462600F80C6002200E0A1D
:103E700000F80C60032000F80C100420110A00F870
:103E80000C10052000F80C20062000F80C3007204C
:103E9000A5F80404DBB1611E05F20A2013F0010F3E
:103EA00003D011F8012F00F8012F5A080AD000BFE3
:103EB00091F801C080F801C011F802CF00F802CFDC
:103EC000521EF5D1B5F804041844A5F8040405F50C
:103ED000017495F8045421462A466846FCF78DFA89
:103EE00000224FF6FF70002D88BF4AF2010C15D951
:103EF00014F8011B4840042310F0010F14BF8CEA92
:103F00005000400810F0010F14BF8CEA5000400828
:103F10005B1EF1D1511CCAB2AA42E9D3691C0DF84B
:103F20000500C9B2000A0DF80100481CC2B269467A
:103F30000648FFF7CDFE05480068016811F0400F04
:103F4000FBD00DF5007D70BD140800200413002087
:103F500030B583B000211A4800910191174A0291AF
:103F600002609215826001240473017502254FF4EA
:103F700060220561C2614160FDF786FB002818BF21
:103F8000FDF733F90620CDE90004042002906946CC
:103F90000B48FDF7C7FA002818BFFDF726F90720E0
:103FA000CDE900050520029069460548FDF7BAFAFB
:103FB000002818BFFDF719F903B030BD00240140F7
:103FC0001410002010B582B000240D4900940B4855
:103FD000019408600846FDF703FD002818BFFDF7AF
:103FE00004F900940022694605480194FDF7CAFCD3
:103FF000002818BFFDF7F9F802B010BD00740040AA
:1040000088100020194808B5416941F0010141615B
:104010004069002200F00100009001210B20FEF712
:10402000EDFA0B20FEF7DAFA002201210E20FEF74E
:10403000E5FA0E20FEF7D2FA002201210F20FEF74A
:10404000DDFA0F20FEF7CAFA002201211020FEF748
:10405000D5FA1020FEF7C2FA002201211120FEF746
:10406000CDFABDE808401120FEF7B8BA00100240B2
:104070002DE9F04786B00024304800940194029462
:104080000394816941F010018161816901F010019F
:104090000491816941F004018161816901F00401A9
:1040A0000491816941F020018161816901F0200161
:1040B0000491816941F0080181618069DFF88080A5
:1040C00000F008000490002203214046FEF7ECF9BE
:1040D000DFF87090002203214846FEF7E5F9DFF88B
:1040E00068A0002210215046FEF7DEF903270226C1
:1040F000012500970396CDE9015469464046FEF735
:10410000D1F803960095CDE9015469464846FEF77B
:10411000C9F803970096CDE9015469464846FEF771
:10412000C1F81020CDE90005CDE9024669465046A8
:10413000FEF7B8F806B0BDE8F087000000100240B6
:104140000008014000140140000C0140094810B56E
:1041500007490160062141604FF480718160FEF7DC
:10416000AFF9002808BF10BDBDE81040FDF73DB80D
:10417000003000409C100020F0B5644887B06249D0
:10418000016047F6FF71416000244FF480712546BD
:104190008160FEF7D1FE002818BFFDF726F8012147
:1041A0005A48FEF7B9FE5A4EA0F5A041371F5039C4
:1041B0007ED01E2060F307040D2161F30F2460F30D
:1041C0001744052060F307050C2060F30F25192024
:1041D00060F31745152060F31F654E4890E80E10F8
:1041E0008DE80E10D0E90410CDE90410C5F30722C4
:1041F0006B4603EB4203290E33F8023CC5F3074C30
:1042000001F5FA60634440F26D1C1E3101FB0CF1B4
:10421000491E194440F2A3235943230C03EBC11157
:10422000E3B24FF4616C03FB0CF3C4F3072CCCEB4B
:104230000C1C03EB8C031944A1F5E1434FF4C87146
:10424000022A13D910F0030F10D1334AA2FB00C287
:1042500052096FF0180C02FB0CF210EB820251D1E4
:10426000B0FBF1F201FB1202002A4BD05FF000021A
:1042700040F2A32C02FB0CF203EBC212A0F2B270CC
:1042800080B24AF2D73303FB00339B0DC3EB90039C
:10429000B0FBF1F0184400FB0CF002EBC0111F481A
:1042A000C26942F08052C261C26942F0006200E01D
:1042B0001CE0C2611A48026842F480720260194828
:1042C000026842F0100202608AB23260090C396062
:1042D000016821F010010160016811F0200FFBD08E
:1042E00045F2500201210948FEF71EFE0E483A68C9
:1042F000C11E336807B003EB0242BDE8F04008235B
:1043000000F0E8BB0122B3E700280040A81000201D
:104310001C280040588800081F85EB5100100240FF
:104320000070004004280040F701002010B586B05E
:1043300000241848009401940294039404941449AE
:10434000059401604721C0E9011442F20F71C0E9F0
:10435000031444618461FEF7FCFE002818BFFCF7DB
:1043600044FF4FF48050009069460A48FEF772FF00
:10437000002818BFFCF739FF049404A905480594E8
:10438000FEF7A6FE002818BFFCF72FFF06B010BDF1
:10439000002C0140BC10002010B5124C10480C211C
:1043A00020604FF4E13060600020A060E060C4E96C
:1043B0000401A061E0612046FFF796FA002818BFCB
:1043C000FCF713FF2068C16841F01001C160064985
:1043D000BDE810404FF4807201F50070FFF798BB04
:1043E00000380140041300200411002010B5124CC5
:1043F00010480C2120604FF4E13060600020A06084
:10440000E060C4E90401A061E0612046FFF76CFAB6
:10441000002818BFFCF7E9FE2068C16841F01001D0
:10442000C1600649BDE810404FF4807201F5A070EC
:10443000FFF76EBB0044004044130020041200202C
:10444000FEE70000022060F307014FF4E132024B67
:10445000024800F057BF00005560000830020020FD
:10446000704700002DE9F0411C4C002594F83700FE
:10447000012818BF84F8355005D000BF94F83A00E1
:10448000012824D11AE0164E6560208EF1898842F9
:10449000F4D2E16A206803F05FFFEFD284F837506E
:1044A000FCF7A6FF0746708A03F042FF0D4903F0B0
:1044B00011FE394603F0A0FD6060DFE70A4801798C
:1044C0004A1C0271102904BF057184F83A5094F80F
:1044D0003B00012808BF6560BDE8F081340C002076
:1044E0001C0C002000007A440400002070470000EB
:1044F00030B50F4891B0002490E80E108DE80E10F2
:10450000D0E90410CDE904106D4600BF05EB44006E
:1045100002220021FCF751FE601CC4B2182CF5D316
:104520001622A91C4FF48050FCF706FE11B030BDD6
:104530001C0C002010B588B0002000900190029063
:1045400003900490059006900790684600F01AF8D2
:104550000246694641F20E00FCF7EEFD084C0222CD
:1045600004F1320141F20B00FCF7E6FD022204F1F6
:10457000340141F20C00FCF7DFFD08B010BD000073
:10458000340C0020F0B587B03B4D00240746ADF851
:1045900000403849686903F09DFD384E384A01AB48
:1045A000F0602969374DA2FB012149093186316844
:1045B000019171680291B168CDE9031030690590ED
:1045C00028680A2200218069D0F868C2E04728687C
:1045D000328E0A218069D0F8643298472868A6F1A3
:1045E0001805017CF9B1047480696A460B21D0F882
:1045F0005C329847BDF8000000281CBFE989814261
:1046000017D0E8814FF0010028804FF002024FF0F0
:1046100000016846FCF7D1FD0222694641F206001E
:10462000FCF78AFD05E08069EA890B21D0F8643245
:10463000984700240DF1040505EB840004220021B5
:10464000FCF7BBFD601CC4B2052CF5D301983860A3
:10465000029878600398B8600498F860059838610B
:10466000308E000A387596F83000787507B016203D
:10467000F0BD00000000614504000020340C002063
:10468000898888883002002010B584B00024009406
:104690000194029419491A48039401F0CDFC0720B3
:1046A0008DF8000016480E22C178D0318DF8011027
:1046B0008DF8024041788DF803108DF80440817820
:1046C0008DF805108DF8064000788DF807000B482E
:1046D0008DF8084001788DF809108DF80A4041786E
:1046E0008DF80B108DF80C4080788DF80D00694620
:1046F0004FF49050FCF720FD04B010BDF4010020F1
:10470000F70100207047704710B5FCF771FE0146B5
:10471000134800F0C1FC134C206094F83C000028C2
:1047200018BF10BD0020FCF741FE68B10020FCF767
:104730003DFE03F0FDFD0C4903F042FE0B4903F082
:104740005BFC0B4903F03CFE01460A4800F0A4FC68
:10475000A060D4E9001003F031FF206110BD00001B
:104760002C000020340C00200F046D3C1B33843FD0
:104770002BF6373F440000202DE9F0410088194C0A
:1047800040BAB0F5FA7F208288BFBDE8F0810121F0
:10479000218003F0CDFD0746134903F011FE134DB0
:1047A000134E3146686103F00BFE03F089FD608013
:1047B0003846104903F004FE3146E86103F000FE7C
:1047C00003F07EFDE08038460B4903F0F9FD3146E9
:1047D000A86203F0F5FD03F073FDA081BDE8F04190
:1047E000FFF786BE1C0C0020CDCC4C3D340C0020C5
:1047F00000002041CDCCCC3D0AD7A33D1049CA6969
:1048000042F08052CA61CA6942F00062CA610D4931
:104810000A6842F480720A600B490A6842F010028A
:104820000A600A4B82B21A60000C1A1F10600868F6
:1048300020F010000860086810F0200FFBD07047CF
:104840000010024000700040042800401C28004076
:104850002DE9F0472A4D8046DFF8A890A88A2A4F14
:104860002A4E05F11804B0B103F062FD80464946B6
:1048700003F0A6FDA0614046394603F0A1FD606249
:104880004046234903F09CFD20624046314603F038
:1048900097FDE06215E0DFF87CA049465AF8380041
:1048A000A06103F017FC8146394603F089FD606280
:1048B0000AEBC800314640682062484603F080FD9C
:1048C000E062154EA069314603F07AFD03F0F8FC72
:1048D000A8803146606A03F073FD03F0F1FC688143
:1048E0003146206A03F06CFD03F0EAFC2881314672
:1048F000E06A03F065FD03F0E3FCE882BDE8F087C1
:104900001C0C0020CDCCCC3FCDCC0C4066660640C4
:10491000666616402888000800002041014940785A
:10492000887070472800002001494078087070475F
:104930000E00002001494078487070470E000020AA
:1049400001494078487070472800002001494078AC
:10495000887070470E000020074910B501220A80B8
:10496000008840BAC88203F0E3FC044903F0B2FBBC
:104970000349C86210BD00001C0C0020000020414B
:10498000340C0020064910B501220A80008840BA84
:1049900088820020FFF75CFFBDE81040FFF7A8BD4C
:1049A0001C0C00202DE9F047064639480024394DFB
:1049B0008642C8BFBDE8F0873046A96903F04CFCC9
:1049C00008BFBDE8F08716F0FF4FAE6156D0002556
:1049D000314FA846304657F8351003F0BDFD06D2DA
:1049E00007EBC5004168304603F0B6FC13D307EB74
:1049F000C5043046A16803F0AFFD07D23046E16838
:104A000003F0AAFC02D2681C85B204E0A81C85B29F
:104A10000C2DDFD34546DFF88490002459F835A0EB
:104A200057F83410304603F097FD06D207EBC40068
:104A30004168304603F090FC13D307EBC4053046C1
:104A4000A96803F089FD07D23046E96803F084FCC9
:104A500002D2601C84B204E0A01C84B20C2CDFD310
:104A6000444609EBC40051464468304603F0A8FCB4
:104A7000214603F0C1FA03F023FC0446C4F30B0300
:104A8000BDE8F047002211460548FCF7EBBF0000E7
:104A90000000644204000020C88700089401002040
:104AA0008810002001494078C87070472800002015
:104AB00010B54078002808BF10BD0548D0F80A108E
:104AC000406A03F005F8BDE81040FFF797BE00000C
:104AD000040000202DE9F00F63A783B0D7E900564A
:104AE000BF68CDE90056C3EB4315C5EB03234FF078
:104AF000000C0297DFF87C91DFF87C8140F2B27401
:104B000002EB03174FF4C87566466346CC4414F0B5
:104B1000030F0AD1A8FB04BA4FEA5A1A6FF0180B18
:104B20000AFB0BFA14EB8A0204D1B4FBF5FA05FB7D
:104B30001A421AB90CF5803C0CF5A34C621C94B2D5
:104B4000BC45E2D9A4F2D172C270621E92B212F0D8
:104B5000030F0AD1A8FB024C4FEA5C1C6FF018044B
:104B60000CFB04FC12EB8C0C07D1B2FBF5FC05FB33
:104B70001C22002A18BF1C2200D11D228DF8012002
:104B80003E4AFB1AB3FBF2F2DFF8F4C04FF4616463
:104B900002FB0CFC03EBCC13B3FBF4FC81F800C06C
:104BA000B3FBF4FC04FB1C3C40F689040CFB04FC46
:104BB0004FEA5C4C81F801C0DFF8C8C0ACFB034C85
:104BC0004FEA5C1CACEB0C1C03EB8C038B700021DC
:104BD0004FEA0D0C1CF801309A4204D2491C417076
:104BE000511C817004E0491CD21AC9B20C29F1D3BE
:104BF000417801291EBF0229C27802F5FA622BD042
:104C000001F1010303EB430340F2676C03FB0CF378
:104C100090F802C002EB53330CEB410119444AF205
:104C2000D73303FB023301EB9201B2FBF5F2A1EBA8
:104C300093511144144B0A46C3FB01624FEAA2038D
:104C4000A3EBE272A2EBC202114401F10101017077
:104C500003B0BDE8F00F7047C27801F10C01C9B292
:104C600002F2CF72CCE700001F1C1F1E1F1E1F1F69
:104C70001E1F1E1F8033E1011F85EB518051010073
:104C80005DFDFFFF8988888893244992FDF74ABC1F
:104C9000704700000148FEF7A0BB0000BC100020D8
:104CA000F0B402681E4B1F4C1F4D204EDFF880C031
:104CB000984218BF604508D0B0F1804F18BFA0429D
:104CC00003D0A84218BFB04204D14F6822F070024E
:104CD00047EA0202984218BF604508D0B0F1804F01
:104CE00018BFA04203D0A84218BFB04204D1CC687C
:104CF00022F4407244EA02024C6922F0800242EA45
:104D0000040202608A68C2620A688262984212BF24
:104D10006045096901634FF001014161F0BC7047D2
:104D2000002C01400004004000080040000C00403E
:104D300000340140074910B501220A80008840BABA
:104D4000488003F0F5FA044903F0C4F903494861C7
:104D500010BD00001C0C002000002041340C00207D
:104D6000074910B501220A80008840BA888003F004
:104D7000DFFA044903F0AEF90349886110BD000071
:104D80001C0C002000002041340C002010B5406AAB
:104D90000021C185C184FEF750FC10BD10B5406AEA
:104DA0000168496990F839C0C1F3C011002220237D
:104DB000BCF1210F0AD149B1C2840168D1F80CC0FD
:104DC0002CF0C00CC1F80CC080F839300168D1F863
:104DD00014C090F83A40CCF3801C222C0ED1BCF1C8
:104DE000000F0BD0C285CA6822F49072CA600168B5
:104DF0004A6922F001024A6180F83A30C16B41F001
:104E00001001C163FEF719FC10BD10B50146406AE0
:104E10000968096811F0200F13D10021C1850168CC
:104E2000CA6822F48072CA6001684A6922F00102ED
:104E30004A6101684A6922F040024A61202180F8F3
:104E40003A10FEF7B1FE10BD10B5406AFEF7ADFE98
:104E500010BD10B50146406A0968096811F0200FBD
:104E600002D0FEF777FF10BD0021C18401684A69B6
:104E700022F080024A610068C16841F04001C160CF
:104E800010BD10B5406AFEF766FF10BD70B5044650
:104E900000680169E26821F4405111430161216910
:104EA000A0680843616901432068C26822F4037264
:104EB00022F4A0521143C16020684169A26921F423
:104EC0004071114341612068A0F18041B1F59C31EE
:104ED0003CD0FDF7E1FD00BF00EBC00101EB00128B
:104EE00060681C498000B2FBF0F3A1FB0353B2FBE6
:104EF000F0FC5B096FF018056B430CEB830C32235D
:104F000003EB0C1CA1FB0C5C4FEA5C1C0CF0F005E5
:104F1000B2FBF0FCA1FB0C6C4FEA5C1C05EB0C1C1B
:104F2000B2FBF0F5B2FBF0F0A1FB002040096FF0FE
:104F30001802504305EB800003EB0010A1FB0010AA
:104F40002168C0F343106044886070BDFDF7B4FD74
:104F5000C2E700001F85EB510D4808B500680168E5
:104F600011F0100F0FD00168406800900848FEF75C
:104F700028FB0848006840680749C0F58070088031
:104F8000064901200870BDE808400148FEF756BBFD
:104F90000413002084130020FE01002000020020E2
:104FA0000D4808B50068016811F0100F0FD00168B6
:104FB000406800900848FEF704FB08480068406815
:104FC0000749C0F580700880064901200870BDE8D7
:104FD00008400148FEF732BB441300205014002063
:104FE0000202002001020020FEE700210160416072
:104FF0007047C9B241EA012141EA014101604160C3
:10500000017270472DE9F041204C00261E4D032708
:10501000A169206803F0A0F938BF84F83D6029D366
:10502000216A206803F098F906D2022084F83D0036
:10503000A068C5E907601DE0012084F83D00E8692B
:10504000401CE861B0F5616F14D3EE61A168286A75
:10505000884603F0B3FA0E4920F00040884204DB92
:105060004046616903F078F902D22E6284F83D70FF
:10507000A06828620749208EC989884228BF84F821
:105080003D70BDE8F081000004000020340C0020D9
:10509000CDCC4C3D1C0C00202DE9F0418846044647
:1050A0000169006802F0A8FF60600646616902F0CD
:1050B000A3FF0146304603F00DF8E060A7680546FF
:1050C0003946404603F07AFA294603F079F9394621
:1050D00002F092FF0746A06029464FF07E5003F091
:1050E0006DFA314603F06CF9206005488742A4BF91
:1050F000A068BDE8F0810020E060A060BDE8F0811C
:105100000AD7233C96B0FDF715FA4FF00008CDF80A
:105110001480CDF82C80CDF82880CDF84080CDF8D3
:1051200050800D204FF48031CDF85480CDE900013E
:10513000CDF808800120CDF83080CDF844800224DD
:10514000CDF83480CDF83880CDE90604CDF848801C
:10515000CDF84C80039004904FF4E010CDE9081096
:105160006846FDF7F5FC0F20CDE90A046002CDE9A1
:105170000C8002210AA8CDF83880FDF7ABFB032094
:105180001090E0011190C001129010A8FDF70CFBE7
:10519000FEF76EFFFEF736FFFEF714FFFFF7C6F8C7
:1051A000FFF7FAF8FFF722F9FEF7E6FFFEF7D0FE69
:1051B00040F6B830FCF730FFFEF7C8FFFCF716F8F2
:1051C00010222F492F48FCF74DFB00212E48FCF7F9
:1051D00059FC2E48FEF708F8FBF726FEFFF732F9D8
:1051E0002B4F2C4EDFF8B090DFF8B0B0DFF8B0A056
:1051F0003078002400280CD907EB0415287A18B160
:10520000E868804785F80880601CC4B23078844222
:10521000F2D399F80000A8B12248BBF80020224937
:105220000068036B984789F80080BBF800101E489F
:10523000FBF730F9ABF800804FF480721A491B4835
:10524000FEF766FC9AF80000A0B1194C19482188B5
:10525000FBF754FFFBF716FF8AF8008021881548FA
:10526000FBF718F9A4F800804FF480721149124836
:10527000FEF74EFC00F0CCFC1048FDF74CF9B7E708
:10528000940F00201410002088100020BC10002073
:10529000740C00200500002000020020FE01002008
:1052A000010200203002002004110020041300201D
:1052B0000202002004120020441300209C10002051
:1052C0000021C0F80011FD21FBF706B9FF2330B41F
:1052D0001A460029C4BF0A4C04F580750CDD00BFD6
:1052E00010F801CB491E8CEA020C14F80C205A402D
:1052F00015F80C300029F3DC30BC42EA032070477B
:10530000888800082DE9F04104460E4615461F46E0
:105310005820FAF79FFF2060002859D0C761216804
:105320002D48086221682D4848622068067028468A
:1053300002F0FBFD05460E460B462A460020284992
:1053400002F03EFC02F094FD21682A463346C86014
:105350000020244902F034FC02F08AFD21688860B4
:1053600021680020087421681F48886221681F484E
:10537000C86221681E48086321681E484863216886
:105380001D48886321681D48C86321681C4808645B
:1053900021681C48486421681B48886421681B48B0
:1053A000C86421681A48086521681A484865206859
:1053B000183000F047F840B12068143000F02CF8A5
:1053C00000281CBF0120BDE8F0812068FAF771FFBA
:1053D0000020BDE8F0810000A55600085D570008D8
:1053E000389C6C4176B0804171600008956000087F
:1053F00081600008F55B00085F570008FB58000853
:10540000B3590008A95A00089F5B0008CD5B00084B
:10541000195800088D58000810B504464FF48270E2
:10542000FAF718FF20603CB10021C0F80011FD21FF
:10543000FBF752F8012010BD2046FAF73AFF002092
:1054400010BD00002DE9F14F4FF000084FF41B7024
:10545000FAF700FF04007CD04748C4F80C02474824
:10546000C4F814024648C4F81C024648C4F8240292
:105470004548C4F810024548C4F818024448C4F826
:1054800020024448C4F828024348C4F82C02434888
:10549000C4F830024248C4F834024248C4F8380222
:1054A0004148C4F83C024148C4F840024048C4F8AE
:1054B00044024048C4F848023F48C4F84C023F4800
:1054C000C4F850023E48C4F854023E48C4F858029A
:1054D0003D48C4F85C023D48C4F860023C48C4F84A
:1054E00064023C48C4F8680200274FF48070C4E9A5
:1054F00081700C202760FAF7ADFE002837D00760D6
:10550000476087602060D4F80412DFF8CCB0491CF3
:105510000546B946C4F80412002604EBC91A00BFB8
:10552000D4E981014FF00008884220D20C20FAF71C
:1055300091FE70B1076047608760D4F804124FF0A5
:105540000108491CC4F804125BF8291031440160B9
:1055500000E00CE00AEB8601761C4860A860054676
:10556000202EDDD309F10109B9F1040FD4D300983D
:1055700004604046BDE8F88F215C0008615C0008CB
:10558000895D0008A35D0008D35D00088F5E0008F8
:10559000855F000809600008915C0008AB5C0008AA
:1055A000BF5E0008C95E0008055D0008255D0008B3
:1055B0001B5F0008295F00086D5D0008795D000829
:1055C000695F0008755F0008E95C0008F55C000889
:1055D000FF5E00080B5F00081402002030B4304C5E
:1055E00003460020D4F800C08C459CBF0CF1200578
:1055F000A94206D2A1EB0C0003EB800040681060CA
:105600000120D4F804C08C459CBF0CF12005A942B0
:1056100007D2A1EB0C0003EB8000D0F884001060EF
:105620000120D4F808C08C459CBF0CF12005A9428C
:1056300007D2A1EB0C0003EB8000D0F8040110604E
:105640000120D4F80CC08C459CBF0CF12004A14271
:1056500007D2A1EB0C0003EB8000D0F884011060AE
:105660000FE000281CBF30BC70471B689B68002BF4
:1056700004BF30BC704700BFD3F800C08C4504D1D4
:10568000136030BC4FF00100704704D94FF00001A7
:10569000116030BC70479B68002BEDD130BC704767
:1056A0001402002070B545690446D5F800010328AE
:1056B00005D22046626ABDE8704002211047811E73
:1056C0002846FFF703FE28782178884205D0204637
:1056D000626ABDE87040042110476878052829D027
:1056E00008DC012812D0022815D0032818D004287D
:1056F0001BD005E0062822D00F2825D0102828D05E
:105700002046626ABDE87040052110472046A16B23
:10571000BDE8704008472046E16BBDE8704008478F
:105720002046216CBDE8704008472046616CBDE80A
:10573000704008472046A16CBDE8704008472046ED
:10574000E16CBDE8704008472046216DBDE870401F
:1057500008472046616DBDE87040084770472DE955
:10576000F0478146D9E90576788844BAB88845BAC1
:105770004FEA850A5046FAF76DFD80465146FAF722
:10578000ABFED6F830C243462A4621463046E047B3
:1057900015F0070F4FEAD50018BF401CC4B2601DBA
:1057A000FAF758FD0646611DFAF774FE3878307036
:1057B000787870700020B470002C16D900210DE0AC
:1057C00018F82220331802F001028A4093F803C02F
:1057D000491C4CEA0202DA70082903D201EBC0022C
:1057E000AA42EDD3401CA042E8D3E11C3046FFF7AB
:1057F0006DFD3119C870000A0871D9F83430621D86
:105800003146484698474046FAF753FD3046BDE8D2
:10581000F047FAF74EBD00002DE9F0470646002498
:10582000D6E90559688890FA90F8A88847BA002FF9
:1058300011D900BF05EBD40004F00701C079D9F8F5
:105840003432C84000F0010208EB04014846984792
:10585000641CA742EED80820FAF7FCFC0446FFF7C8
:10586000C4FB28682060A888A08006212046FFF796
:105870002DFDA071000AE071736B082221463046AD
:1058800098472046BDE8F047FAF713BD2DE9F047E9
:1058900006460024D6E90559688890FA90F8A88849
:1058A00047BA002F0ED900BF05EB4400D9F8643287
:1058B000B0F8070008EB040142BA48469847641C58
:1058C000A742F1D80820FAF7C5FC0446FFF78DFB84
:1058D00028682060A888A08006212046FFF7F6FCF3
:1058E000A071000AE071736B082221463046984788
:1058F0002046BDE8F047FAF7DCBC2DE9F0478146C9
:10590000D9E90576788844BAB88845BA4FEA850A55
:105910005046FAF79FFC80465146FAF7DDFDD6F86F
:1059200040C243462A4621463046E04715F0070F5D
:105930004FEAD50018BF401CC4B2601DFAF78AFCBC
:105940000646611DFAF7A6FD3878307078787070D9
:105950000020B470002C16D900210DE018F8222088
:10596000331802F001028A4093F803C0491C4CEA44
:105970000202DA70082903D201EBC002AA42EDD379
:10598000401CA042E8D3E11C3046FFF79FFC3119D0
:10599000C870000A0871D9F83430621D3146484693
:1059A00098474046FAF785FC3046BDE8F047FAF7DD
:1059B00080BC2DE9F0478046D8E905A4BAF802007A
:1059C00047BABAF8040045BA4FEA45094846FAF71B
:1059D00041FC06464946FAF75DFDD4F860C23346FD
:1059E0002A4639462046E047012D14D9344606EBB5
:1059F0004500001B801C401000EBD07040100028B8
:105A000009DD34F8021B401E34F8022B24F8042C64
:105A100024F8021CF5D1052000EB45042046FAF7D6
:105A200019FC07462146FAF735FD9AF80000387050
:105A30009AF80100787087F80290E5B1B11E781CE1
:105A400015F0010F06D031F8022F120A00F8022FCC
:105A50000A7842706A080ED04B88521E4FEA132C07
:105A600080F802C0C37031F8043F4FEA132C00F8ED
:105A700004CF4370F0D1032000EB45013846FFF717
:105A800025FC07EB45012246C870000A0871D8F8CA
:105A900034303946404698473046FAF70AFC3846D3
:105AA000BDE8F047FAF705BC2DE9F0478046D8E994
:105AB00005A4BAF8020047BABAF8040045BA4FEA9A
:105AC00045094846FAF7C6FB06464946FAF7E2FC9E
:105AD000D4F850C233462A4639462046E047012DC5
